:020000040800F2
:1000000068ED002039030008A1910008996D0008EF
:10001000B9900008131900088DD0000800000000F6
:10002000000000000000000000000000790200084D
:10003000912A000800000000D5020008FDA9000870
:100040005303000853030008530300085303000838
:100050005303000853030008530300085303000828
:100060005303000853030008572F000853030008E8
:1000700079260008530300085303000853030008BF
:1000800053030008530300085303000853030008F8
:100090001519000853030008530300085D2F0008DA
:1000A00053030008CDAA00085303000853030008B7
:1000B00053030008530300085303000853030008C8
:1000C00053030008530300085303000853030008B8
:1000D000530300085303000853030008FDB0000851
:1000E0005303000853030008530300085303000898
:1000F0005303000853030008530300085303000888
:100100005303000853030008530300085303000877
:100110005303000853030008530300085303000867
:100120008526000891260008530300089D26000834
:100130005303000853030008530300085303000847
:10014000211900085303000853030008A591000873
:1001500053030008A92600085303000811B1000842
:100160005303000853030008530300085303000817
:100170005303000853030008530300080000000065
:10018000530300085303000800F002F800F064F87D
:100190000AA090E8000C82448344AAF10107DA45E2
:1001A00001D100F059F8AFF2090EBAE80F0013F0D0
:1001B000010F18BFFB1A43F001031847944D0100CB
:1001C000B44D010010F8013B0A4413F0030408BFCA
:1001D00010F8014B1D1108BF10F8015B641E05D01B
:1001E00010F8016B641E01F8016BF9D1002D15D0D8
:1001F00010F8014B03F00C030C2BA1EB04040ABF15
:1002000010F8013BA4EB8314A4EB032405F10103D4
:1002100014F8016B5B1E01F8016BF9D5914238BFF0
:1002200010F8013BD1D3704700230024002500269D
:10023000103A28BF78C1FBD8520728BF30C148BF49
:100240000B6070471FB512F050FE9DE8030000F0F0
:10025000B5FF1FBD10B510BD01F034F81146FFF712
:10026000F1FF10F045F901F052F803B4FFF7F2FF87
:1002700003BC01F089F800002C4B19680868B0E84D
:10028000F04F80F30988BFF36F8F4FF0000080F3C9
:10029000118870470000000008480068006880F37B
:1002A00008884FF0000080F3148862B661B6BFF38F
:1002B0004F8FBFF36F8F00DF00BF00BF08ED00E07E
:1002C000DFF80C00016841F470010160704700BF65
:1002D00088ED00E0EFF30980BFF36F8F134B1A68CE
:1002E0001EF0100F08BF20ED108A20E9F04F1060BB
:1002F00009B44FF0500080F31188BFF34F8FBFF364
:100300006F8F11F013F84FF0000080F3118809BCD3
:1003100019680868B0E8F04F1EF0100F08BFB0EC85
:10032000108A80F30988BFF36F8F70479400002014
:10033000EFF30580704700000948804709480047EF
:10034000FEE7FEE7FEE7FEE7FEE7FEE7FEE7FEE785
:10035000FEE7FEE704480549054A064B70470000E2
:10036000BDAA00088901000868AD002068ED0020E2
:1003700068CD002068CD00209FED1A1AF5EE000A26
:1003800040EE010ABDEEE00AF5EEC00A10EE100ADA
:10039000F1EE10FA38BF401E00EE100A1349F7EED6
:1003A000001AB8EEC00A30EEC00ADFED0F0A20EEE8
:1003B000200AFCEEC00A10EE900AC0F3080000EE1E
:1003C000900A01EB8000F8EE600A90ED011A70EEE1
:1003D000600A90ED000A71EEE01A21EE800A00EE4C
:1003E000810A704783F9223E00000044D844010886
:1003F000B5EEC00AF1EE10FA07D2DFED1E0AB4EE38
:10040000E00AF1EE10FAA8BF7047DFED1B0AB5EE67
:10041000C00A60EE200ABDEEE01A11EE100AF1EEFD
:1004200010FA38BF401E00EE100A1549F7EE001A08
:10043000B8EEC00A30EEC00ADFED100A60EE200A06
:10044000BCEEE00A10EE100AC0F3080000EE100A3D
:1004500001EB8000B8EE400A90ED011A70EEC00A80
:1004600090ED000A71EEE01A21EE800A00EE810A9A
:1004700070470000CD024CB483F9223E00000044D6
:10048000D844010870B405880E884468D1F804C0C7
:100490005368B54208D140884988884201BF118815
:1004A0008D425188884203D070BC6FF002007047C3
:1004B00005FB00F1880827D094ED001ADCED000A56
:1004C00094ED010ADCED011A31EE201AD4ED020A96
:1004D00070EE211A9CED020A83ED001AC3ED011A99
:1004E00094ED031ADCED031A30EE800A401E71EE23
:1004F000210A83ED020A04F11004C3ED030A03F19B
:1005000010030CF1100CD7D111F0030030D0B0F172
:10051000004F30D200282BDD211F1B1FACF104023D
:1005200010F0010F0AD091ED010AD2ED010A091D68
:10053000121D30EE200A83ED010A1B1D400817D062
:1005400091ED010AD2ED010A401E30EE200A83ED42
:10055000010A91ED020AD2ED020A01F1080102F14D
:10056000080230EE200A83ED020A03F10803E7D106
:1005700070BC00207047B4EC010A401EFCEC010A7C
:1005800030EE200AA3EC010AF5D1F1E701804280A8
:10059000436070472DE9F34F84B0049840680090A1
:1005A000486801900498B0F800E04588DFEDFE0A45
:1005B00000200290B0EE600AAE4506D10888498856
:1005C000884204BF7146864504D06FF0020006B031
:1005D000BDE8F08F01985FEA010C18BFB7EE001A72
:1005E0003DD000BFBEEB0C0117D0B1F1004F80F041
:1005F0001F82002911DD021F11F0010F1CBFC2ED87
:10060000010A121D4B1006D0C2ED010AC2ED020A0A
:1006100008325B1EF8D100EB8100BCF10102A0ECB6
:10062000011A19D0B2F1004F80F00882002A13DDC0
:10063000031F12F0010F1CBFC3ED010A1B1D511057
:1006400008D000BFC3ED010AC3ED020A491E03F141
:100650000803F7D100EB8200BCF1010CC2D14FF0CE
:1006600000080395002D14BFB0EE602A002000F0B2
:10067000BF8100BF009908FB05F001EB800B0199D9
:10068000DBED002A01EB80000346F0EE421AC6457E
:1006900052D9AEEB0802ABEB850112F0010F17D077
:1006A00001EB850191ED000AB5EEC00AF1EE10FAFA
:1006B00007DDB4EEE10AF1EE10FA09DDF0EE401AC2
:1006C00006E0B1EE400AF4EEC01AF1EE10FAF5D3EE
:1006D000521031D001EB850C9CED000AB5EEC00A3A
:1006E000F1EE10FA05DDB4EEE10AF1EE10FA09DDE3
:1006F00006E0B1EE400AF4EEC01AF1EE10FA01D2B3
:10070000F0EE401A01EBC50191ED000AB5EEC00A0A
:10071000F1EE10FA05DDB4EEE10AF1EE10FA09DDB2
:1007200006E0B1EE400AF4EEC01AF1EE10FA01D282
:10073000F0EE401A521ECDD1F5EEC01AF1EE10FACD
:1007400000F07381F5EEC02A0126F1EE10FA00994F
:10075000D4BFB1EE620AB0EE620AB4EE610AF1EE05
:1007600010FA1CBFAEEB0802B2F1010C47D005FB3A
:1007700008F201EB820292ED001A00BFB0EE410ACE
:1007800005FB06F4B5EEC00A00EB8404F1EE10FAA6
:10079000CCBFF0EE400AF1EE400AF4EE610AF1EE51
:1007A00010FA28D1B5EB080C11D0BCF1004F7DD266
:1007B000BCF1000F0BDD00BF92ED000AD1ED000A85
:1007C000BCF1010CE2EC010AA1EC010AF4D1290010
:1007D0000ED0B1F1004F6AD2002909DD94ED000A74
:1007E000D0ED000A491EE4EC010AA0EC010AF5D1A3
:1007F000012002900BE0761CBCF1010CBED10298E6
:10080000012804D0F5EEC02AF1EE10FA7ED09BED5F
:10081000000AB5EB08009A465946064622D0B0F1C8
:10082000004F74D200281DDD091F10F0010F06D003
:10083000F0EE400A80EEA01A81ED011A091D401069
:1008400010D000BFD1ED010A401E80EE801A81ED6C
:10085000011A91ED021AC1EE000AC1ED020A01F17E
:100860000801EFD1280026D0B0F1004F7ED2002839
:1008700021DDAAF1040110F0010F06D0D1ED010A2B
:1008800080EE801A81ED011A091D401013D000BFBF
:10089000D1ED010A401E80EE801A81ED011AD1EDE2
:1008A000020A80EE801A81ED021A01E0CBE0D6E068
:1008B00001F10801ECD1DDE900124FF000095FEA17
:1008C0000E0773D0C14504BF01EB860102EB850220
:1008D00074D091ED000ADC465046331E35D01C46DC
:1008E000B6F1004F7ED2002C2FDD0B1FABF1040CB4
:1008F00016F0010F0FD0F0EE400ADCED011AB0EE59
:10090000601A00EEE11A83ED011A01E08DE0B1E01A
:100910001B1D0CF1040C741015D000BFD3ED010A9F
:100920009CED011A40EE410AC3ED010AD3ED020A23
:100930009CED021A0CF1080C40EE410AC3ED020ACC
:100940000833641EEAD101EB86012B0036D0B3F1E7
:10095000004F72D2002B31DDA2F1040CAAF1040089
:1009600013F0010F0CD0DCED010A00E08BE090EDFC
:10097000011A001D40EE410ACCED010A0CF1040CF5
:100980005C1019D0DCED010A90ED011A40EE410A2D
:10099000CCED010ADCED020A90ED021A083040EEBF
:1009A000410ACCED020A03E0000000000DE005E082
:1009B000641E0CF1080CE5D102EB830201EB880107
:1009C0007F1E09F101097FF47DAF009808F101084D
:1009D000001D00900398401E03907FF44BAE0299D7
:1009E000012900E058E004BF06B0BDE8F08F00BF69
:1009F000B5EEC00AF1EE10FA7FF4E9AD04990EFBF2
:100A000005F3002B4A684FF000010BD902EB810C73
:100A10009CED000AB5EEC00AF1EE10FA02D1491CB5
:100A20008B42F3D88B427FF4D2AD6FF00400CEE559
:100A3000E0EC010A491EFBD1EFE538E0E0EC010AE9
:100A4000521EFBD108E692ED000AD1ED000ABCF17E
:100A5000010CE2EC010AA1EC010AF4D1B7E694ED35
:100A6000000AD0ED000A491EE4EC010AA0EC010ADC
:100A7000F5D1BDE6D1ED000A401E80EE801AA1EC52
:100A8000011AF7D1EEE6D3ED000A401E80EE801A7F
:100A9000A3EC011AF7D10EE7BCEC011AD1ED000A64
:100AA0005B1E40EE410AE1EC010AF5D14DE7B0ECE6
:100AB000011AD2ED000A5B1E40EE410AE2EC010A87
:100AC000F5D17BE72DE9F04F82B04668536801937A
:100AD000058847884B88002000900888874201BF1E
:100AE000B2F800C06545528893421EBF6FF0020005
:100AF00002B0BDE8F08F9FED412A4FEA970EC7F391
:100B0000400B00BFDDE9000202EB800A4A6898460C
:100B10004FF00009B0EE420AB4465FEA0E0025D05D
:100B200092ED001ADCED001A02EB8302DCED010A03
:100B300001EE810A92ED001A02EB8302401ED2ED13
:100B4000001A02EB830200EE810A9CED021ADCED32
:100B5000030A00040CF1100C000C01EE210A92EDC6
:100B6000001A02EB830200EE810AD9D117F00300CC
:100B700026D0ACF10404A2EB830210F0010F08D0E0
:100B800002EB8302D4ED010A92ED001A241D00EE5F
:100B9000810A5FEA0B0013D002EB830CD4ED010A4B
:100BA0009CED001A02EBC302401E00EE810AD4ED58
:100BB000020A92ED001A04F1080400EE810AEBD15A
:100BC00009F10100AAEC010A1FFA80F9486800EB5C
:100BD0008902A8F101001FFA80F8B8F1000F99D13D
:100BE000009806EB8706184480B20090681E050442
:100BF0002D0C87D102B00020BDE8F08F000000006E
:100C000070B405880E884468D1F804C05368B542B2
:100C100008D140884988884201BF11888D42518897
:100C2000884203D070BC6FF00200704705FB00F1F2
:100C3000880827D094ED001ADCED000A94ED010A33
:100C4000DCED011A31EE601AD4ED020A70EE611A81
:100C50009CED020A83ED001AC3ED011A94ED031A0C
:100C6000DCED031A30EEC00A401E71EE610A83ED1E
:100C7000020A04F11004C3ED030A03F110030CF19E
:100C8000100CD7D111F0030030D0B0F1004F30D2AA
:100C900000282BDD211F1B1FACF1040210F0010FF7
:100CA0000AD091ED010AD2ED010A091D121D30EEA4
:100CB000600A83ED010A1B1D400817D091ED010A5F
:100CC000D2ED010A401E30EE600A83ED010A91ED7B
:100CD000020AD2ED020A01F1080102F1080230EE27
:100CE000600A83ED020A03F10803E7D170BC00201B
:100CF0007047B4EC010A401EFCEC010A30EE600AB9
:100D0000A3EC010AF5D1F1E72DE9F04F028847681D
:100D1000B0F802804888D1F8049082B04FF0000A01
:100D20001646824207BF098888456FF0020002B06C
:100D300018BFBDE8F08F4FEA980B02EB420001901C
:100D4000C8F34000CDF8000009EB8A01BBF1000FA9
:100D500033D0019801EB820C01EB80043B46E64660
:100D600001EBC2054FEA0B0093ED000A401E81ED36
:100D7000000A93ED010A01EB02118CED000A93EDDC
:100D8000020A0CEB021C85ED000A93ED030A05EB49
:100D9000021584ED000A04EB021403F11003E3D101
:100DA0000EEB820000EB820000EB8201ABF1010050
:100DB000504307EB0B1701EB001118F0030C21D087
:100DC0003B1FA1EB82011CF0010F06D093ED010A3D
:100DD00001EB82011B1D81ED000A009880B100BF6C
:100DE00093ED010A01EB820401EBC20184ED000ADC
:100DF00093ED020A401E81ED000A03F10803EFD1D2
:100E000007EB8C070AF101001FFA80FA701E060436
:100E1000360C99D102B00020BDE8F08F70B50646BF
:100E200000F0B0F9056806F10B0020F00704B442A9
:100E30009CBF002070BD2B466A68BAB11068A04202
:100E400010D304F1080188423CBF5068586007D3B2
:100E50005168101941601168091B016058601460E5
:100E6000101D70BD13465268002AE7D1214628465E
:100E700000F090F90028DED170BD70B50446051F62
:100E800000F080F90068002C14BF446870BD002C8D
:100E900018BFAC423CBF20466468F8D301680A180A
:100EA000AA4218BF456003D12A6805461144016073
:100EB00028684119A1421CBF6C6070BD61686960FF
:100EC00021680844286070BD53EA020C00F0698074
:100ED0002DE9F04B4FF00006002B1FBFB3FA83F54E
:100EE00003FA05F424FA05F65E4012BF1643B2FA7F
:100EF00082F502FA05F4C5F120051EBF22FA05FCB1
:100F000044EA0C04203556EA044C4FEA144418BF56
:100F1000641C4FF000084FF00009904271EB030C85
:100F200039D3002919BFB1FA81F701FA07F6B0FAEF
:100F300080F700FA07F6C7F120071EBF20FA07FC6A
:100F400046EA0C062037B6FBF4FCA7EB0507103F7A
:100F500007F01F0BCBF120060CFA0BFB2CFA06F660
:100F600044BFB3460026202FA4BF5E464FF0000BBF
:100F70005BEA060C08BF4FF0010B19EB0B09ABFB4A
:100F8000027C48EB0608C01B06FB02CC0BFB03CC23
:100F900071EB0C01C1E70B46024641464846BDE8ED
:100FA000F08B13B54FF000004FF00001AFF300805D
:100FB000BDE81C40704740EA0103024630B59B077C
:100FC00010D14FF0013400E008C208C91D1B9D4339
:100FD00015EAC41FF8D013F0FF0102F8011B0DD071
:100FE0001B0AF8E711F8013B002B02F8013B05D082
:100FF00011F8013B002B02F8013BF3D130BD032A6D
:1010000040F2308010F0030C00F0158011F8013B25
:10101000BCF1020F624498BF11F801CB00F8013B0C
:1010200038BF11F8013BA2F1040298BF00F801CBD0
:1010300038BF00F8013B11F0030300F02580083AA7
:10104000C0F0088051F8043B083A51F804CBA0E8FE
:101050000810F5E7121D5CBF51F8043B40F8043B53
:10106000AFF30080D20724BF11F8013B11F801CB88
:1010700048BF11F8012B24BF00F8013B00F801CB59
:1010800048BF00F8012B704710B5203AC0F00B8024
:10109000B1E81850203AA0E81850B1E81850A0E87C
:1010A0001850BFF4F5AF5FEA027C24BFB1E81850D6
:1010B000A0E8185044BF18C918C0BDE810405FEA46
:1010C000827C24BF51F8043B40F8043B08BF7047C2
:1010D000D20728BF31F8023B48BF11F8012B28BFC7
:1010E00020F8023B48BF00F8012B70474FF0000288
:1010F0000429C0F0128010F0030C00F01B80CCF12A
:10110000040CBCF1020F18BF00F8012BA8BF20F897
:10111000022BA1EB0C0100F00DB85FEAC17C24BFEB
:1011200000F8012B00F8012B48BF00F8012B704795
:101130004FF0000200B5134694469646203922BF70
:10114000A0E80C50A0E80C50B1F12001BFF4F7AFBB
:10115000090728BFA0E80C5048BF0CC05DF804EB9D
:10116000890028BF40F8042B08BF704748BF20F80B
:10117000022B11F0804F18BF00F8012B7047704709
:10118000704770470048704710AD002070477047A7
:101190007047704738B504460A4600206946AFF3E9
:1011A0000080002808BF38BD02460099204600F0A4
:1011B0004FF8012038BD012000F07CB8F8B5AFF33E
:1011C0000080054600200C46102000BF0646A819E6
:1011D000A0420DD9324669460020AFF300800700D7
:1011E00008BF00F067F80098A04218BF0546C41970
:1011F000FFF7C8FF05600746F01D20F007004619FD
:10120000284600F00AF8B44208BFF8BDA21B3146D8
:101210003868BDE8F84000F01BB800210160C0E963
:10122000011070471020704710B500F00DF80068ED
:1012300010BD10B5044600F007F8046010BD0000B2
:101240000048704708AD00200048704708AD0020F6
:10125000034640688C46002818BF88423CBF0346BE
:101260004068F8D318681844884207D00CF103008E
:1012700020F00700001D411A521A0146081D0A609D
:10128000FFF7FBBD1FB584B000200A9C06AB04AA83
:1012900002A90094AFF3008018B1DDE9020108B0A3
:1012A00010BD0348204000F040F800200146F6E75A
:1012B0000000207C10B500F03FF8BDE8104000F0C1
:1012C0002FB870477546FFF7BBFFAE46050069466D
:1012D000534620F00700854618B020B5FFF73AF8CE
:1012E000BDE820404FF000064FF000074FF0000827
:1012F0004FF0000B21F00701AC46ACE8C009ACE8A8
:10130000C009ACE8C009ACE8C0098D46704710B50B
:101310000446AFF300802046BDE81040FEF7A5BFAD
:10132000002801D000F030B8704710B500F04CF83C
:10133000BDE81040FFF7F4BF10B5012805D000212B
:1013400003A000F027F8012010BD09A1F8E7000074
:1013500053494752544D454D3A204F7574206F669E
:101360002068656170206D656D6F72790000000006
:101370003A2048656170206D656D6F727920636FEA
:10138000727275707465640001491820ABBEFEE787
:101390002600020070B505460C460A2000E06D1CD0
:1013A00000F068F835B128780028F8D102E0641C14
:1013B00000F060F814B120780028F8D1BDE8704042
:1013C0000A2000F057B8000010B5022803D04101F0
:1013D00003D50DA112E0002010BD010101D50FA120
:1013E0000CE0C10001D511A108E0810001D512A1D6
:1013F00004E0400001D513A100E0002115A0FFF793
:10140000C9FF012010BD0000496E76616C6964203F
:101410004F7065726174696F6E000000446976698F
:101420006465204279205A65726F00004F766572BC
:10143000666C6F7700000000556E646572666C6FB5
:1014400077000000496E657861637420526573759A
:101450006C7400005349474650453A204172697404
:10146000686D6574696320657863657074696F6E13
:101470003A20000008B569468DF800000320ABBE95
:1014800008BD000001221021014803F04FBB0000FD
:101490000000024000221021014803F047BB000079
:1014A0000000024001221146014803F03FBB00004A
:1014B0000004024000220121014803F037BB000074
:1014C000000402407CB50446002000900190FFF724
:1014D000E1FF922000F046F906226946122000F052
:1014E00023F9FFF7CFFF9DF801009DF800100002DF
:1014F00000B26A4D084300EE100AD5ED030AB8EEBB
:10150000C00A60EE200A94ED080A60EE800AC4ED7D
:10151000000A9DF803009DF80210000200B2084383
:1015200000EE900AB8EEE01AD5ED030A21EE201A7B
:1015300021EE001A84ED011A9DF805009DF80410B3
:10154000000200B20843288101EE100AB8EEC11A69
:1015500061EE200A20EE800A84ED020AFFF7AAFF5E
:1015600008226946002000F0DFF8FFF79BFF9DF896
:1015700000000F2869D1E878B0B39DF803009DF80A
:101580000210000200B2084300EE100AD4ED090A6E
:10159000B8EEC01A95ED040A51EE000AC4ED030A34
:1015A0009DF805009DF80410000200B2084300EE0B
:1015B000900A94ED0A1AF8EEE00A10EE801A84ED13
:1015C000041A9DF807009DF80610000200B20843B7
:1015D000288100EE900A94ED0B1AF8EEE00A10EE66
:1015E000801A84ED051A30E0FFE79DF803009DF8AE
:1015F0000210000200B2084300EE100AF8EEC00A22
:1016000095ED040A60EE800AC4ED030A9DF805001A
:101610009DF80410000200B2084300EE900AF8EEB4
:10162000E00A60EE800AC4ED040A9DF807009DF808
:101630000610000200B20843288100EE900AF8EE7E
:10164000E00A20EE800A84ED050AFFF723FFA220BE
:1016500000F088F802226946222000F065F8FFF7C2
:1016600011FF9DF800009DF80110C00040EA5110E4
:101670002881B0F5806F02DBA0F500602881B5F904
:101680000800B4EE001A00EE100AF8EEC00AB3EE3D
:10169000070A00EE810A84ED070A7CBDF00C0020E9
:1016A00070B50D4617490860174C0020A0700EF069
:1016B0008DF9A1780843A0700EF01CFAA1780843B8
:1016C000A0701DB1114800F0C9FA18E00F489FED55
:1016D000100A80ED090A9FED0F0A80ED0A0A9FEDBE
:1016E0000E0A80ED0B0A9FED0D0A80ED0C0A9FEDAE
:1016F0000C0A80ED080A9FED0B0A80ED060AA0781F
:1017000070BD0000300D0020F00C002068AA002001
:101710009A0AB03B53F92EBBB0ECA9BAB3D61B4121
:10172000C8EB803F0000204270B50D46144640F0E3
:10173000800000F017F806E0552000F013F805F8D7
:10174000010B641EE4B2002CF6D170BD10B50C463E
:1017500040F0800000F006F8552000F003F82070FB
:1017600010BD000001B582B04FF47A7000900548BA
:10177000012301AA02A9006804F09AFB9DF8040065
:101780000EBD0000300D002010B50C46FFF7EAFF3B
:101790002046BDE81040FFF7E5BF70B5044604F5EC
:1017A000807021440F220546FFF729FC0F212846AF
:1017B0000BF08EFC012803D0012084F8BB0170BD22
:1017C00004F29D1454F8960CA06134F8920CA08396
:1017D0000020A07770BD91F83120032A0CD291F837
:1017E00032204AB1B1F93620824207DAD1F83A0004
:1017F000401CC1F83A000DE000207047524282427E
:1018000005DDD1F83A00401CC1F83A0002E00020A2
:10181000C1F83A00D1F83A00B1F93810884201DD38
:101820000120704700207047B6EE002A92ED020AB0
:10183000B0EE421AD2ED030A00EE401AD0ED001AC3
:10184000D0ED013A00EEE01A21EE213A92ED011AB4
:10185000D2ED001A61EE002A41EEE02A61EE200A84
:1018600041EE800A02EEA33A90ED020AF0EE002A61
:1018700000EE803A23EE220A81ED000A92ED010A81
:10188000D2ED021A92ED001AD2ED030A20EE213AAF
:10189000D0ED003A90ED014A01EE203A23EE233AD2
:1018A000F0EE423A40EE403A40EEE03A61EEA00AF5
:1018B00041EE400A03EE843A90ED020A00EE803ACF
:1018C00023EE220A81ED010AD2ED010AD2ED031ABC
:1018D00092ED020A92ED001A20EEA13A60EE211A72
:1018E000D0ED003A00EEE02A01EE403A41EE201A37
:1018F00090ED011A00EE402A23EE233A90ED020A01
:1019000001EE813A02EE003A23EE220A81ED020A4C
:101910007047FEE7014802F0B3BB0000A4100020AE
:10192000014802F0ADBB0000CC10002018B50B46FA
:101930001446A4F82B00A4F82730B4F93410DFEDD6
:101940003F0A93FBF1F100EE101AA168B2EE041AFF
:10195000B8EEC00A20EE200AF0EE000A60EE200A7F
:1019600000EE101AC0EE011A9FED351A60EEA10AC2
:1019700080EE810A10EE101A2161B4F825209A1A1F
:10198000A4F82920A4F82530E26800EE101A00EE31
:10199000902A30EE600A10EE102A6261E16094F83D
:1019A0002410002905D1012184F82410A4F82D0069
:1019B0006060B4F82D10401A00B2B4F92F100DF089
:1019C00081F9009020680099014421606068009AC4
:1019D00002446260B4F82B00A4F82D00A08EB4F885
:1019E0002F3010FB03F000EE100AF8EEC00A00EEF4
:1019F000102AB8EEC01A81EE200ADFED120A20EE9E
:101A0000200A10EE102AE26100EE100AB8EEC01AA9
:101A100000EE101AF8EEC01A81EE810A20EE200ABC
:101A200010EE100A20620098214600B2FFF7D3FEA4
:101A300084F833000020009018BD0000D00F49400A
:101A4000000070420000B44304284FF000007047CB
:101A50000020704710B500220449054809F070FDC8
:101A60000449034809F05EFD002010BDF821002064
:101A70001C150020F819002070B505460C462946B3
:101A8000074809F04FFD064809F020FD05480068A9
:101A9000006A18B1294622680EF098FA002070BD3D
:101AA0001C150020780A00200020704710B50A4657
:101AB0000849D1F8BC12D1F81412002901D0012034
:101AC00010BD0146034809F03BFDBDE81040014848
:101AD00009F0CCBD1C15002070B5044604F58070DB
:101AE000214415220546FFF78AFA152128460BF0F6
:101AF000EFFA012803D0012084F8140270BD04F528
:101B0000FC7454F8F10C206154F8ED0C606154F849
:101B1000E90CA0610020207770BD70B5044604F583
:101B20008070214413220546FFF769FA13212846E5
:101B30000BF0CEFA012803D0012084F82C0270BDEE
:101B400004F207142068C4F81B016068C4F81F0180
:101B50002089A4F82301002084F8250170BD00002D
:101B600070B538212648FFF7E3FA264B264A3C2178
:101B700026A008F0EFFD2B4DA8632B4B2B4A4FF40A
:101B8000FA712BA008F0E6FDE86301222F4B00213B
:101B9000104600F0E5FF2E4B40F2044200210120E8
:101BA00000F0DEFF2B4B40F266620021012000F0C6
:101BB000D7FF0EF041FC124CA0600EF043FCE06039
:101BC00008F0F8F820610221C17201F0B9FC6061EF
:101BD000002020766076012184F8301084F83400EB
:101BE00084F8350084F836009FED1B0A84ED000A66
:101BF0004FF4965060860EF033FC686370BD0000B1
:101C0000C89D002029FD0008E1FC0008447231361F
:101C10005F46726F6D5F436861737369735F536191
:101C2000666500004C0C0020612A0008512A00085B
:101C30004465616C5F50697463685F4C696D697479
:101C40005F4D6F72655F536166650000552900083E
:101C5000652A0008252A0008000000002DE9F04F41
:101C600004462DED048B89B000200790089000F009
:101C7000E3FDEA4E86ED050A04AF0DF104084FF0CE
:101C80007C5BDFF89C93DFF89CA300F0D5FDD6EDDC
:101C9000050AE54930EE600A10EE100A884214DDAC
:101CA0009FEDE20A84ED090A9FEDE10A84ED0A0A3C
:101CB0009FEDE00A84ED0B0A9FEDDF0A84ED0C0A2C
:101CC0009FEDDE0A84ED060A85E19FEDDD0A00F056
:101CD00057FD9FEDDC0A84ED0C0A84ED090A84EDC2
:101CE0000A0A84ED0B0A0025F6E0FFF7D3FB9220E9
:101CF000FFF738FD062207A91220FFF715FDFFF7B1
:101D0000C1FB9DF81D009DF81C10000200B20843A5
:101D100000EE100AD6ED030AB8EEC00A20EE200A43
:101D200084ED000A9DF81F009DF81E10000200B20D
:101D3000084300EE900A96ED031AF8EEE00A60EE12
:101D4000810AC4ED010A9DF821009DF820100002CF
:101D500000B2084301EE900AF8EEE11A21EE811A72
:101D600084ED021A20EE000A00EEA00A01EE010A3C
:101D70000CF046FBB0EE408A94ED0C0A30EE080AF7
:101D800084ED0C0AFFF796FB082207A90020FFF755
:101D9000CBFCFFF787FB9DF81C000F2840D19DF876
:101DA0001F009DF81E10000200B2084300EE100A4A
:101DB000F8EEC00A96ED040A60EE800AC4ED030A4C
:101DC00094ED091A71EE200AC4ED090A9DF821006C
:101DD0009DF82010000200B2084300EE900AF8EED1
:101DE000E00A60EE800AC4ED040A94ED0A1A71EE6E
:101DF000200AC4ED0A0A9DF823009DF82210000273
:101E000000B2084300EE900AF8EEE00A20EE800AE5
:101E100084ED050AD4ED0B0A30EE800A84ED0B0A3E
:101E2000002D7DD0B4EEE88AF1EE10FA01DDF0EE7F
:101E3000488AB4EEC98AF1EE10FA01D2B0EE489A9F
:101E4000002004EB800191ED030A07EB8001D1ED46
:101E5000000AB4EEE00AF1EE10FA01DD81ED000AAD
:101E600008EB8001D1ED000AB4EEE00AF1EE10FAC1
:101E700001D281ED000A401CC0B20328E1D338EE44
:101E8000C90A86ED060A002007EB8001D1ED000AA1
:101E900008EB800191ED001A09EB800170EEC10A98
:101EA000C1ED000A401CC0B20328EDD310EE100AA9
:101EB000584515DCD9F80000504511DCD9F804006C
:101EC00050450DDCD9F80800504509DC9FED5E0A4D
:101ED00000F056FC6D1CADB2F0888542FFF405AFF2
:101EE000F288D4ED0C0A00EE102AB8EE400A80EE1B
:101EF000801A84ED0C1A002000EE102A04EB8001F9
:101F0000B8EE400AD1ED090A80EE801A81ED091A77
:101F1000401CC0B20328EFD3FFF7BCFAA22000E0B8
:101F200066E0FFF71FFC022207A92220FFF7FCFB57
:101F3000FFF7A8FA9DF81C009DF81D10C00040EAAC
:101F40005110B0F5806F02DBA0F5006000B200EE2A
:101F5000100AB4EE001AF8EEC00AB3EE070A00EE5B
:101F6000810A84ED060AB088401CB080B0695845EB
:101F70003FF78BAE94ED0C0ADFED340A30EE600AC9
:101F8000B0EEC00A10EE100A5845F1DCD9F8000096
:101F90005045EDDCD9F804005045E9DCD9F80800DB
:101FA0005045E5DC94ED090A2949B0EEC00A10EE6F
:101FB000100A8842DCDC94ED0A0AB0EEC00A10EE8A
:101FC000100A8842D4DC94ED0B0AB0EEC00A10EE81
:101FD000100A8842CCDC94ED0C0ADFED1E0A80EE7C
:101FE000801A84ED081A09B0BDEC048BBDE8F08FAF
:101FF000F0EE488AB0EE489A002004EB800191EDA3
:10200000030A07EB800181ED000A08EB800181EDF6
:10201000000A401CC0B20328EFD330E7F00C0020C8
:102020005CAA00209A99193E000020419A0AB03B10
:1020300053F92EBBB0ECA9BAB3D61B410000204225
:102040000AD7A33B000000006F12033ACDCC1C411D
:102050000AD7233CC3F51C41416C00EE101AB5EEC3
:10206000C00AF1EE10FA02DD00EE101A03E000EEF5
:10207000101AB1EE400A836E00EE903AB4EEE00A18
:10208000F1EE10FA17D900EE101AB5EEC00AF1EE13
:1020900010FA02DD00EE101A03E000EE101AB1EEA5
:1020A000400A426E00EE902AB4EEE00AF1EE10FA19
:1020B00002DD00210162704700EE101A00EE902A46
:1020C000B5EEC00AF1EE10FA02DD00EE101A03E0E0
:1020D00000EE101AB1EE400A016A30EEC01A00EEAE
:1020E000102A00EE903A30EE600AC1EE000A00EECF
:1020F000101A20EE800A10EE101A0162704770B5B7
:10210000044604F5807021440F220546FEF777FF50
:102110000F2128460AF0DCFF012803D0012084F8B3
:10212000C70170BD04F2A91454F8A20CA06134F8E0
:102130009E0CA0830020A07770BD70B50446601887
:1021400004F580750168C4F800114168C4F80411F1
:102150008068C4F808010C2128460AF0B9FF01285C
:1021600003D0012084F8750170BD04F5B974B5F889
:1021700007002080687AA0700020E07070BD000029
:1021800010B50022064B1146104600F0E9FC002273
:10219000BDE81040034B1146012000F0E1BC0000F7
:1021A000A5220008B5220008F0B40B4611461A68B3
:1021B000394D1346A2F20122384E0B2A69D2DFE8CC
:1021C00002F0060606061A1A1A1A52525200B042B5
:1021D00001D0012000E0002000EB800303EBC000F1
:1021E00005EB0020F0BC02EB820303EBC20200EB24
:1021F000421000F069B82A4C1F19B04201D00124E6
:1022000000E000246FF4017C0CEB84043C5D012CA5
:1022100003D0B04217D0012016E0B04201D0012017
:1022200000E0002000EB800202EBC00005EB002084
:10223000A3F20523F0BC03EB830202EBC30200EB25
:10224000421000F041B8002000EB800303EBC00017
:1022500005EB0020F0BC02EB820303EBC20200EBB3
:10226000421000F031B8B04201D0012000E000205F
:1022700000EB800202EBC00005EB0020A3F2052377
:10228000F0BC03EB830202EBC30200EB421000F050
:102290001BB8F0BC704700004C830020A410002045
:1022A0003C0C00200A4601460148FFF77DBF0000B4
:1022B000A41000200A4601460148FFF775BF000040
:1022C000CC1000200161704710B5044648780A78A8
:1022D00040EA0220A082C8788A7840EA0220E082A0
:1022E000607B022813D048790A7940EA02202083D3
:1022F00088792077206900B18047B4F91610B4F9C5
:10230000140004F11E02BDE81040FFF70FBB48792E
:102310000A7940EA02206083EAE700002DE9F047ED
:102320000446DDF820A00D4691461F465A4E3078EF
:10233000002804D1FFF724FF3078401C3070012CB6
:1023400004D0022C02D00020BDE8F087A5F10108DE
:10235000B8F1080F01D30020F6E74F490831012FEB
:1023600019D1042D17D8012C01D0012000E0002044
:1023700001EB8000284410F8010C032801D0002054
:10238000E2E7012C01D0012000E0002001EB8000F9
:10239000284400F8017C012F19D0052D17D3012CFA
:1023A00001D0012000E0002001EB8000284410F85B
:1023B000050C032801D00020C6E7012C01D0012024
:1023C00000E0002001EB8000284400F8057C012C8F
:1023D00001D0012000E0002000EB800101EBC000F3
:1023E0002E4901EB002008EB880101EBC80100EB4E
:1023F00041164FF4D0713046FEF79AFE284A681F06
:10240000F7B1012F02D0022F31D119E0042D0BD8E2
:1024100006F5CF71012C05D0032002EB001040F827
:10242000281024E00020F8E706F5CF73012C05D032
:10243000052102EB011141F8203018E00221F8E7F4
:10244000042D0BD806F5CE71012C05D0042002EB2B
:10245000001040F828100AE00120F8E706F5CE73D6
:10246000012C14D0032102EB011141F82030012C82
:102470000FD00C48B060357186F80C9077733946F0
:10248000524606F11E0000F0E1FD30465CE70021F7
:10249000E9E70548EEE70000340C00204C830020FB
:1024A0004C9D0020CC100020A410002001460120EB
:1024B0000B4B8A689A4200D104200A79497B042A8E
:1024C00007D9012902D0401EC0B206E0801CC0B26C
:1024D00003E0012901D1801EC0B200F003B8000062
:1024E000CC100020F0B40146052961D840F2FF135A
:1024F0005C1C304A40F2FF25062921D2DFE801F0BA
:10250000030C1607111B2C482C49136019E02C48AA
:102510002A493031136014E02748284910311460EB
:102520000FE027482549403114600AE0224823493A
:102530002031156005E0224820495031156000E047
:10254000002100239360D360082414611D4A0C68A5
:1025500034B12488240A14700C682478547001E083
:10256000537013704C6834B12488240A94704C68FA
:102570002478D47001E0D37093708C682CB12588D6
:102580002D0A15712478547101E053711371C968D3
:1025900029B10B881B0A93710978D17101E0D371BD
:1025A0009371F0BC074B074A0C3B024901F0E2BBB8
:1025B000F0BC704734830020A41000204C9D002004
:1025C000CC100020440C0020017B012901D1B1EE88
:1025D000400A90F89011012902D080ED650A7047F9
:1025E00080ED660A704700002DE9FC41002400944C
:1025F000019400940194437B012B17D0B0F99C11F6
:1026000007791B4A40F2FF166D46042F13D8012BA1
:102610000FD0731C136003790E0A5B1E05F813605C
:1026200003795B1E05EB4303597011E0B0F99E116D
:10263000E6E71660EFE7012B16D0166003790E0A65
:102640005B1F05F8136003795B1F05EB43035970AB
:102650009460D460082111618068064B6A46044981
:1026600001F088FBBDE8FC8140F2FF231360E5E741
:1026700034830020380C0020014801F0FDBF000029
:10268000B4130020014801F0F7BF00004C110020F6
:10269000014801F0F1BF000014140020014801F0CE
:1026A000EBBF0000AC110020014801F0E5BF0000C5
:1026B000741400200168CAB2103A1823B2FBF3F276
:1026C000064B9B5CC3656FF30901032A02D9091D00
:1026D000816500E08165806D70470000E43201088B
:1026E00010B5014600208A6A8B694FF0C074002B38
:1026F0000ED0B3F5005F1AD062B3012A2AD0022AA5
:1027000028D0032A03D1C96AC90100D5012010BD10
:102710001AB1012A06D0022AF9D1C96AC901F6D52F
:10272000012010BDC96AA142FBD1012010BD52B1E8
:10273000012A0AD0022A06D0032AF7D1C96AA14287
:10274000F4D1012010BD012010BDC96AC901FBD51B
:10275000012010BD012010BD08B507484068009059
:10276000064800990269914202D2C168491CC160C1
:102770000099016108BD0000001000E0380D002044
:102780000A4841680A4AD2ED000A4268521AF8EE35
:10279000601A01EE102AB8EE411A60EE211AB4EE6A
:1027A000E11AF1EE10FAF0D370470000001000E0DB
:1027B000380D002000B52DED028B81B00D49496820
:1027C00000910168009A511A00EE101A0A49F8EEB9
:1027D000400A91ED000AB8EE400A80EE808A009926
:1027E0000160FFF7B9FF01B0B0EE480ABDEC028B03
:1027F00000BD0000001000E0380D002010B500F012
:1028000061F80B499FED0B1A08688A8800EB4003BA
:10281000C3EBC01002EBC00000EE100AC88800EE47
:10282000900AB8EE400AF8EE600A00EE810A10BD88
:10283000680D00206F12833A10B500F043F80C4881
:102840009FED0C1A818890ED000A00EE901AC08866
:10285000B8EE400AF8EE600A00EE810A00EE900A37
:102860009FED051AF8EE600A00EE810A10BD000027
:10287000680D00206F12833ABD3786350D490A680E
:1028800042F080720A600C4900224A600B6843F0F3
:1028900001030B6009494843094908604FF47A7302
:1028A000B0FBF3F34B60054BB0FBF3F08860CA60FC
:1028B00070470000FCED00E0001000E040420F0017
:1028C000380D00202DE9F84F204840680090FFF7B0
:1028D00043FFDFF87C904FF0000A0098D9F80C20F5
:1028E0004FF0FF335146E2FB030104460D46C9E9B0
:1028F0000E01D9F800B000235A4620462946FEF7BB
:10290000E3FA06460F463046A0FB0B2107FB0B11EE
:1029100006FB0A13A71A65EB030809F130042660C9
:10292000D9F804600023324641463846FEF7CCFA17
:1029300080B2A0807043381A68EB0A010023D9F8EE
:102940000820FEF7C1FAE080BDE8F88F001000E033
:10295000380D002010B50C462148806B07F0ECFEC6
:102960006178207801F0070140EA01211D48A1F5B6
:10297000257102691180A17862788906490D41EAC2
:10298000D2010269A1F525715180A17802698909F6
:10299000D1722279E17802F0070241EA022102694C
:1029A000A1F525719181617922798906490D41EA64
:1029B000D2010269A1F52571D18161790269C1F362
:1029C0008011D174A179E27941EA022102699182F0
:1029D00002690021917400694FF42571018110BDD5
:1029E0004C0C0020C89D00200C480169898ACA044B
:1029F0000B4907D54A793AB100224A71418E6431B8
:102A0000418601E001224A71B0F9321041F2EC3204
:102A1000914202DD41F2941141867047C89D002029
:102A20004C0C002010B50C460748C06B07F084FE24
:102A300021780648012903D0002180F8361010BD06
:102A4000012180F8361010BD4C0C0020C89D0020DC
:102A50000249002081F8360070470000C89D002020
:102A60007047000008B508788DF8000048788DF8A8
:102A7000010088788DF80200C8788DF803000349BA
:102A800000984969C1F8B00108BD0000C89D002048
:102A9000704700002DE9F0418AB001210891002023
:102AA0000690079100900190029003900990059084
:102AB00004906946284801F0D7F9274801F04FFDF6
:102AC0000221254801F044F90121234801F040F991
:102AD0004FF400442146204801F03AF9E511294617
:102AE0001D4801F035F9661131461B4801F030F9F7
:102AF000A7113946184801F02BF94FF400684146F8
:102B0000154801F025F90E200990059069461348F3
:102B100001F0AAF9114801F022FD02210F4801F04D
:102B200017F901210D4801F013F921460B4801F076
:102B30000FF92946094801F00BF93146074801F021
:102B400007F93946054801F003F94146034801F009
:102B5000FFF80AB0BDE8F081A4100020CC100020DE
:102B600070B50024012800D10224012901D1641C80
:102B7000E4B20A4D285D14280DD0094904EB8406FF
:102B800001EB461141F8302001EBC0014B60401CC5
:102B90002855012070BD002070BD0000940C00205D
:102BA000009E002008B500F00BF80EF059FD0090D3
:102BB00000F068F8012168460EF0C2FAF8E700005C
:102BC00010B52DED028BB7EE000A244880ED010A06
:102BD00080ED020A80ED030A9FED218A80ED048AD0
:102BE00080ED058A80ED068A01210170B0EE482A49
:102BF000F7EE001A9FED1B1ADFED1B0AB2EE040A76
:102C000004F03AFA0621B0EE481AF3EE040A9FEDFA
:102C1000170A174806F0C5FEF0EE480A9FED150AA0
:102C20000421134806F0DCFEF0EE480A9FED120A7C
:102C300002210F4806F0D4FE0021104803F08CFD5D
:102C40000B489FED0F0A983080ED170AA820BDECC5
:102C5000028BBDE81040FFF711BE0000486F002056
:102C6000000000008096184B6F12833A00007A44EF
:102C7000146E00200000FA4400009643E412002085
:102C800096430B3CF0B52DED048B87B08648D0E918
:102C90000912C06ACDE9041206908448FFF78AFD44
:102CA000824D85ED010AD5ED020A30EE800A85EDF0
:102CB000020A7F4C012020607E48FEF703FC7D481D
:102CC00090ED000A84ED080A90ED010A84ED090AEE
:102CD00090ED020A84ED0A0A90ED030A84ED050ADC
:102CE00090ED040A84ED060A90ED050A84ED070ACA
:102CF00004F12002A2F10C01164601F1880004F053
:102D00009DF8D4ED0A0A94ED080A0AF0ADFF9FED94
:102D10006A8A20EE080ADFED690A80EE201A84ED47
:102D2000211AD4ED0A0A94ED090A0AF09DFF20EE5B
:102D3000080ADFED630A80EE201A84ED221AD4ED32
:102D40000A2A94ED092AD4ED081A94ED071AD4ED55
:102D5000060A94ED050A95ED013A04F071FA594816
:102D6000A4F1180190E88C00C068C1E90837CA6175
:102D70008862221D78314C48FEF756FD4A48221DD4
:102D800004F16C010C30FEF74FFD4748221D04F1A1
:102D900078011830FEF748FD221D01A904A800F0B3
:102DA000E0F8002195ED011A01A804EB810200EB87
:102DB000810392ED080AD3ED000A30EE600A20EE9E
:102DC000012A94ED170A70EE010AC2EE201A92ED64
:102DD0000E2A22EE000A80EE202A31EE820A82EDCF
:102DE0000E0A491CC9B20329DFD33149221D4431DF
:102DF000A1F10C00FEF718FD334890ED6A0A84ED4E
:102E0000250A90ED690AB1EE400A84ED240A90ED9E
:102E1000680A84ED230A90ED6B0A84ED260A2448A3
:102E200094ED010AB83080ED000A94ED020A80EDBD
:102E3000010A94ED030A80ED020A94ED040A80ED84
:102E4000030AA0F18C01221D3046FEF7EDFC94ED43
:102E50000B8AD4ED0C8A94ED250A0DF077FF20EE55
:102E6000289A94ED250A0CF0D7FE08EE009A84ED1E
:102E70000B9A94ED250A0CF0CFFE60EE288A94EDB3
:102E8000250A0DF063FF48EE408AC4ED0C8A287CC9
:102E9000C00701D104F062FE2869401C286107B018
:102EA000BDEC048BF0BD0000043301088C01002050
:102EB000AC6E002068AA002000003443DB0F49C03C
:102EC000DB0F4940F0AB0020A0AA0020034A2423D6
:102ED000A2F12401024806F071BF0000BCA000204E
:102EE0007013002010B5064C01202070054806F034
:102EF0009BFFA068002802D0BDE81040004710BD2D
:102F00009C0C002070130020034AFF23A2F580715F
:102F100002480DF0E5BE0000E0A100207013002083
:102F200070B5044604F5807021440D220546FEF775
:102F300066F80D2128460AF0CBF8012803D00120BD
:102F400084F8680170BDD5F80700C4F8630100205B
:102F500084F8680170BD102001F0F4BC202001F05D
:102F6000F1BCB6EE002A92ED020AB0EE421AD2EDA2
:102F7000030A00EE401AD0ED001AD0ED013A00EE3F
:102F8000E01A21EE213A92ED011AD2ED001A61EE1B
:102F9000002A41EEA02A61EE200A41EEC00A02EEAC
:102FA000A33A90ED020AF0EE002A00EE803A23EEFA
:102FB000220A81ED000A92ED010AD2ED021A92ED89
:102FC000001AD2ED030A20EE213AD0ED003A90ED3E
:102FD000014A01EE603A23EE233AF0EE423A40EE27
:102FE000403A40EEE03A61EEA00A41EE000A03EEFC
:102FF000843A90ED020A00EE803A23EE220A81ED37
:10300000010AD2ED010AD2ED031A92ED020A92ED05
:10301000001A20EEA13A60EE211AD0ED003A00EE3F
:10302000E02A01EE003A41EE601A90ED011A00EE3E
:10303000402A23EE233A90ED020A01EE813A02EE95
:10304000003A23EE220A81ED020A704770B5044669
:103050000D461646204600F02AF800EE106AB8EE3B
:10306000400A10EE100AA06084F83150002084F865
:10307000330084F832004FF400500A22411155B158
:10308000012D0FD0022D05D1A4F82F002420A086F9
:10309000E286218770BDA4F82F001320A086E28667
:1030A000218770BDA4F82F000120A08670BD4221A9
:1030B000FEF71CB872B6FEE70DF058F81D4C1E4D19
:1030C0004FF47A766089401C80B26081B04201D9A9
:1030D000002060810DF092FFA868C08A2080E86817
:1030E000C08A404260806868C08AA0802868C08A20
:1030F0004042E080FFF778FC07F0DAFB608883B29B
:10310000208882B2E08881B2A08880B207F09EFB5E
:1031100000F0FEFB0CF096FF0CF0E6FF07F024FC3D
:10312000A868FFF7C3F90DF089FF01200DF0E0FF5B
:10313000C8E70000DC0100208C6F002070B5064657
:10314000184D002E0AD195ED040AB5EEC00AF1EE35
:1031500010FA03D1FFF752FB85ED040A012E14D1BA
:1031600095ED040AB5EEC00AF1EE10FA0DD0FFF7A6
:1031700045FBD5ED040A30EE600ABDEEC00A10EE44
:10318000104A9FED090A85ED040A601E40F2E731FE
:10319000884205D200EE104AB8EEC00A85ED030A57
:1031A00070BD0000600A00200000000070B50446F9
:1031B000601804F580750168C4F800114168C4F80E
:1031C00004110089A4F808010A21284609F080FFAB
:1031D000012803D0012084F8410170BD04F5A074DA
:1031E00055F8070F20606868606028892081A87AF8
:1031F000A0720020607070BD70B5044604F5807048
:10320000214414220546FDF7FAFE1421284609F050
:103210005FFF012803D0012084F83F0170BD04F551
:103220009A7455F8070F20606868606028892081CB
:10323000A87AA0720020E07270BD00002DED028B14
:1032400002E001200DF054FF00F074F90028F8D0DE
:103250005E4C02E001200DF04BFF60680068002822
:10326000F8D000F079FBDFF868815A4F5A4D4FF4DF
:103270007A7A00264FF4FA799FED588A688A401CC2
:1032800080B26882504500D96E8220690168642945
:103290000DD23868C0F83480386886633868C663F1
:1032A000206905F0E7F901200DF022FFE6E7298A01
:1032B000494529D2386846633868C0F8388038688C
:1032C000C663F0EE480A2069B0EE602AF0EE601A9C
:1032D000B0EE601A95ED0B0A05F04CF9206990EDFF
:1032E000050AB5EEC00AF1EE10FA01DCB1EE400AB3
:1032F00010EE100A3A49884202DA288A401C2882D5
:1033000001200DF0F5FEB9E7494506D140F2F5116F
:10331000298290ED040A07F021FB0DF06FFE00F00A
:10332000D9FA2D492831081F03F038FD206890EDA7
:10333000000A2069D0ED040A606870EE601A90ED12
:10334000241AD5ED0A0A95ED090A00F05FF9206804
:1033500090F8340048B100F09DFC06F06BFE06F0DA
:103360004FF8A87CC0071AD01CE06420E87000F079
:1033700067FC206990ED040A00F07CFCA068D0F89E
:103380001E00C11700F0D4FC606890ED240A00F024
:1033900079FC606890ED250A00F0D2FCDDE7A068BA
:1033A000FFF722F9F0EE480A2069B0EE602AF0EE4D
:1033B000601AB0EE601A95ED110A05F0DBF80DF019
:1033C0003DFE01200DF094FE58E70000307900200A
:1033D00040420F0054120020F801002000000000BD
:1033E0008FC2F53C70B5044604F58070214431224B
:1033F0000546FDF704FE3121284609F069FE012843
:1034000003D0012084F8F00170BD282204F20711D6
:1034100004F5E470FDF7F3FD002084F8F00170BDC1
:103420009FED071AC0EE010A9FED061A9FED060AEE
:1034300000EE810ABCEEC00A10EE100A80B270479E
:10344000000034430000FA440000FA4310B503467C
:103450001046002B01D0084C0AE04FF6FF7010BD5B
:1034600013F8012B4240D2B234F8122082EA102025
:10347000491E4A1CF4D110BD3434010810B5054C66
:1034800003E010F8013B5340E25C491E4B1CF8D1AD
:10349000104610BD3433010810B502E001200DF0D4
:1034A00027FE00F047F80028F8D00449087A421CAB
:1034B0000A7208B9FEF754FB014810BD4C0C0020FD
:1034C000C89D002010B50446FFF798F9D4ED390ADD
:1034D00030EE600A0848D0ED070AC4ED150AD0EDB9
:1034E000080AC4ED160AD0ED090AC4ED170AD0ED9A
:1034F0000A0AC4ED180A10BDB00C002010B50B4824
:103500000168001D0468001D0068084400280BD0F5
:103510000822074904F070FB054920460422BDE853
:103520001040103104F068BB10BD0000107AFF1F7E
:10353000560000200148007870470000600A002013
:1035400000487047E0A2002070B52DED028B2A4C98
:10355000207E002805D194ED071A31EE001A84ED83
:10356000071A012807D194ED081AF0EE001A00EEB0
:10357000611A84ED081A607E28B994ED090A30EECC
:10358000200A84ED090A012829D11C4DB3EE040A52
:1035900095ED0C8A00EE808A85ED0C8AB5EEC08A26
:1035A000F1EE10FA02DDB0EE480A01E0B1EE480A91
:1035B00010EE100AB0F17E5F11DBD4E90A010FF0C2
:1035C000CFFB00EE100A30EE080A10EE100A0FF0E2
:1035D00035FDC4E90A019FED0A0A85ED0C0A94ED58
:1035E000090A9FED081ADFED080A0CF05DFF84ED73
:1035F000090ABDEC028B70BDC89D00204C0C002058
:103600000000000000003443000034C3F0B52DED8D
:10361000068B81B0B0EE408AF0EE609AF0EE418AFF
:10362000B0EE619A00F04EFB0026A14C20690188A3
:10363000302901D10021018020799E4F9FED9E2AE3
:10364000DFED9E2A9E4D012832D0022860D09FEDEA
:103650009DAA03287ED02069B0F90C10B0F90E00A5
:10366000494200EE101A4042B8EEC00A60EE020A6B
:1036700000EE100AB8EEC00A20EE220AFFF764FF3F
:103680002069B0F90010B0F90200494200EE101AAA
:10369000B8EEC00A60EE0A0A00EE100AB8EEC00AE0
:1036A00020EE0A0AFFF750FF207E00287ED0B7E008
:1036B0000120B8712069B0F90C10B0F90E00494230
:1036C00000EE101A4042B8EEC00A60EE020A00EEA8
:1036D000100AB8EEC00A20EE220AFFF735FF206973
:1036E000D7ED070A97ED061AB0F90010B0F90200FD
:1036F000494200EE101AB8EEC00A60EE200A00EE51
:10370000100AB8EEC00A20EE010AFFF71DFFCBE752
:103710000220B8712069B0F90C10494200EE101A6D
:10372000F8EEC00A9FED680AB0F90E00404201EEC3
:10373000100A60EE800AB8EEC11A21EE000AFFF707
:1037400003FF2069B0F90010494200EE101AF8EEAC
:10375000C00A00E00EE09FED5D0AB0F9020001EE44
:10376000100A60EE800AB8EEC11A21EE000AFFF7D7
:10377000EBFE99E72069B0F90C10B0F90E00494250
:1037800000EE101A4042B8EEC00A60EE020A00EEE7
:10379000100AB8EEC00A20EE220AFFF7D5FE206913
:1037A000B0F90010494200EE101A00E01EE0B8EE39
:1037B000C00AB0F9020060EE0A0A00EE100AB8EE84
:1037C000C00A20EE0A0AFFF7BFFE286890F84F00F3
:1037D00048B1A06890ED000A84ED070AE06890ED1A
:1037E000000A84ED090A0320B8715DE794ED072A09
:1037F000B4EEE92AF1EE10FA02D2F0EE690A01E025
:10380000F0EE420AC4ED070AF4EEC80AF1EE10FA2F
:1038100002DDB0EE480A01E0B0EE600A84ED070A6E
:10382000012819D1D4ED000A9FED291A94ED080A58
:1038300030EEC12AB4EEC20AF1EE10FA01D2B0EEB7
:10384000420A84ED080AB4EEE00AF1EE10FA01DD56
:10385000B0EE600A84ED080A012808D0002100912A
:103860002179012905D0022903D0012302E0012199
:10387000F5E7002301280ED0B0EE680A94F8352051
:1038800004290BD0286890F8CD10286890F84F00D4
:1038900030B1012005E0B0EE490AEFE73146F4E728
:1038A000002006F087FF01B0BDEC068BF0BD0000E4
:1038B000C89D00204C0C0020A69BC43B0AD7A33B0C
:1038C000780A002052499D3917B75139ACC52737BE
:1038D000000060420C4991F83000002813D10B4BD6
:1038E000187801280FD1D1E9040101F50072D1F84F
:1038F0001512C16052F8191F016191888182002060
:10390000187006F0FDBF7047C89D0020A80C00206D
:1039100010B50F4A4FF001041069818A890504D45B
:10392000C17A012901D0032901D182F83440C37A38
:103930000849022B06D1CB79012B03D10023CB718F
:1039400082F83430C07A022800D0CC7110BD00005B
:10395000C89D00204C0C002030B52DED048B81B0AB
:103960009FEDA10AA14880ED370AFFF795FDA04C15
:1039700020600CF075FD60604FF40F75022300228B
:10398000082101200095FEF7C9FCE0600123002218
:10399000194602200095FEF7C1FCA060954804F08E
:1039A00085FE206106219FED948A04F5A6700546E8
:1039B000B0EE481AF0EE480AB0EE480A05F0F1FF02
:1039C000F0EE480AB0EE480A0221284606F008F850
:1039D000F0EE480AB1EE000A0421284606F000F88D
:1039E00004F5F2704FF48371B0EE481AF0EE480A15
:1039F000B0EE480A054605F0D4FFF0EE480AB0EEF6
:103A0000480A0221284605F0EBFFF0EE480AB0EE26
:103A1000480A0421284605F0E3FFF0EE480AB3EE19
:103A20000E0A4FF48071284605F0DAFF0621B2EE47
:103A30000E1AF0EE480ADFED718A04F51F70054694
:103A4000B0EE680A05F0ADFFF0EE480A9FED6C9A03
:103A500002212846B0EE490A05F0C2FFF0EE480AFE
:103A60009FED680A0421284605F0BAFF04F5457069
:103A70000621B0EE481AF0EE480AB0EE000A0546FC
:103A800005F08FFFF0EE480AB0EE680A04212846E0
:103A900005F0A6FFF0EE480AB0EE680A02212846BB
:103AA00005F09EFF04F1B4001621B0EE481AF7EEBF
:103AB000080AB0EE480A054605F073FFF0EE480A22
:103AC000DFED519A02212846B0EE690A05F088FF21
:103AD000F0EE480AB0EE690A0421284605F080FF9E
:103AE000FBEE040AB3EE040A1021284605F078FF25
:103AF00004F56B700621B0EE481AF0EE480AB2EEFB
:103B0000040A054605F04DFFF0EE480AB0EE490AFA
:103B10000221284605F064FFF0EE480A9FED3B0ABB
:103B20000421284605F05CFF04F244400621B0EE73
:103B3000481AF0EE480A9FED360A054605F031FFB7
:103B4000F0EE480AB0EE490A0421284605F048FF85
:103B5000F0EE480AB0EE680A0221284605F040FF60
:103B60002C4B0122022104F1140004F073FC294BB8
:103B700001220833022104F1340004F06BFC254BD0
:103B800001221033022104F1540004F063FC214BA4
:103B900001221833022104F1740004F05BFC1D4B78
:103BA00001222033022104F1940004F053FC1A4B4B
:103BB0001A4A1E211AA006F0CDFD1649483908649C
:103BC0001C49206904F0B4FC1B49A068FEF77AFB8D
:103BD0001A49E068FEF776FB206901B0BDEC048B62
:103BE000BDE8304004F046BD0000AA42307D002010
:103BF00030790020A410002000000000000048439D
:103C000000007A440050C34600401C4600409C45DA
:103C1000CDCCCC3D40020020410801082908010814
:103C200050697463685F4D6F746F725F536166654E
:103C3000000000001508010809180108DD970008B8
:103C4000064800218268A2F89E1106499FED040AE9
:103C500081ED110A006904F079BE0000307900207E
:103C600000000000F80100200149087670470000BC
:103C7000C89D002002480121017680ED080A7047A6
:103C8000C89D002002480021017680ED070A704798
:103C9000C89D002010B5094CE078002806D00848DF
:103CA000006904F0E7FCE078401EE07005F006FAD9
:103CB00005F0E0FEBDE8104009F064BBF80100200B
:103CC0003079002030B5144B022514491A69D07A96
:103CD000012814D0012402280DD003280DD00C7126
:103CE000CC780879844200D01871C870D17C012941
:103CF00007D0187130BD0C71F2E70C71F0E70D714F
:103D0000EEE70748006890F84F0010B103201871E3
:103D100030BD1D7130BD0000C89D00204C0C00203E
:103D2000780A00200149487670470000C89D0020AD
:103D3000024A01235376C2E90A017047C89D002058
:103D400002480021417680ED090A7047C89D002095
:103D500090F82020012A07D0022A05D0416A41F4B8
:103D60008021416201207047006842690A43426134
:103D700000207047F0B590F820500468A468012D29
:103D800007D0022D05D0416A41F480214162012013
:103D9000F0BD04F0806504F00066354301D1E50014
:103DA0005BD5C4F30164022C05D9416A41F40001DA
:103DB00041620120F0BD0125A5401D608B684FF4D4
:103DC000C0759BB1CE6805EB041733434E6843EAD8
:103DD000C6030668F3514FF4C273076803EB04137C
:103DE0000E69FE50097D012909D00DE00E88CB68CF
:103DF00005EB041743EA46530668F351EBE7016805
:103E0000CE5846F48076CE501179D379567941EA6E
:103E1000036193791B0443EA062319434FF4C676E2
:103E2000036806EB041699511178D37841EA0361CF
:103E3000937852781B0443EA022211434FF4C4736F
:103E4000026803EB0413D150006805EB04114258DB
:103E500042F0010242500020F0BD416A41F40011DD
:103E600041620120F0BD000010B590F82020012A29
:103E700007D0022A05D0416A41F480214162012025
:103E800010BD3C4800F50070026842F0010202607B
:103E9000026822F47C52026002684B6A42EA032202
:103EA00002600A7D02F01F0301229A40C369934316
:103EB000C361A0F50070CB69B3B9D0F80C3293435D
:103EC000C0F80C328C894B6864F31F434C6900EBDB
:103ED000C404C4F840320C890B6864F31F434C6976
:103EE00000EBC404C4F84432CB69012B16D1D0F8DE
:103EF0000C321343C0F80C320C884B6864F31F4338
:103F00004C6900EBC404C4F840320C89CB6864F3FC
:103F10001F434C6900EBC404C4F844328B697BB185
:103F2000D0F804321343C0F804320B6973B1D0F8EF
:103F300014321343C0F81432096A01290CD010E07E
:103F4000D0F804329343C0F80432EEE7D0F81432CC
:103F50009343C0F81432EFE7D0F81C121143C0F8B5
:103F60001C12D0F8001221F00101C0F8001200204C
:103F700010BD000000640040704730B590F820404C
:103F8000012C07D0022C05D0416A41F48021416206
:103F9000012030BD21B104682469A4075FD003E08B
:103FA0000468E468A40754D04FF4D874056804EB9F
:103FB00001142D5905F004059560F5B305682D59D8
:103FC000ED08556005682C5904F00204D4604FF4E4
:103FD000DA74056804EB01142D5905F00F0515611D
:103FE00005682D59C5F30725956105682C59240CE2
:103FF00054614FF4DC72046802EB0112A4581C7087
:104000000468A458240A5C700468A458240C9C70AA
:104010000468A258120EDA704FF4DE72046802EBE4
:104020000112A4581C710468A458240A5C71046825
:10403000A458240C9C71046800E016E0A258120EEB
:10404000DA71B9B10068016941F020010161002015
:1040500030BD416A41F400114162012030BD416A26
:1040600041F400114162012030BD05682D596D0DEC
:104070001560A7E70068C16841F02001C160E6E76C
:104080002DE9F05F0546002428684669D0F80490C1
:104090008768D0F80CA0D0F810B0D0F81880F107DD
:1040A00048D0F90714D001218160B80703D528460C
:1040B00000F082FA0CE0780702D54FF4006407E0C4
:1040C000380702D54FF4805402E0284600F073FA16
:1040D000F80516D529684FF480708860B80503D5B7
:1040E000284600F06BFA0CE0780502D544F4005441
:1040F00007E0380502D544F4804402E0284600F089
:104100005CFAF80316D529684FF480308860B8034C
:1041100003D5284600F054FA0CE0780302D544F4A5
:10412000004407E0380302D544F4803402E0284616
:1041300000F045FA300707D55FEACA6004D544F4B9
:10414000007429681020C86070074FF0080707D571
:104150005FEA0A7004D52868C760284600F0B8F9FD
:10416000B00706D52868C068800702D0284600F04E
:10417000B1F9700607D55FEACB6004D544F48064DA
:10418000296810200861B00607D55FEA0B7004D5D6
:1041900028680761284600F0DFF9F00606D5286890
:1041A0000069800702D0284600F0D7F9B00308D58F
:1041B0005FEAC96005D5296810204860284600F0EC
:1041C000CDF9F00307D55FEA097004D52868476088
:1041D000284600F0F6F9300446D55FEA497040D52C
:1041E000F00504D55FEAC87001D044F00104B005C1
:1041F00004D55FEA887001D544F00204700504D547
:104200005FEA487001D544F00404300529D518F060
:10421000700F26D008F07000402815D006DC10285A
:1042200009D020280AD0302816D10AE050280ED014
:10423000602811D10EE044F008040DE044F01004B1
:104240000AE044F0200407E044F0400404E044F0B5
:10425000800401E044F480742868816921F07001D1
:104260008161296804204860002C05D0686A2043D9
:1042700068622846FFF780FEBDE8F09F70B50446EF
:10428000002C03D094F8200010B104E0012070BD90
:10429000204600F09DF82068016841F001010160AE
:1042A00000F04CFC054605260CE000F047FC401BE6
:1042B0000A2807D9606A40F40030606284F8206000
:1042C000012070BD20684068C007EED020680168FA
:1042D00021F00201016000F031FC05460CE000F025
:1042E0002DFC401B0A2807D9606A40F40030606248
:1042F00084F82060012070BD206840688007EED4FB
:10430000207E01283FD02068016821F080010160F3
:10431000607E01283DD02068016821F040010160E5
:10432000A07E01283BD02068016821F020010160B7
:10433000E07E012839D02068016841F01001016059
:10434000207F012837D02068016821F00801016032
:10435000607F012835D02068016821F004010160E8
:10436000D4E902010843D4E9041211430843616807
:10437000491E08432168C86100206062012084F85A
:104380002000002070BD2068016841F080010160BC
:10439000BEE72068016841F040010160C0E7206885
:1043A000016841F020010160C2E72068016821F046
:1043B00010010160C4E72068016841F00801016054
:1043C000C6E72068016841F004010160C8E7000009
:1043D0002DE9F04186B00446142101A8FCF7A8FE9F
:1043E000364B374ADFF8D08018682168344C0326F2
:1043F0000227401C103200254FF0090C414527D1FF
:104400001860012807D1106840F000701060106833
:1044100000F000700090206840F0080020602068E4
:1044200000F0080000900196029703950496CDF8DD
:1044300014C001A9234800F091FA0022052114209C
:1044400000F014FC142000F003FC06B0BDE8F0817D
:10445000DFF874804145F8D1116841F08061116046
:10446000116801F0806100911860012807D110687F
:1044700040F000701060106800F00070009020683C
:1044800040F002002060206800F0020000906020F0
:104490000190029703950496CDF814C001A90B482A
:1044A00000F05CFA00220521402000F0DFFB4020F4
:1044B00000F0CEFBC9E70000006400401C000020B3
:1044C00030380240000C0240006800400004024006
:1044D000704700002DE9F0418AB00446002501AB89
:1044E00003AA00212046FFF748FD002824D11748E1
:1044F000844200D102250598042805D0039E00249B
:10450000134FDFF8508013E0049E6D1CEDB2F6E708
:1045100005EB850007EB401050F8341079B1B1423B
:1045200005D100EBC40001A9426803A89047641CB0
:1045300018F80500A042EBDC0AB0BDE8F08100EB02
:10454000C40001A9426803A89047F0E7CC100020FE
:10455000009E0020940C002070477047704770B593
:10456000044694F82000012805D0606A40F4002039
:104570006062012070BD022084F82000206801687C
:1045800021F00101016000F0D9FA05460DE000F0CC
:10459000D5FA401B0A2808D9606A40F400306062EE
:1045A000052084F82000012070BD20684068C00705
:1045B000EDD1606270BD70477047704770477047BB
:1045C000704770472DE9F0410446A76D00F0B6FA38
:1045D000054694F835000026022806D08020606544
:1045E00084F834600120BDE8F0812068016821F082
:1045F000160101602068416921F080014161206C51
:1046000008B9A06C20B12068016821F008010160A0
:104610002068016821F0010101600BE000F08EFAD2
:10462000401B052806D92020343420620320607006
:104630002670D8E720680068C007EFD134343F20E7
:1046400094F828108840B86001206070267000201F
:10465000C9E790F83510022903D080214165012077
:104660007047052180F835100068016821F00101CC
:1046700001600020704700002DE9F84304464FF028
:104680000009CDF800906F484FF416510068B0FB58
:10469000F1F7A56D2E6894F85C00082202FA00F18B
:1046A000314210D02068016849070CD5016821F01B
:1046B0000401016094F85C0002FA00F1A960606DE9
:1046C00040F00100606594F85C104FF0010808FAB2
:1046D00001F0304208D021684969090604D5A86074
:1046E000606D40F00200606594F85C100420884022
:1046F000304208D021680968890704D5A860606D38
:1047000040F00400606594F85C101020884030424E
:1047100020D02168096809071CD5A86020680168B5
:1047200049030CD50068000304D4216C91B12046E4
:1047300088470FE0A16C69B1204688470AE001680C
:10474000C90503D4016821F008010160216C09B199
:104750002046884794F85C102020884030424CD096
:1047600021680968C90648D5A86094F8350005286D
:104770000BD020680168490330D50068000328D4B5
:10478000616C51B32046884737E02068016821F00A
:10479000160101602068416921F080014161206CAF
:1047A00008B9A06C20B12068016821F008010160FF
:1047B00094F85C103F208840A86084F8358084F825
:1047C0003490216D00293BD001B02046BDE8F04374
:1047D0000847E16B09B1204688470EE00168C9052A
:1047E00007D4016821F01001016084F8358084F855
:1047F0003490E16B09B120468847606D00281FD0D6
:10480000606DC00714D0052084F835002068016869
:1048100021F0010101600098401C0090B84203D8CB
:1048200020680068C007F6D184F8358084F8349099
:10483000E16C002904D001B02046BDE8F0430847F0
:10484000BDE8F883900000202DE9F041044600F017
:1048500075F905465CB1022084F83500002684F81D
:1048600034602068016821F0010101600DE0012041
:10487000BDE8F08100F062F9401B052805D9202031
:104880006065032084F83500F2E720680068C007FF
:10489000F0D121680A6820480240D4E90103184396
:1048A000D4E903352B43184363691843A3691843BC
:1048B000E3691843236A18431043626A042A03D148
:1048C000D4E90B231A43104308602068406920F0A4
:1048D0000700656A29460543012704290DD1A06A0E
:1048E0000543E06A48B12046FDF7FAFE28B14020B2
:1048F000606584F835700120BAE72068456120467C
:10490000FDF7D8FE94F85C203F21914081606665F8
:1049100084F835700020ABE73F8010F070B5044696
:1049200000F00CF90546601C02D0044800780444ED
:1049300000F004F9401BA042FAD370BD84000020AF
:104940007047000010B504490A68024202D00860AE
:10495000FFF7F6FF10BD0000143C01402DE9F84FB1
:104960000022DFF89C914FF0010803274FF00F0C55
:1049700009F1040AA9F1040B08FA02F50B682B40AF
:10498000AB426ED10C7904F00304012C01D0022C4F
:1049900015D18668540007FA04FE26EA0E06D1F8FF
:1049A0000CE00EFA04FE4EEA060EC0F808E0446879
:1049B000AC430D79C5F300159540254345600C794E
:1049C000E443A40708D0C568540007FA04F6B543C9
:1049D0008E68A6402E43C6600C7904F00304022CB6
:1049E00011D1D40800EB8406356A5407E40E0CFAA2
:1049F00004FE25EA0E05D1F810E00EFA04FE4EEA98
:104A0000050EC6F820E00568540007FA04F6B54321
:104A10000E7906F00306A6402E4306604C6814F497
:104A2000403F67D0374C256845F4804525602468B1
:104A300004F480440094344C22F003052E19D6F877
:104A4000085894074FEA147E0CFA0EF4A5432F4C35
:104A5000A04201D1002424E02D4CA04202D1012427
:104A60001FE047E02B4CA04201D1022419E02A4C60
:104A7000A04201D1032414E0284CA04201D1042417
:104A80000FE0274CA04201D105240AE0254CA042AA
:104A900001D1062405E0244CA04201D1072400E006
:104AA000082404FA0EF42C43C6F80848D9F800404C
:104AB0009C434D68ED0200D51C43C9F80040DAF86C
:104AC00000409C434D68AD0200D51C43CAF800402D
:104AD000DBF800409C434D68AD0300D51C43CBF888
:104AE0000040074D083D2C689C434E68F60300D5F6
:104AF0001C432C60521C102AFFF43EAFBDE8F88F17
:104B0000083C0140443802400030014000000240AF
:104B10000004024000080240000C02400010024065
:104B20000014024000180240001C0240002A01D07C
:104B30008161704709048161704700000148806805
:104B40007047000084000020024881680278114408
:104B5000816070478400002010B50B48016841F463
:104B600000710160016841F480610160016841F4F5
:104B700080710160032000F099F8052000F006F82C
:104B800000F04AF8002010BD003C024030B587B06C
:104B9000054600241B48016841F0010101600068DE
:104BA00000F00100009001A902A800F03DFE00F015
:104BB0006FFE40001449B0FBF1F1491E1448134A3E
:104BC000026040F2E732C260416004618460846147
:104BD00001F0D4FA044694B90D4801F03DFB0446B7
:104BE0006CB9192000F034F8102D07D200222946A4
:104BF000192000F03BF80748056000E0012407B0E9
:104C0000204630BD4438024040420F0000000140C1
:104C1000D41400208800002082B00C48016841F4C0
:104C200080410160006800F4804001900748001F47
:104C3000016841F080510160006800F080500190EF
:104C400000220F21901E02B000F010B8443802403C
:104C5000002809DB00F01F0201219140400980007B
:104C600000F1E020C0F8001170470000F0B40D46DC
:104C70000D4B1B68C3F30223C3F10704042C00D9B6
:104C80000424191D072901D2002300E0DB1E0126A0
:104C900006FA04F1491E294099409E40761E1640AE
:104CA0003143F0BC08F03FBC0CED00E000F0070120
:104CB000054A10684FF6FF03184040EA01200349F7
:104CC00008431060704700000CED00E00000FA059A
:104CD0007047006841620020704770B50368586AE9
:104CE000002907D09C6A00EB144400204FF4827521
:104CF000491E0AE040EA024098620DE005EB80069A
:104D00009E5904EB1644401CC0B28842F6D305EB12
:104D1000810144EA02405850002070BDD0F80805D7
:104D200007F021B801EBC10200EB8202D0F80805C0
:104D3000D26C06F045BF01EBC10200EB8202D0F855
:104D40000805D2F88C2206F0A9BFD0F8080507F0B4
:104D50000CB80A0601F00F0101EBC10100EB810163
:104D600001D53C3101E001F51F71006807F0BCBFBF
:104D700070B504460B0601F00F0000EBC00104EB18
:104D800081014FF001024FF0000502D53C314A701D
:104D900002E001F51F714D70087094F8BC04012801
:104DA00008D084F8BC24206807F056FC84F8BC5472
:104DB000002070BD022070BD70B5044601F00F00E8
:104DC0006268904201D9012070BD0B0601F00F010D
:104DD00001EBC10104EB81014FF001024FF000052E
:104DE00002D53C314A7002E001F51F714D708D70A3
:104DF000087094F8BC04012808D084F8BC2420680A
:104E000007F01EFE84F8BC54002070BD022070BD67
:104E100001F00F0101EBC10100EB8100D0F89C0211
:104E200070472DE9F04104460F0601F00F0000EB3A
:104E3000C00104EB81014FF001064FF0000502D5DF
:104E40003C314E7002E001F51F714D700870CA6070
:104E50000B714A7802B10881022B00D14D7194F890
:104E6000BC04012809D084F8BC64206807F040FB2A
:104E7000284684F8BC54BDE8F0810220FBE770B5F9
:104E80000D4605F00F0404EBC40100EB810101F5B0
:104E90001F710A618B6100230B624B700C700369F8
:104EA000012B00D14A612A0705D0027C006807F077
:104EB0001FFE002070BD027C006807F00BFDF8E7C4
:104EC00070B504460D46616805F00F00884201D9AF
:104ED000012070BD29064FF000064FF0010206D5F3
:104EE00000EBC00104EB81013C314A7006E005EBA8
:104EF000C50104EB810101F51F714E708A700870C5
:104F000094F8BC04012807D084F8BC24206807F07A
:104F1000C3FD280702D007E0022070BD217C04F207
:104F2000C442206807F062FD84F8BC64002070BDB4
:104F300070B50D4605F00F0404EBC40100EB8101D0
:104F40003C310A618B6100230B6201234B700C70B2
:104F50000369012B00D14A612A0705D0027C006851
:104F600007F0C6FD002070BD027C006807F0B2FCAF
:104F7000F8E72DE9F84F04462568284607F062FF58
:104F800000287ED1206807F089FF002879D0D5F865
:104F90000808C0F30D20C4F8FC04206807F07EFF69
:104FA000800704D52068416901F002014161206851
:104FB00007F074FFC10604F2C440009035D52068A4
:104FC000816921F0100181612F6A07F00F0000EB69
:104FD000C00004EB800606F51F76C7F343400228A5
:104FE00002D0062812D01BE047F6F070074217D017
:104FF000C7F30A1217462846316907F053FF306994
:1050000038443061306A3844306209E0082228466A
:10501000009907F047FF306AC7F30A11084430626D
:105020002068816941F010018161206807F036FF36
:1050300000034FF0080B4FF000094FF001085ED558
:105040000026206807F009FF824655E05FEACA7033
:105050004FD0F1B2206807F019FF0746F80707D0D4
:1050600005EB4610C0F8088B3146204604F0C4F822
:10507000380709D505EB4610C0F808BB3146204675
:1050800000E0F9E104F094F8F80604D505EB4611C8
:105090001020C1F8080BB8071CD56869000605D5B3
:1050A000D5F8040840F48061C5F8041806EBC60082
:1050B00004EB800000F51F70C178012905D180F84C
:1050C0000390F1B2204600F0DDF905EB4611022015
:1050D000C1F8080BB80604D505EB46102021C0F82E
:1050E000081BB80405D505EB46104FF40051C0F875
:1050F000081B761C4FEA5A0ABAF1000FA6D12068A5
:1051000007F0CCFE40036CD5206807F09FFE824676
:10511000002663E05FEACA705DD0F1B2206807F054
:10512000A3FE0746F80723D006F00F0108FA01F0A6
:10513000D5F834188143C5F8341805EB4610C0F88B
:105140000889206901280FD106EBC60004EB800016
:10515000D0E912211144C16436B9606D20B92068CC
:105160000121009A07F042FCF1B22046FFF7DAFD78
:10517000380703D505EB4610C0F808B9F80604D582
:1051800005EB46111020C1F80809780604D505EB97
:1051900046104021C0F80819B80716D531462846F0
:1051A00007F01CFE06EBC60004EB80003C30C17823
:1051B000012905D180F80390F1B2204600F05EF994
:1051C00005EB46110220C1F80809380603D531461F
:1051D000204604F083F8761C4FEA5A0ABAF1000F11
:1051E00098D1206807F05AFE002811DAD5F8040893
:1051F00020F00101C5F8041894F8F404012829D01E
:10520000204600F00EFA2068416901F0004141613A
:10521000206807F043FE00050BD5D5F80808C00745
:1052200002D0204600F042FA2068416901F4006192
:105230004161206807F032FEC00461D5D5F804084A
:1052400020F00101C5F804181021206807F0C6FD00
:10525000002120E084F8F49400212046FFF738FD77
:10526000D1E705EB411000F510604FF67F32826008
:10527000036823F400130360C0F80822D0F800226A
:1052800022F40012C0F80022D0F8002242F000629E
:10529000C0F80022491C60688842E2D8D5F81C0892
:1052A00040F00111C5F81C18206B60B1D5F88408D6
:1052B00040F00B01C5F88418D5F8440840F00B0104
:1052C000C5F844180CE0D5F8140842F22B01084345
:1052D000C5F81408D5F8100840F00B01C5F81018EF
:1052E000D5F8000820F4FE61C5F80018217C20687C
:1052F000009A07F07BFB2068416901F4805141610D
:10530000206807F0CBFD800415D5206807F032F93E
:10531000206807F087FDE06000F0A4FA0146227BD8
:10532000206807F025FE204600F064F920684169F6
:1053300001F400514161206807F0B0FD000707D576
:10534000204600F072F92068416901F008014161CE
:10535000206807F0A3FD000615D5A86920F080019C
:10536000A96101260CE006EBC60004EB800090F872
:105370007F02012803D1F1B22046FFF7EAFC761C38
:105380006068B042EFD8206807F088FDC00220D5E1
:10539000012616E005EB4610D0F8001906EBC60012
:1053A00004EB800090F84020012A09D1002907DA97
:1053B00080F83F80F0B240F080012046FFF7C9FC42
:1053C000761C6068B042E5D82068416901F480111C
:1053D0004161206807F062FD800230D5012026E09F
:1053E00005EB4011D1F8001B00EBC00204EB820278
:1053F00092F88032012B19D1002917DA94F8FC3485
:1054000001F4803103F0010399420FD182F87F82C9
:10541000A96941F08002AA616969090606D4D5F834
:10542000040840F40070C5F8040803E0401C6168FB
:105430008142D5D82068416901F40011416120689A
:1054400007F02CFD400007D52046FFF767FC2068D9
:10545000416901F080414161206807F01FFD40076C
:105460000AD520684568680702D52046FFF76DFC1D
:105470002068416829434160BDE8F88FD0F80805ED
:1054800006F0C8BCD0F8080506F0D9BC2DE9F041FB
:105490008AB00446002C05D0266894F8BD04002587
:1054A00020B108E001200AB0BDE8F08184F8BC54C6
:1054B000204600F05DF8032084F8BD04F06BC005C1
:1054C00000D42561206807F0FFF904F110012822BB
:1054D00088466846FBF7D8FD94E80F0007F058F8B7
:1054E000022718B184F8BD740120DCE70021206890
:1054F00007F0F7FC002101260DE001EBC10004EBF1
:1055000080003C304670017001810571C560056105
:105510008561491CC9B260688842EED800210DE05F
:1055200001EBC10004EB800000F51F7045700170B5
:105530000571C56005618561491CC9B26068884212
:10554000EED8282241466846FBF79EFD94E80F00FE
:1055500007F002F918B184F8BD740120A3E784F8BC
:10556000385084F8BD64206807F0E8F800209AE716
:1055700010B586B00446142101A8FBF7D9FD2068B8
:10558000B0F1A04F2FD100211848026842F001026B
:105590000260006800F0010000904FF4E0500190BC
:1055A000022002900391032004900A20059001A993
:1055B0000F48FFF7D3F90D48001D016841F0800145
:1055C00001600A481430016841F4804101600068BC
:1055D00000F480400090002205214320FFF746FBA5
:1055E0004320FFF735FB06B010BD00003038024005
:1055F0000000024070B504460125E06800280ED086
:10560000022801D0FDF756FD2946D4F8080506F01A
:1056100087FCD4F80805BDE8704006F03ABC0025C8
:10562000F2E7D0F8080506F064BCD0F8080506F0EB
:105630006ABC10B5044694F8BC0401280BD00120C4
:1056400084F8BC0484F83810206807F07AFC002045
:1056500084F8BC0410BD022010BDD0F8082500F26B
:10566000C441104606F068BC10B50446206894F8A2
:10567000BC14012906D0012184F8BC14A16A0129B7
:1056800002D008E0022010BDA169012903D0816B7E
:1056900041F480318163206807F078FB206807F0CF
:1056A0003FF8002084F8BC0410BD000010B504468B
:1056B000D4F8080506F082FC2068D0F8001E41F0FE
:1056C0000101C0F8001E206A002804D002480168C9
:1056D00041F00601016010BD10ED00E02DE9F0473A
:1056E00004460D46002C13D0DFF82891D9F80000AD
:1056F000EFB200F00700A8420CD289F80070D9F888
:10570000000000F00700A84204D00120BDE8F087A7
:105710000120FBE72068404E810712D5400703D5E2
:10572000306840F4E05030602078000703D53068DE
:1057300040F4604030603068A16820F0F000084319
:1057400030602078C00731D03349606808390128BB
:1057500008D002280BD0032809D0096889070BD488
:105760000120D3E70968890306D40120CEE7096840
:10577000890101D40120C9E7316821F00301014307
:105780003160FFF7DBF9804641F2883A07E0FFF726
:10579000D5F9A0EB0800504501D90320B6E73068E1
:1057A000616800F00C00B0EB810FF0D1D9F8000077
:1057B00000F00700A84209D989F80070D9F8000064
:1057C00000F00700A84201D001209FE720784007A1
:1057D00005D53068E16820F4E05008433060207857
:1057E000000706D53068216920F4604040EAC10016
:1057F000306000F05DF83168084AC1F30311515C74
:10580000C8400749086007480068FFF7BFF9002053
:105810007CE70000003C024008380240EC320108FE
:1058200090000020880000200F2202600B4A1368BD
:1058300003F003034360136803F0F003836013680D
:1058400003F4E053C360126802F46042D2080261BC
:105850000348006800F007000860704708380240FD
:10586000003C0240014800687047000090000020A2
:1058700000B5FFF7F7FF04490968044AC1F3822124
:10588000515CC84000BD000008380240FC320108ED
:1058900000B5FFF7E7FF04490968044AC1F3423144
:1058A000515CC84000BD000008380240FC320108CD
:1058B00010B51748006810F00C01164816D0164BAA
:1058C000042912D0082911D1114C241F216801F09C
:1058D0003F02216849020AD52068C0F38810A0FB66
:1058E00003010023FBF7F0FA09E0184610BD216818
:1058F0000023C1F38811A1FB0001FBF7E5FA216841
:10590000C1F30141491C4900B0FBF1F010BD00009A
:10591000083802400024F400001BB7002DE9F84FBE
:105920000446002C13D02078DFF8A083C007A8F12C
:10593000040556D008F104000168C1F38101012972
:105940000CD00068C0F38100022803D00DE00120D4
:10595000BDE8F88FD8F80000400206D5286880031B
:105960003FD5606870BB0120F2E76068B0F5803F0A
:1059700010D0B0F5A02F12D0286820F48030286015
:10598000286820F4802028606068E0B1FFF7D6F82E
:10599000064614E0286840F480302860F4E7286860
:1059A00040F480202860286840F480302860EBE7CD
:1059B000FFF7C4F8801B642801D90320C8E72868D2
:1059C0008003F5D50DE0FFF7B9F8064606E0FFF7CE
:1059D000B5F8801B642801D90320B9E72868800343
:1059E000F5D42078BA4F80074FF0000948D5B74862
:1059F000001D016811F00C0F08D00068C0F3810091
:105A0000022813D1D8F8000040020FD4286880077C
:105A100004D5E068012801D0012099E728682169B0
:105A200020F0F80040EAC100286029E0E068B8B141
:105A300001203860FFF782F8064606E0FFF77EF89F
:105A4000801B022801D9032082E728688007F5D54A
:105A50002868216920F0F80040EAC10028600FE0C2
:105A6000C7F80090FFF76AF8064606E0FFF766F809
:105A7000801B022801D903206AE728688007F5D433
:105A80002078000729D5DFF844A2924861690AF11D
:105A9000700A89B101210160FFF750F8064606E05F
:105AA000FFF74CF8801B022801D9032050E7DAF8F1
:105AB00000008007F4D510E0C0F80090FFF73EF832
:105AC000064606E0FFF73AF8801B022801D90320BA
:105AD0003EE7DAF800008007F4D42078400778D554
