:020000040800F2
:1000000000000220592700082D0900082F090008C8
:100010003109000833090008350900080000000014
:100020000000000000000000000000003709000888
:1000300039090008000000003B0900083D090008DC
:10004000A9270008A9270008A9270008A927000850
:10005000A9270008A9270008A9270008A927000840
:10006000A9270008A9270008A9270008A927000830
:10007000A9270008A9270008A9270008A927000820
:10008000A9270008A9270008A9270008A927000810
:1000900045090008A9270008A9270008A927000882
:1000A000A9270008A9270008A9270008A9270008F0
:1000B000A9270008A9270008A9270008A9270008E0
:1000C000A9270008A9270008A9270008A9270008D0
:1000D000A9270008A9270008A9270008A9270008C0
:1000E000A9270008A9270008A9270008A9270008B0
:1000F000A9270008A9270008A9270008A9270008A0
:10010000A9270008A9270008A9270008A92700088F
:10011000A9270008A9270008A9270008A92700087F
:10012000A9270008A9270008A9270008A92700086F
:10013000A9270008A9270008A9270008A92700085F
:1001400055090008A9270008A9270008A9270008C1
:10015000A9270008A9270008A9270008A92700083F
:10016000A9270008A9270008A9270008A92700082F
:10017000A9270008A9270008A927000800000000F7
:08018000A9270008A9270008C7
:1001880010B5054C237833B9044B13B10448AFF3C9
:1001980000800123237010BD14000020000000001F
:1001A8000428000808B5034B1BB103490348AFF303
:1001B800008008BD00000000180000200428000886
:1001C80053B94AB9002908BF00281CBF4FF0FF31B6
:1001D8004FF0FF3000F074B9ADF1080C6DE904CEB2
:1001E80000F006F8DDF804E0DDE9022304B070470A
:1001F8002DE9F047089D04468E46002B4DD18A42D2
:10020800944669D9B2FA82F252B101FA02F3C2F104
:10021800200120FA01F10CFA02FC41EA030E944095
:100228004FEA1C48210CBEFBF8F61FFA8CF708FBB6
:1002380016E341EA034306FB07F199420AD91CEB8E
:10024800030306F1FF3080F01F81994240F21C81C0
:10025800023E63445B1AA4B2B3FBF8F008FB103308
:1002680044EA034400FB07F7A7420AD91CEB04043D
:1002780000F1FF3380F00A81A74240F2078164440D
:10028800023840EA0640E41B00261DB1D440002392
:10029800C5E900433146BDE8F0878B4209D9002DF6
:1002A80000F0EF800026C5E9000130463146BDE880
:1002B800F087B3FA83F6002E4AD18B4202D38242EA
:1002C80000F2F980841A61EB030301209E46002D99
:1002D800E0D0C5E9004EDDE702B9FFDEB2FA82F2EE
:1002E800002A40F09280A1EB0C014FEA1C471FFA4C
:1002F8008CFE0126200CB1FBF7F307FB131140EA33
:1003080001410EFB03F0884208D91CEB010103F1FF
:10031800FF3802D2884200F2CB804346091AA4B2C1
:10032800B1FBF7F007FB101144EA01440EFB00FE95
:10033800A64508D91CEB040400F1FF3102D2A645FA
:1003480000F2BB800846A4EB0E0440EA03409CE799
:10035800C6F12007B34022FA07FC4CEA030C20FA46
:1003680007F401FA06F31C43F9404FEA1C4900FA66
:1003780006F3B1FBF9F8200C1FFA8CFE09FB1811E3
:1003880040EA014108FB0EF0884202FA06F20BD956
:100398001CEB010108F1FF3A80F08880884240F2A6
:1003A8008580A8F102086144091AA4B2B1FBF9F0EA
:1003B80009FB101144EA014100FB0EFE8E4508D9E5
:1003C8001CEB010100F1FF346CD28E456AD902386A
:1003D800614440EA0840A0FB0294A1EB0E01A1424F
:1003E800C846A64656D353D05DB1B3EB080261EBBD
:1003F8000E0101FA07F722FA06F3F1401F43C5E997
:10040800007100263146BDE8F087C2F12003D840CC
:100418000CFA02FC21FA03F3914001434FEA1C470E
:100428001FFA8CFEB3FBF7F007FB10360B0C43EA00
:10043800064300FB0EF69E4204FA02F408D91CEBB0
:10044800030300F1FF382FD29E422DD902386344AE
:100458009B1B89B2B3FBF7F607FB163341EA03414E
:1004680006FB0EF38B4208D91CEB010106F1FF389D
:1004780016D28B4214D9023E6144C91A46EA004694
:1004880038E72E46284605E70646E3E61846F8E626
:100498004B45A9D2B9EB020864EB0C0E0138A3E76F
:1004A8004646EAE7204694E74046D1E7D0467BE750
:1004B800023B614432E7304609E76444023842E7C8
:1004C800704700BF70B52DED028B82B0304C00250F
:1004D800256065601E2600962B462A4602210120CB
:1004E80002F040F8206000962B46012204211046B5
:1004F80002F038F860602368012283F8842180F8CC
:1005080084219FED248A4FF48271B0EE481AF0EEF0
:10051800480AB7EE000A03F1640001F0CEFB206838
:10052800DFED1D8AF0EE480AB0EE680A0421643057
:1005380001F0D8FB2068F0EE480AB2EE040A4FF446
:100548008071643001F0CEFB60684FF48271B0EEC8
:10055800481AF0EE480AB7EE000A643001F0ADFB25
:100568006068F0EE480AB0EE680A0421643001F0D1
:10057800B9FB6068F0EE480AB2EE040A4FF48071E5
:10058800643001F0AFFB02B0BDEC028B70BD00BF60
:10059800300000200000000000007A4610B52DED64
:1005A800028B9FED088A084CB0EE480A206801F0DB
:1005B8005DFEB0EE480A606801F058FEBDEC028BA3
:1005C80010BD00BF000096453000002038B5104D22
:1005D8002C68B4F9163000EE903AF8EEE00A94ED83
:1005E800630A04F1640001F073FCA4F890016C68DC
:1005F800B4F9163000EE903AF8EEE00A94ED630A8A
:1006080004F1640001F064FCA4F8900138BD00BF57
:100618003000002072B6FEE700B595B03022002108
:1006280008A802F0E3F800230393049305930693C4
:1006380007930193204A116C41F080511164126CA8
:1006480002F080520192019A02931C4B1A6842F4FC
:1006580080421A601B6803F480430293029B0123C3
:1006680008934FF48033099302220E924FF48003CB
:100678000F9304231093A82111911292139308A8A1
:1006880000F066FD98B90F23039302230493002317
:1006980005934FF4A05306934FF480530793052115
:1006A80003A800F0BBFF20B915B05DF804FBFFF705
:1006B800B1FFFFF7AFFF00BF0038024000700040F5
:1006C80008B501F0DFF9FFF7A7FF00F025F800F003
:1006D80053F800F073F801F005FCFFF7F3FE0B4C3C
:1006E8002368B3F916200A4B1A806368DB8A5B42D9
:1006F800084A1380FFF752FFFFF768FF206801F0F0
:1007080059FE012001F0EAF9E9E700BF30000020B6
:10071800380000203A00002084B000220092154BD7
:10072800196B41F080011963196B01F08001009188
:1007380000990192196B41F002011963196B01F0DC
:100748000201019101990292196B41F001011963AB
:10075800196B01F001010291029903921A6B42F0A0
:1007680008021A631B6B03F008030393039B04B08E
:10077800704700BF0038024008B50E480E4B0360B2
:100788000323436000238360C3604FF41022026197
:100798004FF4001242610376012242768276C376D4
:1007A8000377437700F0F6F800B908BDFFF732FF8A
:1007B800FBE700BF400000200064004008B50E4879
:1007C8000E4B03600323436000238360C3604FF430
:1007D800102202614FF40012426103760122427630
:1007E8008276C3760377437700F0D4F800B908BD62
:1007F800FFF710FFFBE700BF68000020006800401B
:1008080010B58AB0002305930693079308930993BC
:1008180003683E4A934204D03D4A934234D00AB01A
:1008280010BD3C4A136801331360012B1FD000240C
:100838000194394B1A6B42F008021A631B6B03F0E0
:1008480008030193019B0323059302220692089350
:100858000923099305A9314800F090FF2246214653
:10086800142001F08FF8142001F0C4F8D7E7002312
:100878000093294B1A6C42F000721A641B6C03F047
:1008880000730093009BD2E700230293224B1A6C5B
:1008980042F080621A641B6C03F080630293029B2F
:1008A8001C4A136801331360012B21D000240494DF
:1008B800194B1A6B42F002021A631B6B03F0020316
:1008C8000493049B4FF44053059302230693032398
:1008D80008930923099305A9114800F04FFF224600
:1008E8002146402001F04EF8402001F083F896E7B9
:1008F80000230393084B1A6C42F000721A641B6CB5
:1009080003F000730393039BD0E700BF006400402B
:10091800006800403C00002000380240000C024003
:1009280000040240FEE7FEE7FEE7FEE7FEE7704749
:100938007047704708B501F0BFF808BD08B5024810
:1009480000F0E0FA08BD00BF4000002008B50248EA
:1009580000F0D8FA08BD00BF6800002082B000216E
:1009680000910B4B5A6C42F480425A645A6C02F460
:1009780080420092009A01911A6C42F080521A64E7
:100988001B6C03F080530193019B02B0704700BFBA
:1009980000380240002800F0A18038B5044690F8DD
:1009A8002030D3B12268136843F00103136001F0CB
:1009B8008FF8054623685A6812F0010F10D101F02C
:1009C80087F8401B0A28F5D9636A43F40033636249
:1009D800052384F82030012038BDFFF711FFE1E737
:1009E8001A6822F002021A6001F072F805462368BC
:1009F8005A6812F0020F0DD001F06AF8401B0A285D
:100A0800F5D9636A43F400336362052384F8203020
:100A18000120E1E7227E012A3DD01A6822F08002F7
:100A28001A60637E012B3BD02268136823F04003D1
:100A38001360A37E012B39D02268136823F02003AA
:100A48001360E37E012B37D02268136843F010034C
:100A58001360237F012B35D02268136823F0080325
:100A68001360637F012B33D02268136823F00403DB
:100A78001360A368E268134322691343626913434E
:100A88006268013A21681343CB6100206062012348
:100A980084F82030A0E71A6842F080021A60C0E7A4
:100AA8002268136843F040031360C2E722681368A2
:100AB80043F020031360C4E72268136823F010038F
:100AC8001360C6E72268136843F008031360C8E799
:100AD8002268136843F004031360CAE701207047D3
:100AE80090F82030013BDBB2012B05D9436A43F46F
:100AF800802343620120704730B5464BD3F800226B
:100B080042F00102C3F80022D3F8002222F47C52FA
:100B1800C3F80022D3F80022486A42EA0022C3F848
:100B280000224A6902F01F02012000FA02F2D3F8FB
:100B38001C026FEA020C20EA0200C3F81C02CB690F
:100B4800C3B9344BD3F80C020CEA0000C3F80C020A
:100B58008C884869CD6844EA0544483043F83040F9
:100B68008C68088840EA04404C6904F1480E03EB9D
:100B7800CE035860CB69012B1ED08B69002B33D173
:100B88002448D0F804320CEA0303C0F804320B6995
:100B98008BBB2048D0F814320CEA0303C0F8143297
:100BA8000B6A012B2ED01B4AD2F8003223F0010326
:100BB800C2F80032002030BD164BD3F80C021043A7
:100BC800C3F80C028C8848690D6844EA054448302B
:100BD80043F8304088894C698D6840EA05404834BC
:100BE80003EBC4035860C8E70A48D0F8043213433B
:100BF800C0F80432CBE70748D0F814321343C0F8E2
:100C08001432CDE70349D1F81C321A43C1F81C222B
:100C1800C9E700BF0064004070B5044690F8205052
:100C2800EDB2012D06D0436A43F400234362012547
:100C3800284670BD022380F820300268136823F02C
:100C48000103136000F044FF064623685B6813F055
:100C5800010F0CD000F03CFF831B0A2BF5D9636A07
:100C680043F400336362052384F82030E0E700256D
:100C78006562DDE730B590F820C00468A4680CF11F
:100C8800FF3C5FFA8CFCBCF1010F62D814F0E05F06
:100C980059D0C4F3016C012404FA0CF41C608B686D
:100CA800002B3DD10D68CB68046843EA45550CF12B
:100CB80018031B01E55003680C690CF1180E03EBCF
:100CC8000E135C600B7D012B35D0D17993791B0411
:100CD80043EA0163517943EA012314790168234304
:100CE80001EB0C11C1F88C31D17893781B0443EADD
:100CF8000163517843EA0123117802680B4302EB40
:100D08000C12C2F8883102680CF1180C4FEA0C1C5E
:100D180052F80C3043F0010342F80C3000201DE07B
:100D28004C6843EAC403CC6823430CF1180424013B
:100D380005682B51BFE7036803EB0E13596841F4AC
:100D480080715960C1E7436A43F40013436201208C
:100D580004E0436A43F480234362012030BD90F8E5
:100D680020C00CF1FF3C5FFA8CFCBCF1010F00F2D3
:100D7800A58030B451B90468E46814F0030F10D1A9
:100D8800436A43F40013436201207EE00468246947
:100D980014F0030F05D1436A43F4001343620120A2
:100DA80073E0056801F11B0424012C5904F00404C4
:100DB8009460002C6BD1056801F11B0424012C59A7
:100DC800640D1460046801F11B0C4FEA0C1C54F804
:100DD8000C4004F00204D4600468A444DCF8045015
:100DE80015F0080F5BD008241461056801F11B0C8D
:100DF80005EB0C156D68C5F307259561046804EBD0
:100E08000C146468240C5461026802EB0112D2F8D5
:100E1800B8211A70026802EB0112D2F8B821C2F3A5
:100E280007225A70026802EB0112D2F8B821C2F305
:100E380007429A70026802EB0112D2F8B821120E2A
:100E4800DA70026802EB0112D2F8BC211A7102684A
:100E580002EB0112D2F8BC21C2F307225A710268D0
:100E680002EB0112D2F8BC21C2F307429A71026860
:100E780002EB0112D2F8BC21120EDA71C1B9026874
:100E8800D36843F02003D360002030BC7047056866
:100E980001F11B0424012C59E408546092E701F184
:100EA8001B0504EB0514646804F00F0414619CE747
:100EB8000268136943F020031361E5E7436A43F4CA
:100EC800802343620120704790F82030013BDBB259
:100ED800012B05D9436A43F48023436201207047FC
:100EE8000268536919435161002070477047704781
:100EF8007047704770477047704770477047704732
:100F0800704770472DE9F84F054603685C69D3F8C8
:100F180004809F68D3F80CB0D3F810A0D3F81890C9
:100F280014F001063BD017F0010616D001229A6092
:100F380017F0020F08D117F0040F0CD117F00806AC
:100F480006D04FF4805608E0FFF7D0FF002604E0F3
:100F5800FFF7CFFF01E04FF4006617F4807F0DD054
:100F68002B684FF480729A6017F4007F40F08680F7
:100F780017F4806F00F0868046F4005617F4803F1F
:100F88000DD02B684FF480329A6017F4003F40F080
:100F9800838017F4802F00F0838046F4004614F015
:100FA800080F07D01BF0100F04D046F400762B680A
:100FB8001022DA6014F0040F02D01BF0080F79D168
:100FC80014F0020F04D02B68DB6813F0030F78D1FC
:100FD80014F0400F07D01AF0100F04D046F48066C2
:100FE8002B6810221A6114F0200F02D01AF0080F93
:100FF8006BD114F0100F04D02B681B6913F0030F8A
:101008006AD114F4003F02D018F0100F68D114F41C
:10101800803F02D018F0080F69D114F4004F7AD03D
:1010280018F0040F74D014F4807F04D019F0010F65
:1010380001D046F0010614F4007F04D019F0020F25
:1010480001D046F0020614F4806F04D019F0040FA2
:1010580001D046F0040614F4006F59D019F0700955
:1010680056D0B9F1400F65D058D8B9F1200F5ED0ED
:10107800B9F1300F42D146F0200644E02846FFF788
:1010880036FF7BE717F4006F02D046F4804675E719
:101098002846FFF72FFF71E72846FFF729FF7EE76D
:1010A80017F4002F02D046F4803678E72846FFF779
:1010B80022FF74E72B680822DA602846FFF71CFF36
:1010C8007EE7284600F09EFF82E72B6808221A6117
:1010D8002846FFF713FF8CE72846FFF70EFF90E737
:1010E8002B6810225A602846FFF709FF8FE72B6804
:1010F80008225A602846FFF703FF8EE7B9F1100F60
:1011080001D146F008062A68936923F070039361B9
:101118002B6804225A609EB9BDE8F88FB9F1500FC8
:101128000BD0B9F1600FEED146F48076EBE746F0CC
:101138001006E8E746F04006E5E746F08006E2E7F5
:101148006B6A1E436E622846FFF7DBFEE4E7000089
:10115800002800F0E08170B582B00446036813F0FF
:10116800010F3BD09F4B9B6803F00C03042B2CD042
:101178009C4B9B6803F00C03082B21D06368B3F5E4
:10118800803F4FD0B3F5A02F52D0964B1A6822F467
:1011980080321A601A6822F480221A606368002B71
:1011A80050D000F095FC05468E4B1B6813F4003FA9
:1011B80014D100F08DFC401B6428F5D90320B1E15F
:1011C800884B5B6813F4800FD8D0864B1B6813F4E8
:1011D800003F03D06368002B00F09F81236813F061
:1011E800020F54D07F4B9B6813F00C0F3ED07D4B01
:1011F8009B6803F00C03082B33D0E368002B68D0FE
:10120800794B01221A6000F063FC0546754B1B6898
:1012180013F0020F54D100F05BFC401B0228F5D9F3
:1012280003207FE16F4A136843F480331360B5E706
:101238006C4B1A6842F480221A601A6842F48032B1
:101248001A60ABE700F044FC0546664B1B6813F4D4
:10125800003FC3D000F03CFC401B6428F5D90320B4
:1012680060E1604B5B6813F4800FC6D15D4B1B686F
:1012780013F0020F03D0E368012B40F05081594A64
:10128800136823F0F803216943EAC1031360236854
:1012980013F0080F42D063696BB3534B0122C3F8B4
:1012A800802E00F015FC05464E4B5B6F13F0020FC5
:1012B80034D100F00DFC401B0228F5D9032031E1A0
:1012C800484A136823F0F803216943EAC10313600D
:1012D800DDE7454B00221A6000F0FAFB0546414B5A
:1012E8001B6813F0020FD2D000F0F2FB401B02285B
:1012F800F5D9032016E13C4B0022C3F8802E00F0FC
:10130800E7FB0546374B5B6F13F0020F06D000F082
:10131800DFFB401B0228F5D9032003E1236813F003
:10132800040F77D02F4B1B6C13F0805F33D1002351
:1013380001932C4B1A6C42F080521A641B6C03F018
:1013480080530193019B0125284B1B6813F4807F70
:1013580023D0A368012B34D0052B38D0214B1A6F2A
:1013680022F001021A671A6F22F004021A67A368B2
:10137800002B3DD000F0ACFB06461A4B1B6F13F058
:10138800020F46D100F0A4FB801B41F2883398423B
:10139800F3D90320C6E00025D6E7144A136843F4BE
:1013A8008073136000F094FB0646104B1B6813F41F
:1013B800807FCED100F08CFB801B0228F5D903205A
:1013C800B0E0084A136F43F001031367CFE7054BFA
:1013D8001A6F42F004021A671A6F42F001021A6784
:1013E800C5E700BF003802400000474200700040D7
:1013F80000F06EFB0646524B1B6F13F0020F08D02D
:1014080000F066FB801B41F288339842F3D9032031
:1014180088E0EDB9A369002B00F08380484A926800
:1014280002F00C02082A51D0022B17D0454B00229B
:101438001A6600F04DFB0446414B1B6813F0007F11
:1014480042D000F045FB001B0228F5D9032069E0D3
:101458003B4A136C23F080531364DBE7394B0022BB
:101468001A6600F035FB0546354B1B6813F0007F04
:1014780006D000F02DFB401B0228F5D9032051E0CF
:10148800E369226A1343626A43EA8213A26A520832
:10149800013A43EA0243E26A43EA0263284A536094
:1014A800284B01221A6600F013FB0446244B1B68E4
:1014B80013F0007F06D100F00BFB001B0228F5D9C2
:1014C80003202FE000202DE000202BE0012B2BD063
:1014D8001B4B5B6803F48001E269914226D103F05B
:1014E8003F02216A8A4223D1616A47F6C0721A40D4
:1014F800B2EB811F1ED103F44031A26A5208013AAF
:10150800B1EB024F18D103F07063E26AB3EB026FDC
:1015180014D1002006E001207047012002E00120DC
:1015280000E0002002B070BD0120FBE70120F9E7D0
:101538000120F7E70120F5E70120F3E70120F1E7B3
:10154800003802400000474208B5314B9B6803F061
:101558000C03042B57D0082B57D12D4B5A6802F097
:101568003F025B6813F4800F2AD0294B5968C1F3F6
:10157800881C4FEA4C11B1EB0C006EEB0E0E4FEAD3
:101588008E1343EA90638101091A63EB0E03DB00B3
:1015980043EA5173C90011EB0C0C43F100035902E3
:1015A80000234FEA4C2041EADC51FEF709FE184BB4
:1015B8005B68C3F3014301335B00B0FBF3F025E044
:1015C800134B5968C1F3881C4FEA4C11B1EB0C005E
:1015D8006EEB0E0E4FEA8E1343EA90638101091AEF
:1015E80063EB0E03DB0043EA5173C90011EB0C0CEB
:1015F80043F10003990200234FEA8C2041EA9C51F1
:10160800FEF7DEFDD3E7034800E0034808BD00BF4E
:101618000038024000127A000024F400002800F08C
:101628009B8070B50D4604464F4B1B6803F00703BB
:101638008B4208D2CBB24C4A1370136803F00703ED
:101648008B4240F08B80236813F0020F17D013F001
:10165800040F04D0454A936843F4E0539360236829
:1016680013F0080F04D0414A936843F46043936031
:101678003E4A936823F0F003A1680B439360236804
:1016880013F0010F32D06368012B21D09A1E012A72
:1016980025D9364A126812F0020F61D033498A6898
:1016A80022F0030213438B6000F012FA06462F4B18
:1016B8009B6803F00C036268B3EB820F16D000F04E
:1016C80007FA801B41F288339842F0D9032042E0A0
:1016D800264A126812F4003FE0D101203BE0234A79
:1016E800126812F0007FD9D1012034E01E4B1B682C
:1016F80003F00703AB4207D9EAB21B4B1A701B6809
:1017080003F00703AB422DD1236813F0040F06D072
:10171800164A936823F4E053E1680B439360236807
:1017280013F0080F07D0114A936823F46043216926
:1017380043EAC1039360FFF707FF0C4B9B68C3F3B1
:1017480003130B4AD35CD8400A4B18600A4B18683D
:1017580000F072F9002070BD012070470120FAE7FF
:101768000120F8E70120F6E7003C0240003802407B
:101778001C280008080000200400002000230F2B6C
:1017880000F2E48070B582B060E085685E000324F2
:10179800B44025EA0405CC68B4402C43846045680D
:1017A80025EA02054C68C4F300129A402A434260B5
:1017B8005AE0DC08083450F8246003F0070295006A
:1017C8000F22AA4026EA020E0A69AA4042EA0E023D
:1017D80040F824205CE0072200E0002202FA0EF222
:1017E8002A4302345A4D45F824205A4A94686FEA2D
:1017F8000C0224EA0C054E6816F4801F01D04CEA4E
:101808000405544CA560E46802EA04054E6816F421
:10181800001F01D04CEA04054E4CE560646802EAFA
:1018280004054E6816F4003F01D04CEA0405494C03
:101838006560246822404D6815F4803F01D04CEA69
:101848000402444C226001330F2B7DD801229A40B8
:101858000C6804EA020C32EA0404F4D14C6804F07F
:101868000304013C012C90D94A6802F00302032AC0
:1018780009D0C4685D000322AA4024EA02048A68E9
:10188800AA402243C2604A6802F00302022A90D0AA
:1018980004684FEA430E032202FA0EF224EA020415
:1018A8004A6802F0030202FA0EF2224302604A6812
:1018B80012F4403FC7D000220192274A546C44F4E6
:1018C80080445464526C02F480420192019A9C084C
:1018D800A51C1F4A52F8255003F003024FEA820E56
:1018E8000F2202FA0EF225EA02051C4A90423FF442
:1018F80074AF02F5806290421AD002F5806290427D
:1019080018D002F58062904216D002F580629042AB
:1019180014D002F58062904212D002F580629042A3
:1019280010D002F5806290423FF455AF082255E787
:10193800012253E7022251E703224FE704224DE731
:1019480005224BE7062249E702B070BD704700BF89
:1019580000380140003C01400038024000000240CD
:10196800074AD36823F4E0631B041B0C000200F44D
:10197800E060034343F0BF6343F40033D360704730
:1019880000ED00E000B5194BDB68C3F30223C3F197
:10199800070CBCF1040F28BF4FF0040C03F1040E30
:1019A800BEF1060F18D9033B4FF0FF3E0EFA0CFCB0
:1019B80021EA0C0199400EFA03F322EA03031943C2
:1019C80000280BDB0901C9B200F1604000F5614055
:1019D80080F800135DF804FB0023E5E700F00F0032
:1019E8000901C9B2024B1954F4E700BF00ED00E049
:1019F80014ED00E0002807DB00F01F024009012376
:101A08009340024A42F82030704700BF00E100E0EE
:101A18000138B0F1807F0BD24FF0E0235861054ABE
:101A2800F02182F823100020986107221A6170477C
:101A38000120704700ED00E010B504460E4B187801
:101A48004FF47A73B3FBF0F30C4A1068B0FBF3F071
:101A5800FFF7DEFF68B90F2C01D901200AE0002248
:101A680021464FF0FF30FFF78DFF054B1C6000202B
:101A780000E0012010BD00BF000000200800002089
:101A88000400002008B50B4B1A6842F400721A6073
:101A98001A6842F480621A601A6842F480721A6006
:101AA8000320FFF75DFF0F20FFF7C6FFFEF756FF85
:101AB800002008BD003C0240034A1168034B1B7814
:101AC8000B441360704700BF900000200000002006
:101AD800014B1868704700BF9000002038B50446D5
:101AE800FFF7F6FF0546B4F1FF3F02D0044B1B7821
:101AF8001C44FFF7EDFF401BA042FAD338BD00BFDE
:101B080000000020034AD2F8883043F47003C2F87A
:101B18008830704700ED00E080ED000A90ED037A10
:101B280027EE000AF7EE007A77EEC77A90ED017A91
:101B380067EE877A30EE270A80ED020A80ED010A07
:101B48007047D0ED197A90ED027A67EE876AD0ED8A
:101B5800005A76EEA56A87EE266A37EE257AC7EE32
:101B6800265A27EE867AD0ED0A7A67EE877AD0ED84
:101B7800066A66EEA56A77EEA67A90ED057A27EEF4
:101B8800067A77EE877AC0ED0A7A704790ED047A84
:101B9800D0ED037A77EE677AF5EEC07AF1EE10FAB7
:101BA80016DDB0EE676AD0ED226AF4EEC66AF1EE91
:101BB80010FA0CDAF5EEC07AF1EE10FA0BDDFFEE52
:101BC800007A66EEA76A37EE267A80ED037A7047C8
:101BD800B1EE676AE7E702D4DFED027AF1E7F7EEE4
:101BE800007AEEE70000000090ED167AD0ED0F7A4B
:101BF800B4EEE77AF1EE10FA08DD90ED157AF4EE1E
:101C0800C77AF1EE10FA01D500234362704790EDD0
:101C1800077AD0ED137AB4EEE77AF1EE10FA01DD27
:101C2800C0ED077A90ED077AF1EE677AB4EEE77ABD
:101C3800F1EE10FA01D5C0ED077A7047D0ED0F7AB2
:101C4800F5EEC07AF1EE10FA10DDD0ED186AF4EE78
:101C5800E76AF1EE10FA18DA90ED177AB4EEE77A3F
:101C6800F1EE10FA05D50023C3617047F1EE677AEB
:101C7800EBE777EE677A37EE667AC7EE876AD0EDDC
:101C8800077A67EEA67AC0ED077A704790ED0B7A6F
:101C9800D0ED117AB4EEE77AF1EE10FA01DDC0ED7D
:101CA8000B7A90ED0B7AF1EE677AB4EEE77AF1EE03
:101CB80010FA01D5C0ED0B7A70472DE9F0410446C2
:101CC80010EE108A10EE907A11EE106A0D469022EE
:101CD800002100F08BFDC4F800806760A660A56451
:101CE800BDE8F081202915D8D9B101391F2918D8A4
:101CF800DFE801F0341E17291717172117171717D0
:101D0800171717241717171717171717171717174E
:101D18001717172C80291ED0B1F5807F02D180EDCE
:101D2800220A7047402902D180ED210A7047704786
:101D380080ED130A704780ED190A704780ED150A87
:101D4800C0ED160A704780ED110A704780ED170A3A
:101D5800C0ED180A704780ED1D0A704780ED140A1F
:101D6800704700230364C363836343630363C361EE
:101D7800836243620362C36203614361C360836138
:101D8800C367C366704710B52DED028B0446B0EEED
:101D9800608A80ED030A836C13F4807F6AD184ED36
:101DA800068AD4ED037A77EEC80AC4ED0F0AD4ED9B
:101DB800107A70EEE77AC4ED0C7AF5EEC00AF1EE0F
:101DC80010FA5ADDB0EE607AD4ED146AF4EEC76A00
:101DD800F1EE10FA78D594ED007A20EE877A84ED4A
:101DE800087A94ED077A77EE200AC4ED070AA36C07
:101DF80013F0080F44D194ED027A67EE877AC4EDA8
:101E08000A7AA36C13F0200F3ED1A36C13F0020FD3
:101E18003ED1D4ED017A94ED077A67EE877AC4ED66
:101E2800097AA36C13F0100F36D1A36C13F0800F4E
:101E380036D194ED080AD4ED097A30EE270AD4EDAC
:101E48000A7A30EE270A84ED0B0AA36C13F0400FD0
:101E58002FD1A36C13F0040F32D1A3696361E36837
:101E68002361236B6363E36B236494ED0B0ABDEC7E
:101E7800028B10BDFFF78AFE91E7B1EE607AA3E707
:101E88002046FFF75EFEBCE72046FFF7D7FEBCE71B
:101E98002046FFF7BCFEBCE72046FFF7A5FEC4E7D7
:101EA80094ED0A0A04F16800FFF736FE84ED0A0A89
:101EB800BFE704F17800FFF72FFE84ED0B0AC8E7AF
:101EC8002046FFF7E3FEC8E72046FFF74AFFC4E7CE
:101ED80008B5FFF758FFBDEEC00A10EE103A18B269
:101EE80008BD000030B58BB0012508950023069386
:101EF8000795009301930293039309930593049321
:101F08002B4C69462046FEF7EBFD2046FEF784FE83
:101F180002212046FEF7D8FF29462046FEF7D4FFC7
:101F28004FF400412046FEF7CFFF4FF48071204662
:101F3800FEF7CAFF4FF480612046FEF7C5FF4FF455
:101F480000712046FEF7C0FF4FF400612046FEF7FF
:101F5800BBFF0E2309930593164C69462046FEF7EE
:101F6800BFFD2046FEF758FE02212046FEF7ACFFD3
:101F780029462046FEF7A8FF4FF400412046FEF709
:101F8800A3FF4FF480712046FEF79EFF4FF4806157
:101F98002046FEF799FF4FF400712046FEF794FFA4
:101FA8004FF400612046FEF78FFF0BB030BD00BF35
:101FB8004000002068000020012818D000200129D6
:101FC80017D00E49095C142916D010B40C4C00EB3C
:101FD800800C01EB8C0C44F83C2004EBCC046360CF
:101FE8000131064B195401205DF8044B704702205B
:101FF800E5E70130C0B2E4E7002070471403002091
:102008009400002070B58AB0044601AB03AA0021F1
:10201800FEF7A5FE002837D105461C4B9C4205D08B
:10202800059B042B04D0039E002408E00225F7E753
:10203800049E0135EDB2F7E7B24219D001342B46C0
:10204800134A525DA2421FDD05EB850204EB8202B2
:10205800104951F83220002AEED103EB830304EB38
:10206800830301EBC3035B6801A903A89847E5E76D
:1020780003EB830304EB8303064A02EBC3035B68A9
:1020880001A903A89847D9E70AB070BD68000020E5
:10209800140300209400002008B54422002100F019
:1020A800A5FB08BD38B52DED028B04460D4608EE9C
:1020B800102AFFF7F1FFB8EE488A84ED028A84F807
:1020C8003250002384F8343084F83330012D1BD08B
:1020D800022D03D06DB1BDEC028B38BD4FF4005317
:1020E80023862423E3860A2323874FF48073638798
:1020F800F1E74FF4005323861323E3860A2323874B
:102108004FF480736387E6E74FF400532386012377
:10211800E386E0E7034691F83220022A1AD891F8BC
:102128003300D0B1B1F938209A4209DACB6B0133C8
:10213800CB63CA6BB1F93A309A420DDD0120704782
:102148005242934203DACB6B0133CB63F1E70023AE
:10215800CB63EEE7002070470020704701EBD17297
:1021680052105342984202DA0844431E18B282427F
:1021780002DA401A013000B270470000F0B583B0AF
:102188000646144690851185B2F9365091FBF5F351
:1021980007EE903AF8EEE77A9FED317A67EE877AA4
:1021A80077EEA77A92ED026AF2EE046A86EE267A54
:1021B80067EE877ADFED2B6A87EEA67A82ED047ADE
:1021C8008BB2D28C9B1A6385E184D4ED037A77EEC7
:1021D800677AC4ED057A84ED037A94F8243023B93C
:1021E800012384F82430E0856060B0B2E38DC01A22
:1021F800B4F93070394600B2FFF7B0FF0190019B87
:10220800226813442360019A61680A446260E68583
:1022180007EE902AB8EEE77A07FB05F507EE905A25
:10222800F8EEE77AC7EE276A9FED0F6A26EE867A00
:1022380084ED077A07EE103AB8EEC77AC7EE276A38
:1022480066EE867AC4ED087A0198214600B2FFF757
:1022580061FF84F834000023019303B0F0BD00BF90
:10226800D00F4940000070420000B443037B0BB11B
:10227800B1EE400A90F88431012B02D080ED620A59
:10228800704780ED630A704705287CD810B505288B
:1022980063D8DFE800F00346543F4D5B3A4B40F209
:1022A800FF121A60394C3A4B374A00219160D160CD
:1022B800082111611A68002A51D0364992F9012083
:1022C8000A701A68B2F900204A705A68002A4BD07E
:1022D800304992F901008870B2F90020CA709A68F2
:1022E800002A46D02B4992F901000871B2F9002062
:1022F8004A71DB68002B41D0264A93F9011091718D
:10230800B3F90030D371244B224A1F492046FEF707
:10231800B1FC10BD1C4B40F2FF121A601F4C204B41
:10232800C2E7194B4FF400721A60184C1D4BBBE7FB
:10233800154B4FF400721A60184C1B4BB4E7124B44
:1023480040F2FF221A60114C184BADE70E4B40F2D9
:10235800FF221A60114C164BA6E70023A4E70D4A8A
:10236800002151701170B0E70A4A0021D1709170B4
:10237800B5E7084A002151711171BAE7054B0022EF
:10238800DA719A71BFE77047581C0020400000209E
:102398007C1C0020741C0020DC1C0020680000202D
:1023A800AC1C00208C1C0020BC1C00209C1C0020A5
:1023B800CC1C002008B5034681680D4A914209D01B
:1023C80001201A79042A0AD95B7B012B04D0013831
:1023D800C0B207E00420F4E70230C0B202E05B7B41
:1023E800012B02D0FFF750FF08BD0238C0B2F9E751
:1023F8006800002010B504460A784B7843EA0223A7
:1024080083828A78CB7843EA0223C382437B022BF8
:1024180012D00A794B7943EA022303838B79237715
:10242800236903B1984704F12002B4F91610B4F9EE
:102438001400FFF7A3FE10BD0A794B7943EA022383
:102448004383EBE708B50B68B3F5027F1AD8B3F5F9
:10245800017F2FD8A3F20121032912D82B49401A52
:1024680018BF0120A3F201234FF44A6101FB00F0D9
:102478004FF4CA7101FB03001146254B1844FFF7BE
:10248800B9FF08BDA3F209210229FAD81F49401A49
:1024980018BF0120A3F205234FF44A6101FB00F0A5
:1024A8004FF4CA7101FB03001146194B1844FFF79A
:1024B800A1FFE6E71549401A18BF0120A3F2052C31
:1024C800144901EB800111F80C1001290FD0A3F277
:1024D80001234FF44A6101FB00F04FF4CA7101FB7C
:1024E800030011460A4B1844FFF784FFC9E74FF46D
:1024F8004A6303FB00F04FF4CA7303FB0C00114658
:10250800034B1844FFF776FFBBE700BF40000020ED
:10251800180300200C00002008B50A4601460248AE
:10252800FFF790FF08BD00BF4000002008B50A462D
:1025380001460248FFF786FF08BD00BF680000207B
:1025480008B5064B002211461046FFF735FD044B2F
:10255800002211460120FFF72FFD08BD21250008A4
:10256800352500082DE9F04706460D4691461C46DC
:10257800714B1B78002B58D0731EDBB2012B00F275
:10258800D2806B1EDBB2072B00F2CF80012C53D018
:10259800012C10D0042D0ED9711E18BF01216A1FFD
:1025A800664B03EB81039B5C032B40F0C280634BBB
:1025B80003EB81039C54B6F1010818BF4FF00108E2
:1025C80005F1FF3A4FF4CA724FF44A6707FB08F760
:1025D80002FB0A775A4B1F440021384600F006F9DF
:1025E800012C3AD0022C6BD0002C69D0012E00F0BF
:1025F8009880544A52484FF44A6303FB08F84FF452
:10260800CA7303FB0A8800EB08039A601D7183F8FC
:102618000C905C7308F12008BDF820202146404446
:10262800FFF740FD3846BDE8F087FFF789FF424ACB
:102638001378013313709FE7042DA9D8711E18BFB2
:1026480001216A1E3D4B03EB81039B5C032B6ED17A
:102658003A4B03EB81039C549AE7042D17D8012EBB
:1026680013D003224FF44A6303FB08F34FF4CA71F3
:1026780001FB0A3303F5C87331490B4402330AEBF3
:102688008202314941F82230B0E70022EAE7012E00
:1026980014D005216A1F4FF44A6303FB08F34FF473
:1026A800CA7000FB0A3303F5C87325480344023394
:1026B80002EB8101244A42F8213097E70221E9E739
:1026C800042D16D8012E12D004224FF44A6303FBBE
:1026D80008F34FF4CA7101FB0A3303F5C8731849AC
:1026E8000B440AEB8202184941F822307EE70122A6
:1026F800EBE7012E13D003216A1F4FF44A6303FB53
:1027080008F34FF4CA7000FB0A3303F5C8730C488A
:10271800034402EB81020C4941F8223066E70021AC
:10272800EAE70A4A66E700277CE700277AE70027F6
:1027380078E7002776E700BF701C00200C00002017
:1027480018030020680000207C1C002040000020A6
:10275800DFF834D0FFF7D6F90C480D490D4A0023AD
:1027680002E0D458C4500433C4188C42F9D30A4A3E
:102778000A4C002301E013600432A242FBD300F0AC
:1027880011F8FDF79DFF70470000022000000020AF
:10279800140000203C28000814000020E01C002041
:1027A800FEE7000070B50D4D0D4C641BA41000260B
:1027B800A64209D10B4D0C4C00F020F8641BA41064
:1027C8000026A64205D170BD55F8043B984701364E
:1027D800EEE755F8043B98470136F2E7342800083D
:1027E8003428000834280008382800080244034622
:1027F800934200D1704703F8011BF9E7F8B500BF11
:10280800F8BC08BC9E467047F8B500BFF8BC08BCC9
:042818009E46704721
:10281C000000000000000000010203040607080984
:08282C00CCD9FF7F0100000080
:04283400AD010008EA
:04283800890100080A
:10283C0001000000100000000024F4000303030357
:04284C00030303037C
:04000005080027596F
:00000001FF
