:020000040800F2
:1000000068B2002061020008E5630008875A000812
:10001000015F0008110C0008BD92000800000000FC
:10002000000000000000000000000000A101000826
:100030004123000800000000FD010008F17B0008DA
:100040007B0200087B0200087B0200087B0200089C
:100050007B0200087B0200087B0200087B0200088C
:100060007B0200087B0200087B0200087B0200087C
:100070002D2000087B0200087B0200087B0200089C
:100080003D2000084D2000087B0200087B0200088C
:10009000150C00087B0200087B0200087B020008A8
:1000A0007B020008ED7C00087B0200087B02000850
:1000B0007B0200087B0200087B0200087B0200082C
:1000C0007B0200087B0200087B0200087B0200081C
:1000D0007B0200087B020008A98B0008BD8B00088A
:1000E0007B0200087B0200087B0200087B020008FC
:1000F0007B0200087B0200087B0200087B020008EC
:100100007B0200087B0200087B0200087B020008DB
:100110007B0200087B0200087B0200087B020008CB
:100120007B0200087B0200085D2000086D200008AB
:100130007B0200087B0200087B0200087B020008AB
:10014000250C00087B0200087B0200087B020008E7
:100150007B0200087B0200087B0200087B0200088B
:100160007B0200087B0200087B0200087B0200087B
:100170007B0200087B0200087B02000800000000F0
:100180007B0200087B020008DFF810D000F038FC8A
:100190000048004739A30008AFF3008068B2002090
:1001A0002C4B19680868B0E8F04F80F30988BFF35A
:1001B0006F8F4FF0000080F311887047000000003F
:1001C00008480068006880F308884FF0000080F35A
:1001D000148862B661B6BFF34F8FBFF36F8F00DF35
:1001E00000BF00BF08ED00E0DFF80C00016841F43B
:1001F00070010160704700BF88ED00E0EFF30980F7
:10020000BFF36F8F134B1A681EF0100F08BF20ED5D
:10021000108A20E9F04F106009B44FF0500080F3CD
:100220001188BFF34F8FBFF36F8F0BF089F84FF03A
:10023000000080F3118809BC19680868B0E8F04F25
:100240001EF0100F08BFB0EC108A80F30988BFF3CE
:100250006F8F70471C000020EFF30580704700008F
:100260000648804706480047FEE7FEE7FEE7FEE750
:10027000FEE7FEE7FEE7FEE7FEE7FEE7D97C0008C3
:10028000890100082DE9F05F0546002092469B4653
:1002900088460646814640241BE02846414647469C
:1002A000224600F075FA53465A46C01A914110D3BF
:1002B00011461846224600F05CFA2D1A67EB010839
:1002C0004F4622460120002100F053FA17EB0009A7
:1002D0004E41201EA4F10104DFDC484631462A4687
:1002E0004346BDE8F09F40EA01039B0703D009E0C5
:1002F00008C9121F08C0042AFAD203E011F8013B12
:1003000000F8013B521EF9D27047D2B201E000F86A
:10031000012B491EFBD270470022F6E710B51346A9
:100320000A4604461946FFF7F0FF204610BD421C5E
:1003300010F8011B0029FBD1801A704710B500226C
:1003400000E0521C835C8C5CA34201D1002BF8D1ED
:10035000D8B2E1B2401A10BD034611F8012B00F8E3
:10036000012B002AF9D1184670472DE9FE4F80462F
:1003700081EA0300C00F0C46009021F0004123F0F9
:100380000045B8EB0200A94105D2404621469046FF
:100390001C460B46024623F00040104347D0270D71
:1003A000C7F30A00C3F30A510290401A0190402893
:1003B0006BDAC3F3130040F4801B0098924620B11F
:1003C0000023D2EB030A63EB0B0B01985946C0F1F3
:1003D0004002504600F0CDF906460D4650465946BB
:1003E000019A00F0E5F910EB08006141002487EA6A
:1003F000115284EAE7731A4340D0009A62B3019A1B
:10040000012A4FEA075215DC001B61EB02014FF095
:10041000004202EA0752CDE90042001C41F580117A
:1004200032462B4600F01CFA03B0BDE8F08F404680
:100430002146F9E7001B61EB0201001C41F5801326
:1004400000185B412018A2F5001747EB030140EAB2
:10045000D570B6196D4111E06D084FEA360645EAD0
:10046000C0754FEA0752001B61EB0201001C41F509
:10047000801149084FEA30000019514132462B469D
:1004800003B0BDE8F04F00F0DCB900980122400055
:100490000023D0EB020263EBE073009821464FEAA1
:1004A000E074B8EB000061EB0401E9E783F000437E
:1004B0005BE781F0004158E72DE9FE4F81EA030434
:1004C00004F0004421F0004100944FF0000B23F0B1
:1004D000004350EA01045ED052EA03045BD0C3F348
:1004E0000A54C1F30A552C44A4F2F3340194A0FB3E
:1004F0000254C1F3130141F48011C3F3130343F415
:10050000801301FB024400FB034E840A970A44EA6D
:10051000815447EA8357A4FB076802958D0A05FBBF
:1005200007854FEA932C04FB0C542705029D4FEAE4
:10053000065847EA1637B5EB08056EEB070C870E31
:10054000920E47EA811742EA8312A7FB0201B6EB3B
:100550000B0164EB00042B0D43EA0C335E1844EBF3
:100560001C50DA465146E7FB0201C5F313044FEA7B
:100570000B3343EA14534FEA0432019C43EA060367
:10058000A4F10C040294009CCDE900B400F068F9D9
:1005900003B0BDE8F08F00200146F9E72DE9F04DEA
:1005A00081EA030404F0004B21F0004514464FF0AB
:1005B000000A23F0004150EA050220D054EA01026B
:1005C0001DD0C5F30A570246C5F31303C1F3130048
:1005D000C1F30A5640F4801543F48013A7EB0608D4
:1005E000101BD64608F2FD3873EB050002D308F164
:1005F000010801E092185B41B8F1000F03DA002016
:100600000146BDE8F08D00204FF480110646844677
:100610000EE0171B73EB050705D3121B63EB0503F5
:1006200006434CEA010C49084FEA300092185B413E
:1006300050EA0107EDD152EA030012D082EA040029
:1006400083EA0501084305D0101BAB4106D2012205
:10065000002306E000224FF0004302E06FF00102A9
:1006600053101AEB06004CEB085110EB0A0041EB5B
:100670000B01BDE8F04D00F0E4B8F0B4CA17CB0FA1
:1006800050405140C61841F100054FEAC37231464F
:1006900028004FF0960303D0B623F0BC00F0A3B8B7
:1006A00030460021F9E710B500F0004420F000408A
:1006B000C20DC0F3160040F400007F2A02DA0020C9
:1006C000014610BD0021962A03DCC2F19602D040FB
:1006D00002E0963A00F04DF8002CF2D00023D0EB67
:1006E000030063EB010110BD00F0004230F0004058
:1006F0000AD0C10D01F56071C0F3160042EA015144
:10070000C20840071143704700200146704701F0BE
:10071000004330B421F0004150EA010206D00A0D36
:10072000A2F56072C1F31301002A02DC30BC002084
:100730007047440F44EAC104C100E01830BC00EB2C
:10074000C25000F047B830B50B46014600202022C9
:10075000012409E021FA02F59D4205D303FA02F5CE
:10076000491B04FA02F52844151EA2F10102F1DC2E
:1007700030BD202A04DB203A00FA02F10020704745
:100780009140C2F1200320FA03F3194390407047CF
:10079000202A04DB203A21FA02F00021704721FAD6
:1007A00002F3D040C2F1200291400843194670473D
:1007B000202A06DBCB17203A41FA02F043EAE07325
:1007C00006E041FA02F3D040C2F120029140084312
:1007D000194670470029A8BF7047401C490008BF50
:1007E00020F00100704710B4B0FA80FC00FA0CF061
:1007F00050EA010404BF10BC704749B1CCF1200499
:1008000021FA04F411FA0CF118BF01212143084325
:10081000A3EB0C01CB1D4FEA00614FEA102042BF51
:10082000002010BC704700EBC35010440029A4BF47
:1008300010BC7047401C490008BF20F0010010BCEC
:10084000704710B5141E73F1000408DA401C41F122
:10085000000192185B411A4301D120F0010010BD44
:100860002DE9F04D92469B4611B1B1FA81F202E0BA
:10087000B0FA80F220329046FFF77BFF04460F4625
:1008800040EA0A0041EA0B0153465A46084313D096
:10089000114653EA010019D0C8F140025046FFF753
:1008A00077FF05460E46504659464246FFF761FF20
:1008B000084305D0012004E020463946BDE8F08D0C
:1008C0000020054346EAE0762C4337430A98630547
:1008D000E40AA0EB08000022FD0A44EA47540A306B
:1008E00002D500200146E9E7010510196941DDE95B
:1008F000084500196941BDE8F04DA2E72DE9F04D2A
:1009000000231A461B1A8A4103DB00200146BDE87A
:10091000F08DC1F30A52C1F3130141F480154FF079
:10092000000BD10702D100186D41521E002704466A
:1009300040F2FF11384601EB620A3E46804602460D
:1009400000204FF48011FFF723FFC2197141BB183B
:1009500046EB0100B4EB030C75EB000C04D3E41A76
:1009600065EB000517460E46241908F101006D419C
:1009700080463428E3DDF91946EB0600091BA8413F
:1009800003D24FF0FF32134601E0002213461BEB67
:10099000070046EB0A51BDE8F04DFFF752BFC1F327
:1009A0000A52C1F3130140F2FF3341F480119A421D
:1009B00002DA00200146704740F233439A42A2F225
:1009C000334202DC5242FFF7E3BEFFF7D2BE000023
:1009D00030B5041E71F1000404DB4FF000444042C6
:1009E00064EB0101141E73F1000405DB1C464FF09B
:1009F0000043524263EB0403994208BF904230BD6A
:100A0000064C074D06E0E06840F0010394E807005B
:100A100098471034AC42F6D3FFF7BAFBF0CA00088F
:100A200010CB000870B58C1810F8015B15F00703A7
:100A300001D110F8013B2A1106D110F8012B03E077
:100A400010F8016B01F8016B5B1EF9D12B0705D47F
:100A50000023521E0DD401F8013BFAE710F8013BC8
:100A6000CB1A921C03E013F8015B01F8015B521EE4
:100A7000F9D5A142D8D3002070BD000070B505465D
:100A80000C4600260DB1022C00D870BDA11E0648F0
:100A90000288284602F06EFB0646A01E2E54310A3C
:100AA000601E295400BFF0E7720200202DE9F04FCC
:100AB00009AC94E8F010DDE90E894FF0000A07E078
:100AC00011F80AB0CAF1020E00F80EB00AF1010ADC
:100AD000BAF1030F04DA11F80AB0BBF1000FEFD13D
:100AE00090F803B02BF0380B0BF1200B80F803B01B
:100AF00090F803B062F3020B80F803B0B0F803B0D3
:100B000063F3891BA0F803B090F804B064F3850B7D
:100B100080F804B0B0F807B067F3090BA0F807B08D
:100B2000B0F808B06CF38C0BA0F808B0B0F809B0BE
:100B300068F34F1BA0F809B0B0F804B065F38E1B42
:100B4000A0F804B0B0F805B066F3CF1BA0F805B06C
:100B5000B0F80CB069F38C0BA0F80CB0B0F80DE055
:100B6000DDF840B06BF34F1EA0F80DE0BDE8F08F4C
:100B700070B504460D4661190F2204F58070FFF729
:100B8000B2FB0F2104F5807008F09AFB01280ED10A
:100B9000D4F8072104F2AF10C4F8AF21B4F80B1158
:100BA000A4F8B311002140F2B510015503E0012172
:100BB00040F2B510015570BD024691F8310003288E
:100BC00002DA91F8320008B900207047B1F9360016
:100BD000904205DAD1F83A00401CC1F83A000DE025
:100BE000B1F936004042904205DDD1F83A00401C90
:100BF000C1F83A0002E00020C1F83A00D1F83A000A
:100C0000B1F93830984201DD0120DEE70020DCE751
:100C100000BFFEE710B5024802F022FD10BD000043
:100C20001805002010B5024802F01AFD10BD0000A2
:100C30004005002078B506460D461446A4F82B6002
:100C400004F12500A4F82750B4F9340095FBF0F026
:100C500000EE100AB8EEC00ADFED460A20EE200AC8
:100C6000F0EE000A60EE200AA06800EE100AB2EE74
:100C7000041AC0EE011A60EEA10A9FED3F1A80EE41
:100C8000810A10EE100A2061B4F82700B4F825108C
:100C9000401A00B2A4F82900B4F82700A4F82500EF
:100CA000206900EE100AE06800EE900A30EE600A5B
:100CB00010EE100A60612069E06094F8240048B9E1
:100CC0000120641DE077E08C2085B4F9260044F80B
:100CD000010C641FB4F82B20B4F82D30D21A10B2D6
:100CE000B4F92F1008F0F0FF009020680099084434
:100CF00020606068009908446060B4F82B00A4F894
:100D00002D00A08EB4F82F1010FB01F000EE100A99
:100D1000F8EEC00A606800EE100AB8EEC01A81EE64
:100D2000200ADFED160A20EE200A10EE100AE0611C
:100D3000A08EB4F82F1010FB01F000EE100AF8EEB0
:100D4000C00A206800EE100AB8EEC01A81EE200A30
:100D5000DFED0A0A20EE200A10EE100A206221467A
:100D6000009800B2FFF728FF84F8330000200090BD
:100D700078BD0000D00F4940000070420000B4432D
:100D8000F0B589B007460C4615461E4640F2FF10E6
:100D9000039000200590069008200790380A8DF8EF
:100DA0000400F8B28DF80500200A8DF80600E0B2C4
:100DB0008DF80700280A8DF80800E8B28DF80900C0
:100DC000300A8DF80A00F0B28DF80B006B4601AACC
:100DD00003A9024802F049FA09B0F0BD1805002045
:100DE00070B504460D466119182204F58070FFF7AE
:100DF0007AFA182104F5807008F062FA01280BD104
:100E00000F2204F2071104F2CB10FFF76CFA002155
:100E10004FF4ED70015503E001214FF4ED700155E1
:100E200070BD70B504460D466119132204F580703B
:100E3000FFF759FA132104F5807008F041FA0128F0
:100E400012D1D4F8072104F2DB10C4F8DB21D4F866
:100E50000B21C4F8DF21B4F80F11A4F8E31100212D
:100E600040F2E510015503E0012140F2E510015583
:100E700070BD000008B51C213D48FFF74DFA002069
:100E80003B493839887081F8340005F031FE384923
:100E90003839086300200870012081F82D0002F025
:100EA000CBF93449086009F0BFF933490860334B86
:100EB00040F202420021012001F036FF304B40F2A7
:100EC00003420021012001F02FFF2E4B40F205428A
:100ED0000021012001F028FF2B4B40F206420021A7
:100EE000012001F021FF294B40F20742002101209F
:100EF00001F01AFF4FF47A7001231A461946009048
:100F0000022000F097FE2249086007219FED211A78
:100F1000DFED200AB1EE060A1F4805F0DDFCDFED2B
:100F20001D0A9FED1E0A04211B4805F0F4FCDFEDAD
:100F3000190A9FED1B0A0221174805F0ECFCDFEDB2
:100F4000150A184890ED000A0121134805F0E3FC4A
:100F5000154809F067FA154809F064FA144801F0D9
:100F6000F1F9144B144A3C2114A006F06FFB08BDA4
:100F7000E045002090000020940000209522000809
:100F8000D1220008F1210008552200083D22000866
:100F90008800002000000000FC45002000002544DF
:100FA00000009643A00000208C460020A0460020B0
:100FB000E1230008C1230008512300086472313680
:100FC000000000001B488068B0F91E001E2808DBE6
:100FD000184840688078012801D1A0207047782007
:100FE000FCE714488068B0F91E00142808DB11489B
:100FF0008068B0F91E001E2802DA0F480078EDE77D
:101000000C488068B0F91E0014280EDA0948806880
:10101000B0F91E00002808DB06488068807F06497A
:10102000097808441438C0B2D8E703480078143867
:10103000C0B2D3E7F86000201E010020114880688C
:10104000B0F9120000EE900AF8EEE00A9FED0E1AD9
:10105000C0EE811AB0EE610AF2EE080A30EE601AB4
:10106000F2EE081AC1EE210A9FED071A60EE810A1E
:10107000FDEEE00A10EE900A00B202498968C883CA
:1010800070470000F86000200000C842C16B00EE0D
:10109000101AB5EEC00AF1EE10FA03DDC16B00EED6
:1010A000101A04E0C16B00EE101AB1EE400A016E96
:1010B00000EE901AB4EEE00AF1EE10FA00D8704794
:1010C000C16B00EE101AB5EEC00AF1EE10FA03DDA6
:1010D000C16B00EE101A04E0C16B00EE101AB1EE05
:1010E000400AC16D00EE901AB4EEE00AF1EE10FA7B
:1010F00005DD9FED180A10EE101AC16127E0C16DE1
:1011000000EE901AC16B00EE101AB5EEC00AF1EEB7
:1011100010FA03DDC16B00EE101A04E0C16B00EEA3
:10112000101AB1EE400A30EEC01AC16D00EE101A6E
:10113000016E00EE901A30EE600AC1EE000AC1693D
:1011400000EE101A20EE800A10EE101AC16100BFE6
:10115000B5E70000000000002DE9F05F04460E46F0
:1011600017469846DDE90BABDDF82890002504E032
:10117000705DC5F1020160546D1C032D02DA705DD3
:101180000028F5D114F8030F20F038003830207013
:10119000207867F302002070208868F3891020808F
:1011A000607869F385006070A0886AF30900A08008
:1011B000B4F805100D9860F38C01A4F80510E188CF
:1011C0000E9860F34F11E180B4F801006BF38E10BC
:1011D000A4F801000F98FFF7AAF8618860F3CF1117
:1011E0006180E41E04F10F000F99FFF7B5F8BDE828
:1011F000F09F000008B509F003F8AF49486002F01D
:101200001BF8AD49086009F013F8AB498860B220BB
:1012100000231A4605210090012000F00BFDA6498D
:1012200008623321A448006AA0F84E10B2200023BF
:10123000012204210090104600F0FCFC9E49086148
:10124000B2200023012202210090104600F0F2FC9F
:1012500099494861B22000231A46032100900120D9
:1012600000F0E8FC94498861B22000231A4601216D
:101270000090084600F0DEFC8F49C861096A01F160
:101280005C0004219FED8D1ADFED8C0AB7EE000A99
:1012900005F022FB8849C96901F15C004FF48271B5
:1012A000B6EE001ADFED850AB2EE0E0A05F014FB69
:1012B0008149096901F15C004FF48271B6EE001AB0
:1012C000DFED7E0AB2EE0E0A05F006FB7A49896967
:1012D00001F15C004FF48271B6EE001ADFED770A7F
:1012E000B2EE0E0A05F0F8FA7349496901F15C00A3
:1012F0004FF48271B6EE001ADFED700AB2EE0E0AFC
:1013000005F0EAFA6C49096A01F15C00DFED6B0A4D
:101310009FED6B0A042105F0FEFA6749C96901F1E6
:101320005C00DFED660A9FED660A042105F0F3FA22
:101330006149096901F15C00DFED600A9FED600A17
:10134000042105F0E8FA5C49896901F15C00DFEDF0
:101350005B0A9FED5B0A042105F0DDFA56494969F5
:1013600001F15C00DFED550A9FED550A042105F0FF
:10137000D2FA5149C96901F15C00DFED500AB2EEC1
:10138000080A4FF4807105F0C6FA4B49096901F16A
:101390005C00DFED4A0AB2EE080A4FF4807105F0F6
:1013A000BAFA4549896901F15C00DFED440AB2EE01
:1013B000080A4FF4807105F0AEFA3F49496901F11E
:1013C0005C00DFED3E0AB2EE080A4FF4807105F0D2
:1013D000A2FA3949096A01F1EC0006219FED391A98
:1013E000DFED390A9FED390A05F076FA3249C9690D
:1013F00001F1EC0000219FED311ADFED300A9FED85
:10140000340A05F069FA2C49096901F1EC00002160
:101410009FED2A1ADFED290A9FED2D0A05F05CFAEF
:101420002549896901F1EC0000219FED241ADFEDC7
:10143000230A9FED270A05F04FFA1F49496901F178
:10144000EC0000219FED1D1ADFED1C0A9FED200A24
:1014500005F042FA1849096A01F1EC00DFED170ABC
:101460009FED1C0A042105F056FA1349096A01F19F
:10147000EC00DFED120A9FED180A022105F04BFA8D
:10148000164B40F212620021084601F04DFC01218A
:10149000022009F071F801214FF4166009F0DEF81E
:1014A000012140F2EE2009F08DF8012141F2563081
:1014B00009F0AEF808BD0000F86000200000000050
:1014C00000606A460000C8429A99993ECDCC4C3FD4
:1014D000CDCC4C3D00007A4600001643A97B0008A5
:1014E00010B59E484068407810B101209C490870B2
:1014F0009A4840684078002873D19848C069B0F98C
:1015000012000A2801DA012000E00020002809DD8D
:101510009248C069B0F912000A2801DA01200BE0F4
:10152000002009E08D48C069B0F912000A2801DAEC
:10153000012000E000204042002863D08748006975
:10154000B0F912000A2801DA012000E0002000288A
:1015500009DD82480069B0F912000A2801DA012089
:101560000BE0002009E07D480069B0F912000A286C
:1015700001DA012000E00020404290B37748806902
:10158000B0F912000A2801DA012000E0002000284A
:1015900009DD72488069B0F912000A2801DA0120D9
:1015A0000BE0002009E06D488069B0F912000A28BC
:1015B00001DA012000E00020404290B16748406914
:1015C000B0F912000A2801DA012000E0002000280A
:1015D0000ADD62484069B0F912000A2802DA0120E7
:1015E0000CE00FE0002009E05C484069B0F912000F
:1015F0000A2801DA012000E00020404210B100205A
:101600005749087056480078D8B3012055490870EA
:101610005249096981F87C015049496981F87C0186
:101620004E49896981F87C014C49C96981F87C017E
:101630004A494968D1ED070AB0EE600A474908698E
:1016400000F0D6FC45494968D1ED080AB0EE600AC1
:101650004249486900F0CCFC40494968D1ED090A8B
:10166000B0EE600A3D49886900F0C2FC3B49496818
:10167000D1ED0A0AB0EE600A3849C86900F0B8FC3A
:101680006AE0FFE737480078E8B300203549087082
:101690003249096981F87C013049496981F87C0146
:1016A0002E49896981F87C012C49C96981F87C013E
:1016B0002A490969D1F81A10494200EE901AF8EE49
:1016C000E00AB0EE600A2549086900F091FC234960
:1016D0004969D1F81A10494200EE901AF8EEE00A72
:1016E000B0EE600A1D49486900F082FC1B49896917
:1016F000D1F81A1000EE901AF8EEE00AB0EE600A87
:101700001649886900E027E000F072FC1349C969B6
:10171000D1F81A1000EE901AF8EEE00AB0EE600A66
:101720000E49C86900F064FC0C49096901F1EC003C
:1017300008F0FAFE0949496901F1EC0008F0F4FEED
:101740000649896901F1EC0008F0EEFE0349C96918
:1017500001F1EC0008F0E8FE10BD0000F860002088
:101760002501002026010020FFF744FD4FF4FA7008
:1017700009F0DEFC6BE009F02DFC35480068B0F89C
:101780007F0128B13248006890F87F013149087024
:1017900031480088401C30490880084600880A21EA
:1017A00090FBF1F201FB120008B905F003FC2A4896
:1017B0000088642831DD26480068B0F88B0100EE0F
:1017C000100AB8EE400AF2EE040A30EE600AB2EEF9
:1017D000041AC0EE010A1F48007800EE100AB8EEA5
:1017E000400A30EE800A1D4880ED000A014691ED66
:1017F000000ADFED1B0A20EE200ABCEEC00A10EE44
:10180000101A88B2002108F003FF01211548007862
:1018100008F0B2FE00201049088000F049F8FFF7F8
:101820005FFE04F035FEFFF709FCFFF7CBFB08492C
:101830000873087B06F0AEFB00F016F805F03AFFDF
:1018400005F0C8FF09F0F0FB012009F071FC92E7F8
:10185000F86000201E0100201C0100202001002053
:101860000000C8422401002010B50F49096AB1F9EF
:10187000900100231A461946FFF782FA0B480088A8
:10188000401C00B2094908800846B0F9000002284F
:1018900000DA10BD0020054908800349086900F0FE
:1018A000F1FA00BFF5E70000F860002028010020F1
:1018B00010B515480068B0F910401448B0F90000A0
:1018C000201A00EE100AB8EEC00ADFED110A20EE71
:1018D000200ADFED100A80EE201A0F4880ED011A71
:1018E000D0ED010AB0EE600A9FED0C1ADFED0C0A94
:1018F00008F0F2FC084880ED010A04F003FB05F053
:10190000B9FF06F009F910BD88000020A6000020EC
:101910000000B44300000046A84500200000344306
:10192000000034C32DE9F0470C4608AD95E8E010FF
:10193000DDF83080002106E014F80190C1F1020AC0
:1019400000F80A90491C032904DA14F80190B9F14F
:10195000000FF1D190F8039029F0380909F110092E
:1019600080F8039090F8039062F3020980F80390E6
:10197000B0F8039063F38919A0F8039090F80490ED
:1019800065F3850980F80490B0F8079066F30909BB
:10199000A0F80790B0F8089067F38C09A0F80890B9
:1019A000B0F809906CF34F19A0F80990B0F80B90BB
:1019B00068F30909A0F80B90BDE8F08770B50446FC
:1019C0000D4661190F2204F58070FEF78CFC0F2183
:1019D00004F5807007F074FC01280ED1D4F80721BB
:1019E00004F2BB10C4F8BB21B4F80B11A4F8BF116A
:1019F000002140F2C110015503E0012140F2C11065
:101A0000015570BD70B504460D4661190A68C4F8E9
:101A100000214A68C4F804218968C4F808110C211F
:101A200004F5807007F04CFC01280DD140F209113B
:101A3000B4F8072140F27310A4F87121095D015533
:101A40000021401C015503E001214FF4BA700155FB
:101A500070BD000010B5064B00221146104601F083
:101A600063F9044B00221146012001F05DF910BD1D
:101A7000A91B0008C11B000870B505460C46164698
:101A80002068A0F201200B2823D2DFE800F006072F
:101A9000080923242526696A6B0000BF00BF00BF28
:101AA0003E498D4201D0012100E0002101EB0111EE
:101AB00001EB41013A4A02EB81122168A1F20121B6
:101AC00001EB011101EB410102EBC100314600F0D5
:101AD00083F861E000BF00BF00BF3048854201D0FD
:101AE000012000E000202F4901EB80012068A0F2D6
:101AF0000520085C012819D128498D4201D0012117
:101B000000E0002101EB011101EB4101244A02EB4D
:101B100081122168A1F2052101EB011101EB4101C4
:101B200002EBC100314600F057F818E01B498D4226
:101B300001D0012100E0002101EB011101EB410185
:101B4000174A02EB81122168A1F2012101EB011178
:101B500001EB410102EBC100314600F03DF81BE012
:101B600000BF00BF0D498D4201D0012100E00021DE
:101B700001EB011101EB4101094A02EB81122168DD
:101B8000A1F2052101EB011101EB410102EBC100C2
:101B9000314600F021F800BF00BF70BD18050020DD
:101BA000F8460020E400002070B504460D462A46A1
:101BB00021460248FFF760FF70BD000018050020B5
:101BC00070B504460D462A4621460248FFF754FFE9
:101BD00070BD00004005002070B504460D466878D1
:101BE000297840EA012000B22082E878A97840EA0A
:101BF000012001B26182607A022806D168792979D0
:101C000040EA012001B2E18205E06879297940EAE1
:101C1000012001B2A182A9792176E06808B1E068CB
:101C20008047B4F91210B4F9100004F11A02FFF75A
:101C300001F870BD2DE9F04705460C4690461F4659
:101C4000DDF820906048007830B9FFF703FF5E4868
:101C50000078401C5C490870012D04D0022D02D090
:101C60000020BDE8F087082C01DC012C01DA0020FF
:101C7000F7E7012F19D1042C17DC012D01D0012029
:101C800000E00020514901EB8001601E085C032840
:101C900001D00020E5E7012D01D0012000E0002067
:101CA0004A4901EB8001601E0F54012F19D0052C09
:101CB00017DB012D01D0012000E00020434901EB9A
:101CC0008001601F085C032801D00020C9E7012DB6
:101CD00001D0012000E000203C4901EB8001601FA1
:101CE0000F54012D01D0012000E0002000EB001076
:101CF00000EB4000364901EB8011601E00EB001044
:101D000000EB400001EBC0064FF4CC713046FEF70B
:101D100003FB2FB3012F04D0022F20D0032F3DD17E
:101D20003DE0042C0DDC06F5C970012D01D1002128
:101D300000E00321274A02EB0112611E42F8210054
:101D40000CE006F5C970012D01D1022100E005214A
:101D5000204A02EB0112611F42F8210020E000BF7F
:101D6000042C0DDC06F5C870012D01D1012100E025
:101D70000421184A02EB0112611E42F821000CE016
:101D800006F5C870012D01D1002100E00321114AA0
:101D900002EB0112611F42F8210001E000BF00BF09
:101DA00000BF012D01D10C4800E00C487060347078
:101DB00086F808807772717A4A4606F11A0001F0B7
:101DC0003DF830464DE70000CC000020E400002044
:101DD000F84600207860002018050020400500200B
:101DE00070B5044694F87C0120B101281ED0022869
:101DF00045D139E0D4F82A0001EE100AD4F83A00AF
:101E000000EE900AD4ED621AB0EE610A04F1EC0122
:101E100004F15C0008F022FB0546607A012802D13B
:101E2000A4F8925101E0A4F8905129E0B4F912000D
:101E300001EE100AB8EEC11AF0EE410A94ED631AF1
:101E4000B0EE410A04F15C0004F066FCBDEEC00A8D
:101E500010EE100A05B2607A012802D1A4F892515E
:101E600001E0A4F890510BE0607A012803D1002032
:101E7000A4F8920102E00020A4F8900100E000BF65
:101E800000BF70BD70B5054601240E4968688842E0
:101E900001D1E01CC4B22878042808DD687A012842
:101EA00002D1A01CC4B209E0601EC4B206E0687A88
:101EB000012802D1A01EC4B200E0E4B2204600F026
:101EC00003F870BD4005002070B50646052E00DD04
:101ED00070BD062E33D2DFE806F00312220A1A2A5A
:101EE0003D4D3E4C40F2FF103D49086029E03D4D1C
:101EF0003A4C303440F2FF103949086021E0364D49
:101F0000364C10344FF400703549086019E0354DF7
:101F1000324C40344FF400703149086011E02E4DCE
:101F20002E4C203440F2FF202D49086009E02D4D51
:101F30002A4C503440F2FF202949086001E0002477
:101F400000BF00BF002026498860C86008200861E3
:101F5000206840B120680088000A23490870206882
:101F60000078487003E000201F49487008706068DE
:101F700040B160680088000A1B498870606800787A
:101F8000C87003E000201849C8708870A06840B18C
:101F9000A0680088000A14490871A0680078487198
:101FA00003E00020104948710871E06840B1E06822
:101FB0000088000A0C498871E0680078C87103E065
:101FC00000200949C8718871084B074A044928460E
:101FD00001F04BF900BF7BE7180500207860002076
:101FE000E046002040050020D5000020E000002051
:101FF00010B52DED028B0446B0EE408A207A012800
:1020000003D1B1EE480AB0EE408A94F87C01012871
:1020100002D184ED638A06E018EE100AFEF743FB56
:1020200004F5C07203C2BDEC028B10BD10B50248AE
:1020300001F0C8FE10BD00001008002010B50248D5
:1020400001F0C0FE10BD00005007002010B502488E
:1020500001F0B8FE10BD0000B007002010B5024826
:1020600001F0B0FE10BD0000C005002010B5024810
:1020700001F0A8FE10BD00002006002001460878EF
:1020800010381823B0FBF3F20848805CC865032AB7
:1020900005D908686FF30900001D886503E008682A
:1020A0006FF309008865886D70470000E4B8000888
:1020B000014600208A6A8B69CBB932B1012A0DD062
:1020C000022A03D0032A10D10EE000BFCB6A03F02E
:1020D0008073B3F1807F00D1012007E0CB6AB3F1B8
:1020E000C07F00D1012001E000E000BF34E08B6937
:1020F000B3F5005F1AD132B1012A07D0022A03D00A
:10210000032A11D10AE000BF01200EE0CB6A03F0E0
:102110008073B3F1807F00D1012006E0CB6AB3F178
:10212000C07F00D1012000E000BF15E032B1012ADC
:1021300005D0022A04D0032A0CD103E000BF00BF5F
:10214000012008E0CB6A03F08073B3F1807F00D1F7
:10215000012000E000BF00BF704730B5046824686C
:1021600024F4802405682C60046863608468402C33
:1021700004D10468A2600468E16003E00468A1601F
:102180000468E26030BD00001249096841F08071C6
:10219000104A11600021104A51601146096841F04F
:1021A000010111600D4941430D4A11601146096852
:1021B0004FF47A72B1FBF2F10A4A116008490968DA
:1021C000064AB1FBF2F1084A11600021074A11608A
:1021D00070470000FCED00E0001000E040420F00FE
:1021E0008002002084020020880200208C0200204F
:1021F00008B50A788DF800204A788DF801208A7891
:102200008DF80220CA788DF803209DED000A0A4A55
:1022100082ED100A0A798DF800204A798DF80120A4
:102220008A798DF80220CA798DF803209DED000A85
:10223000014A82ED0F0A08BDA84500204A780B78B4
:1022400042EA032213B2024AA2F852307047000059
:10225000A84500204A780B7842EA03230C4AA2F8EA
:102260004A30CA788B7842EA0323094AA2F84C30F4
:102270004A790B7942EA0323054AA2F84E30CA791B
:102280008B7942EA0323024AA2F8503070470000DB
:10229000A84500200D4A92F82D20012A00D1704750
:1022A0004A780B7842EA0322084B1B6B9A828A78A1
:1022B00002F00103054A126B93748A78C2F340035B
:1022C000024A126BD37400BFE9E70000A845002062
:1022D00008B50A7802F00102184B83F838200A7812
:1022E000C2F34003154A82F839300A78C2F38003FA
:1022F000124A82F848300A78C2F3C0030F4A82F8C3
:1023000049300A78C2F300130C4A82F83A30026965
:10231000052A11D14A788DF800208A788DF801209D
:10232000CA788DF802200A798DF803209DED000A05
:10233000024A82ED110A00BF08BD0000A845002036
:102340007047000001490860704700005C020020EF
:102350000020184981F82D001749087017480078A7
:10236000012825D10020154908701249096B088001
:102370001049096B48800F49096B88800D49096B2A
:10238000C8800C49096B08810A49096B88810021C2
:102390000848006BC1810748006B01820548006B4B
:1023A00081740448006BC17400200249096B888263
:1023B00070470000A84500209C0000209D000020E0
:1023C000022004490870012003490870034981F87C
:1023D0002D0070479C0000209D000020A845002093
:1023E00010B502A005F016F910BD00006472313678
:1023F0000000000000B587B064204FF46B714FF40B
:102400006173CDE90230CDE90410142001210323CA
:102410000A46CDE9001003A1034804F0E3FD07B02C
:1024200000BD000033303100D368002000B587B014
:1024300064204FF46B714FF46173CDE90230CDE944
:1024400004101420082103230122CDE9001016A155
:10245000164804F0C7FD64204FF47F714FF4757384
:10246000CDE90230CDE90410142008210323012214
:10247000CDE900100EA10F4804F0B4FD64204FF424
:1024800075714FF46B73CDE90230CDE9041014205F
:10249000082103230122CDE9001007A1074804F019
:1024A000A1FD07B000BD000033303100D36800202B
:1024B00033303300E268002033303200F16800200E
:1024C00000B595B00A2008F033FE1D229E496846EB
:1024D000FDF709FF2D229C49103909A8FDF703FFDC
:1024E00009A80FC803F078FD0A2008F021FE1D227C
:1024F00096496846FDF7F7FE2D229449103909A840
:10250000FDF7F1FE09A80FC803F066FD0A2008F0E8
:102510000FFE1D228E496846FDF7E5FE2D228C49EF
:10252000103909A8FDF7DFFE09A80FC803F054FD14
:102530000A2008F0FDFD8749A1F10F00A0F10F026C
:10254000A0F11E03CDE9002002911E3A4B394B3811
:1025500003F086FE0A2008F0EBFD7F4A7F48A0F1D9
:102560000F01A0F11E03CDE901020091A0F12D029F
:1025700078491E31A1F10F0003F072FE0A2008F025
:10258000D7FD7749A1F10F00A0F10F02A0F11E03C2
:10259000CDE9002002911E3A4B394B3803F060FE22
:1025A0000A2008F0C5FD6F48A0F10F026C494B31BD
:1025B000A1F10F03CDE900120290A1F11E022D3905
:1025C000A1F10F0003F04CFE0A2008F0B1FD6648AF
:1025D00066490A460B46CDE900210290644A6149EA
:1025E0001E31A1F10F0003F03BFE0A2008F0A0FD10
:1025F0005E4803F09FFD5F4801685F4802685F48DE
:1026000000685F4B1B68CDE90230CDE90421022050
:102610000090062301225BA101905B4803F056FA6B
:10262000544842685448416854484068544B5B6879
:10263000CDE90230CDE904120220009006230122E8
:1026400052A10190524803F041FA4A4881684A4831
:1026500082684A4880684A4B9B68CDE90230CDE9E0
:1026600004210220012106230A46CDE9001049A1D8
:10267000494803F02BFA3F48C2683F48C1683F48C9
:10268000C0683F4BDB68CDE90230CDE9041202207F
:10269000032106230122CDE9001040A1404803F0A8
:1026A00015FA344801693448026934480069344BEA
:1026B0001B69CDE90230CDE90421022006210B4639
:1026C0000122CDE9001037A1374803F0FFF929486E
:1026D00041692948426929484069294B5B69CDE92C
:1026E0000230CDE904210220052106230122CDE993
:1026F00000102EA12E4803F0E9F91E4882691E48F9
:1027000081691E4880691E4B9B69CDE90230CDE985
:102710000412022000900623012226A101902648DF
:1027200003F0D4F90A2008F003FD234820491E4A8B
:102730001B4BCDE900210290174A1549124803F0BE
:102740008FFD15B000BD00002E6900205C680020E0
:1027500030670020A7670020116700203D68002037
:10276000B766002088680020006900200F690020FB
:102770000267002090010020740100205801002011
:102780003C01002036303100326400203630320007
:10279000416400203630330050640020363034006D
:1027A0005F640020363035006E640020363036001D
:1027B0007D640020363037008C64002000B587B07F
:1027C0000AA040F2EE210A221423CDE90232CDE91B
:1027D00004100320082105230122CDE9001005A1E2
:1027E0000548FEF7B9FC07B000BD00004E554C4C43
:1027F00000000000353030001E69002000B587B0B1
:1028000040F2663040F2DC5140F25232CDE9021221
:10281000CDE90410032001210B460A46CDE9001042
:1028200021A1224804F0DEFB40F266304FF4C8617B
:1028300040F25232CDE90212CDE904100320012109
:102840000B460A46CDE9001019A118480F3004F0D4
:10285000C9FB4FF44D7040F2DC514FF44872CDE9A2
:102860000212CDE90410032001210B460A46CDE9EE
:10287000001010A10D481E3004F0B4FB4FF44D7051
:102880004FF4C8614A10CDE90212CDE904100320CB
:1028900001210B460A46CDE9001007A103482D305F
:1028A00004F0A0FB07B000BD31303500796800208E
:1028B00031303600313037003130380000B587B064
:1028C00040F2663040F2366140F2523240F2DC5360
:1028D000CDE90232CDE904100420082101231A4673
:1028E000CDE900102EA12F4804F07CFB40F26630A9
:1028F00040F29A6140F252324FF4C863CDE902329D
:10290000CDE904100420082101231A46CDE9001066
:1029100025A124480F3004F065FB4FF44D7040F2C0
:1029200036614FF4487240F2DC53CDE90232CDE912
:1029300004100420082101231A46CDE900101BA130
:1029400018481E3004F04EFB4FF44D7040F29A616F
:102950004FF448725300CDE90232CDE9041004204F
:10296000082101231A46CDE9001011A10D482D3090
:1029700004F038FB0FA040F24E3140F2DC52162337
:10298000CDE90232CDE90410032001210B460A46AD
:10299000CDE900100AA10B48FEF7DEFB07B000BD31
:1029A00031303000106800203130310031303200D9
:1029B00031303300362035203420352036000000F9
:1029C000313034004C68002030B589B01E480078A2
:1029D0004042B43800EE900AF8EEE00AB0EE600A29
:1029E0009FED1A1ADFED1A0A07F076FCBCEEC00A5A
:1029F00010EE104A14480078B43800EE900AF8EE51
:102A0000E00AB0EE600A9FED111ADFED110A07F03F
:102A100063FCBCEEC00A10EE105A4FF4AA704FF4DB
:102A200007724FF47073CDE90520049307900520D9
:102A30000021042301228DE83200039005A10648FD
:102A4000FEF734F809B030BD390100200000B4436E
:102A500000000000343031000F69002000B585B05F
:102A60004FF4AA704FF407714FF470720523CDE94B
:102A70000132CDE9031008200423012203A10090B4
:102A80000348FEF74FFF05B000BD000034303000B2
:102A90000069002000B589B04FF4BE704FF4077292
:102AA0004FF47073CDE905200493079028202E2160
:102AB0002D220023CDE90032CDE9021001220DA123
:102AC0000D48FDF7F3FF0DA040F226214FF49B6265
:102AD0001623CDE90232CDE904100220052100239E
:102AE0000122CDE9001007A10748FEF735FB09B028
:102AF00000BD000030303900116700204E554C4CAD
:102B00000000000030313000206700202DE9F04344
:102B100089B000242EE004EB84004000323085B2FE
:102B2000681C86B24FF4BE77B846204604EBD071DD
:102B30004910A4EB410109B9192100E00C21894693
:102B400022460FA108A806F0F3FB4FF407704FF4DC
:102B50007071CDE90678CDE904100820C4EB0411AA
:102B6000094A8DE8610288180023012208A9FDF7AF
:102B70009DFF641C092CCEDB09B0BDE8F08300008A
:102B800030302564000000004D67002000B589B09A
:102B90004FF4BE704FF407724FF47073CDE9052007
:102BA000049307901420E6210823CDE90031022385
:102BB0000122CDE9021003A10348FDF777FF09B018
:102BC00000BD000032313100026700202DE9F043E2
:102BD00089B000242CE0E000E63085B2681C86B2A3
:102BE0004FF4BE77B846204604EBD0714910A4EBF1
:102BF000410109B9192100E00C21894622460FA1A3
:102C000008A806F095FB4FF407704FF47071CDE9FA
:102C10000678CDE904100820C4EB0411094A8DE8B8
:102C2000610288180223012208A9FDF73FFF641CF6
:102C30000B2CD0DB09B0BDE8F083000032252E322A
:102C4000640000005D66002000B58BB007F0F0FA6C
:102C50003249086001200990002007900120089067
:102C6000002001900290039004900A900690059035
:102C700001A92B4800F0A4FB294801F002F8022129
:102C8000274800F0DDFA0121254800F0D9FA4FF479
:102C90000041234800F0D4FA4FF48071204800F03E
:102CA000CFFA4FF480611E4800F0CAFA4FF4007169
:102CB0001B4800F0C5FA4FF40061194800F0C0FA53
:102CC0000E200A90069001A9164800F079FB1548DD
:102CD00000F0D7FF0221134800F0B2FA0121114899
:102CE00000F0AEFA4FF400410E4800F0A9FA4FF49C
:102CF00080710C4800F0A4FA4FF48061094800F09C
:102D00009FFA4FF40071074800F09AFA4FF40061FF
:102D1000044800F095FA0BB000BD00006C020020E2
:102D2000180500204005002070B504460D4600211E
:102D3000012C00D10221012D01D1481CC1B2104843
:102D4000405C142801D1002070BD01EB81000D4EC4
:102D500006EB40100A4E765C40F8362001EB81000D
:102D6000084E06EB4010064E765C00EBC600436052
:102D70000348405C401C024E70540120E4E7000010
:102D800068020020F06E002000B52423034AA2F15F
:102D90002401034803F0B0FE00BD0000B06900202C
:102DA0000C07002010B50124044803F0E9FE044894
:102DB000006810B102480068804710BD0C07002071
:102DC0005C02002000B5FF23034AA2F5807103488E
:102DD00007F07AFF00BD0000D46A0020C80600207A
:102DE00070B504460D4661190D2204F58070FDF79B
:102DF0007AFA0D2104F5807006F062FA012808D1F4
:102E0000D4F80711C4F86311002140F2671001558E
:102E100003E0012140F26710015570BD00210160FF
:102E200041609FED050A10EE101A8161002180F8C3
:102E3000331080F8241070470000000070B504467D
:102E40000D461646204600F033F800EE106AB8EE44
:102E5000400A10EE100AA06084F83150002084F877
:102E6000330084F832006DB1012D17D0022D1CD132
:102E70002803A4F82F002420A0860A20E086E80179
:102E8000208713E04FF40050A4F82F001320A086F1
:102E90000A20E0864FF48070208707E04FF400504E
:102EA000A4F82F000120A08600E000BF00BF70BD85
:102EB00010B5044642212046FDF72EFA10BD72B629
:102EC00000BFFEE710B52DED028B304890ED010AF2
:102ED000B0EE408A9FED2E0AB4EEC08AF1EE10FAF1
:102EE00006DD9FED2C0A38EE000AB0EE408A0CE0B9
:102EF0009FED290AB4EEC08AF1EE10FA05D29FEDDB
:102F0000270A38EE000AB0EE408AF0EE480A9FED3C
:102F1000240A244803F000FCB1EE400A1B4880ED6F
:102F2000060AD0ED010AB0EE600A07F011FF17485B
:102F3000D0ED030AF1EE600A60EE208AD0ED010ABE
:102F4000B0EE600A06F0D2FE1048D0ED020A40EE64
:102F5000C08AC0ED048AD0ED010AB0EE600A06F026
:102F6000C5FE0A48D0ED030A60EE208AD0ED010AC2
:102F7000B0EE600A07F0ECFE0448D0ED020A40EE25
:102F8000C08AC0ED058ABDEC028B10BDA8450020AB
:102F90000000B442000034C30000B4C20000344357
:102FA00000000000FC4500204148006BB0F908001B
:102FB000C82806DA3E48006B807C10B901203D49E4
:102FC00008703B4890F8480020B90120384981F842
:102FD0002C0008E0364890F82C00022803D000208E
:102FE000334981F82C003248006BB0F9080010F129
:102FF000C80F05DB2E48006B808AC0F3C02018B1D3
:1030000003202B4981F82C00294890F82C00012836
:1030100004D0274890F82C00032800D1704724489A
:1030200090F84900012823D12148006BB0F908002D
:1030300040F22621884204DA1D48006B807C01287A
:1030400034D11C48007888B3194890F83900012819
:103050002CD10220164981F82C0000201549087057
:10306000134890F83400401C114981F834001DE0E9
:103070000F48006BB0F9080040F22621884204DABC
:103080000B48006B807C012810D10A48007868B199
:103090000220074981F82C000020064908700448E6
:1030A00090F83400401C024981F8340000BFB5E7B5
:1030B000A8450020C800002006F0A4FF0AE007F0A1
:1030C00089FFFFF771FF06F0AFFF07F0ADFF0120AA
:1030D00008F02EF8F3E770B504460D46611904F5C3
:1030E00080700A68C4F800214A68C4F8042109897C
:1030F000A4F808110A2106F0E3F8012809D140F2EA
:103100000711095D84F84011002140F2411001557A
:1031100003E0012140F24110015570BD70B5044635
:103120000D466119142204F58070FDF7DCF81421B6
:1031300004F5807006F0C4F8012815D140F2111191
:10314000D4F80721C4F83421D4F80B21C4F838216D
:10315000B4F80F21A4F83C21095D84F83E11002148
:1031600040F23F10015503E0012140F23F100155AC
:1031700070BD000030B5034613B94FF6FF7030BD87
:1031800009E013F8014B82EA0400C0B2054D35F89E
:10319000100080EA2222081EA1F10101F1D110469F
:1031A000EDE700008AC8000830B5034605E013F8D3
:1031B000010B80EA02040448025D081EA1F101012E
:1031C000F5D1104630BD000089C700080148B0F9AC
:1031D00052007047A8450020014631B1012908D0AE
:1031E00002290AD0032910D10BE00948B0F84A009F
:1031F00070470748B0F84C00FAE70548B0F84E00B1
:10320000F6E70348B0F85000F2E70020F0E70000CE
:10321000A8450020014890ED110A7047A8450020FC
:10322000014890F83A007047A8450020014890ED09
:10323000010A7047A845002000487047D46C002060
:1032400010B5024692F82030012B01D0022B06D196
:1032500010684069084314686061002010BD506A1E
:1032600040F4802050620120F8E7F0B504460D4696
:103270001E4694F8207020688368A86800B900E0B2
:1032800000BF012F01D0022F7CD103F0806030B944
:1032900003F0006018B903F08050002873D0C3F326
:1032A0000161022905D9606A40F4000060620120D2
:1032B000F0BD012088403060A86860B9B5F800C052
:1032C000E86840EA4C5C206800F5C07000EB011033
:1032D000C0F800C00FE0D5E901C040EACC00D5F845
:1032E0000CC040EA0C00D4F800C00CF5C07C0CEB1C
:1032F000011CCCF80000D5F810C0206800F5C070A3
:1033000000EB0110C0F804C0287D01280ED1206810
:1033100000F5C07000EB0110406840F4807C20682C
:1033200000F5C07000EB0110C0F804C0D0790006B1
:1033300092F806C040EA0C4092F805C040EA0C2C16
:1033400010794CEA000C206800F5C07000EB011009
:10335000C0F80CC0D078000692F802C040EA0C40D9
:1033600092F801C040EA0C2092F800C040EA0C003C
:10337000D4F800C00CF5C07C0CEB011CCCF80800A4
:10338000206801E016E00FE000F5C07000EB0110CE
:10339000006840F0010C206800F5C07000EB0110DF
:1033A000C0F800C0002083E7606A40F4001060624B
:1033B00001207DE7606A40F480206062012077E7A9
:1033C000F0B504460A46216894F82050012D01D03A
:1033D000022D7ED1424901F50071086840F00100DC
:1033E0000860086820F47C5008600868566A40EA63
:1033F00006200860107D00F01F06012000FA06F389
:10340000C8699843C861A1F50071D069C8B9D1F8FD
:103410000C029843C1F80C02908880B2968940EA69
:10342000064601F51070576940F83760108880B281
:10343000168940EA064601F51070576900EBC7008F
:103440004660D069012819D1D1F80C021843C1F89F
:103450000C02908880B2168840EA064601F510708A
:10346000576940F83760908980B2168940EA06466D
:1034700001F51070576900EBC7004660906928B9E4
:10348000D1F804029843C1F8040204E0D1F8040220
:103490001843C1F80402106928B9D1F814029843FE
:1034A000C1F8140204E0D1F814021843C1F8140260
:1034B000106A012804D1D1F81C021843C1F81C027B
:1034C000D1F8000220F00100C1F800020020F0BD98
:1034D000FFE7606A40F4802060620120F7E70000A7
:1034E00000640040704770B5044694F82050012DE8
:1034F00001D0022D7DD151B92068C06800F00300D1
:1035000080B9606A40F400106062012070BD2068DC
:10351000006900F0030028B9606A40F4001060629E
:103520000120F3E7206800F5D87000EB0110006877
:1035300000F004009060906840B9206800F5D870F1
:1035400000EB01100068400D106007E0206800F5F6
:10355000D87000EB01100068C0085060206800F5CA
:10356000D87000EB0110006800F00200D060206805
:1035700000F5D87000EB0110406800F00F001061FA
:10358000206800F5D87000EB0110406800F47F401F
:10359000000A9061206800F5D87000EB01104068C7
:1035A000000C5061206800F5D87000EB01108068B5
:1035B0001870206800F5D87000EB0110806800F4E6
:1035C0007F40000A5870206800F5D87000EB0110A9
:1035D000806800F47F00000C9870206800F5D870B7
:1035E00000EB01108068000ED870206800F5D870DC
:1035F00000E02FE000EB0110C0681871206800F5B2
:10360000D87000EB0110C06800F47F40000A5871C8
:10361000206800F5D87000EB0110C06800F47F004E
:10362000000C9871206800F5D87000EB0110C0689C
:10363000000ED87131B92068C06840F020002668BB
:10364000F06005E02068006940F0200026683061E5
:1036500000205BE7606A40F480206062012055E74B
:103660002DE9F05F04460025206846692068D0F8FF
:103670000490206887682068D0F80CA02068D0F8F3
:1036800010B02068D0F8188006F00100002855D04E
:1036900007F00100C0B101202168886007F0020036
:1036A00018B1204600F01DFB0EE007F0040010B139
:1036B00045F4006508E007F0080010B145F48055B6
:1036C00002E0204600F00CFB07F48070C8B14FF414
:1036D00080702168886007F4007018B1204600F0FF
:1036E00002FB0EE007F4806010B145F4005508E0DD
:1036F00007F4006010B145F4804502E0204600F078
:10370000F1FA07F48030C8B14FF480302168886046
:1037100007F4003018B1204600F0E7FA0EE007F495
:10372000802010B145F4004508E007F4002010B1F6
:1037300045F4803502E0204600F0D6FA06F0080095
:1037400038B10AF0100020B145F40075102021684E
:10375000C86006F0040040B10AF0080028B1082053
:103760002168C860204600F00DFA06F0020038B16A
:103770002068C06800F0030010B1204600F004FA91
:1037800006F0400038B10BF0100020B145F4806520
:1037900010202168086106F0200040B10BF00800FD
:1037A00028B1082021680861204600F067FA06F079
:1037B000100038B12068006900F0030010B1204605
:1037C00000F05DFA06F4003040B109F0100028B1B5
:1037D000102021684860204600F052FA06F480303C
:1037E00040B109F0080028B108202168486020464F
:1037F00000F07CFA06F4004088B309F0040078B3C6
:1038000006F4807020B108F0010008B145F0010510
:1038100006F4007020B108F0020008B145F002057E
:1038200006F4806020B108F0040008B145F00405FA
:1038300006F40060A0B108F0700088B108F07000D4
:10384000402817D006DC10280BD020280CD03028B8
:1038500019D10CE0502810D0602814D110E01DE0E0
:1038600019E045F008050FE045F010050CE045F0C3
:10387000200509E045F0400506E045F0800503E03D
:1038800045F4807500E000BF00BF2068806920F02B
:103890007000216888610420216848602DB1606A49
:1038A000284360622046FFF71DFEBDE8F09F70B51B
:1038B00004460CB9012070BD94F8200010B92046D0
:1038C00000F0B0F82068006840F00100216808604E
:1038D00000F058FD05460DE000F054FD401B0A289D
:1038E00008D9606A40F400306062052084F8200046
:1038F0000120E0E72068406800F001000028EBD0DC
:103900002068006820F002002168086000F03AFD9D
:1039100005460DE000F036FD401B0A2808D9606A14
:1039200040F400306062052084F820000120C2E7E6
:103930002068406800F002000028EBD1207E0128BA
:1039400006D12068006840F080002168086005E02A
:103950002068006820F0800021680860607E0128EF
:1039600006D12068006840F040002168086005E04A
:103970002068006820F0400021680860A07E0128CF
:1039800006D12068006840F020002168086005E04A
:103990002068006820F0200021680860E07E01288F
:1039A00006D12068006820F010002168086005E05A
:1039B0002068006840F0100021680860207F01281E
:1039C00006D12068006840F008002168086005E022
:1039D0002068006820F0080021680860607F0128E6
:1039E00006D12068006840F004002168086005E006
:1039F0002068006820F0040021680860D4E9020112
:103A0000084321690843616908436168491E084306
:103A10002168C86100206062012084F82000002035
:103A200049E7000010B586B00446142101A8FCF750
:103A300073FC4E492068884241D14D480068401CC3
:103A40004B4908600846006801280FD100BF0020DC
:103A500000904848006840F00070464908600846F9
:103A6000006800F00070009000BF00BF00BF0020A1
:103A7000009040481038006840F008003D49103977
:103A800008600846006800F00800009000BF00BF12
:103A90000320019002200290002003900320049054
:103AA0000920059001A9344800F06CFB0022052193
:103AB000142000F021FD142000F00EFD54E02F49E9
:103AC0002068884250D100BF00200090294800683B
:103AD00040F08060274908600846006800F0806078
:103AE000009000BF00BF22480068401C20490860C9
:103AF0000846006801280FD100BF002000901D4833
:103B0000006840F000701B4908600846006800F03B
:103B10000070009000BF00BF00BF0020009015485B
:103B20001038006840F00200124910390860084659
:103B3000006800F00200009000BF00BF602001900C
:103B40000220029000200390032004900920059099
:103B500001A90B4800F016FB00220521402000F0CF
:103B6000CBFC402000F0B8FC06B010BD0064004063
:103B70000800002040380240000C0240006800406D
:103B80000004024070470000F0B589B006460024EA
:103B900000276B4602AA00213046FFF7A4FC00284C
:103BA0005FD13148864223D140F2126102988842A7
:103BB0001ED19DF801109DF8002041EA022001B2BB
:103BC0002A4A1268D1829DF803109DF8022041EA2A
:103BD000022001B2254A126851829DF805109DF815
:103BE000042041EA022001B2204A1268918200BFFB
:103BF0001F48864200D102240498042803D1039F61
:103C0000601CC4B200E0029F002526E004EB8400A3
:103C1000184901EB401050F8350050B904EB84000E
:103C200001EB401000EBC5006946426802A89047CE
:103C300012E004EB84000F4901EB401050F835000E
:103C4000B84209D104EB840001EB401000EBC50041
:103C50006946426802A890476D1C0748005DA8426B
:103C6000D4DC09B0F0BD0000180500206C02002073
:103C700040050020F06E0020680200207047704769
:103C8000704770B5044694F82000012822D1022024
:103C900084F820002068006820F001002168086096
:103CA00000F070FB05460DE000F06CFB401B0A289D
:103CB00008D9606A40F400306062052084F8200072
:103CC000012070BD2068406800F001000028EBD1A1
:103CD0006062F6E7606A40F4002060620120F0E76D
:103CE000704770477047704770477047704770B5AE
:103CF0000446A56D00F046FB064694F83500022800
:103D000008D08020606500BF002084F8340000BF28
:103D1000012070BD2068006820F01600216808604E
:103D20002068406920F0800021684861206C08B953
:103D3000A06C28B12068006820F0080021680860A5
:103D40002068006820F001002168086010E000F0A1
:103D500019FB801B05280BD920206065032084F8FF
:103D6000350000BF002084F8340000BF0320D0E7F6
:103D70002068006800F001000028E8D194F85C1089
:103D80003F208840A860012084F8350000BF002053
:103D900084F8340000BF00BFBBE7014691F835004E
:103DA000022803D08020486501207047052081F853
:103DB00035000868006820F001000A6810600020E3
:103DC000F3E70000F8B50446002000908C48006836
:103DD0004FF41651B0FBF1F7A56D2E6894F85C1006
:103DE00008208840304098B12068006800F0040046
:103DF00070B12068006820F004002168086094F821
:103E00005C1008208840A860606D40F0010060658B
:103E100094F85C1001208840304068B12068406907
:103E200000F0800040B194F85C1001208840A86048
:103E3000606D40F00200606594F85C1004208840DA
:103E4000304068B12068006800F0020040B194F88A
:103E50005C1004208840A860606D40F0040060653C
:103E600094F85C1010208840304078B320680068D7
:103E700000F0080050B394F85C1010208840A8604F
:103E80002068006800F4802080B12068006800F499
:103E9000002028B9206CC8B12046216C884715E065
:103EA000A06C98B12046A16C88470FE0206800689C
:103EB00000F4807028B92068006820F008002168AC
:103EC0000860206C10B12046216C884794F85C1083
:103ED000202088403040002865D02068006800F02D
:103EE000100000285FD094F85C1020208840A86063
:103EF00094F83500052828D12068006820F01600C5
:103F0000216808602068406920F0800021684861CD
:103F1000206C08B9A06C28B12068006820F0080067
:103F20002168086094F85C103F208840A860012058
:103F300084F8350000BF002084F8340000BF206DF5
:103F400010B12046216D8847F8BD2068006800F454
:103F5000802080B12068006800F4002028B9606CDF
:103F600010B12046616C88471DE0E06BD8B1204657
:103F7000E16B884717E02068006800F4807068B93A
:103F80002068006820F0100021680860012084F893
:103F9000350000BF002084F8340000BFE06B10B192
:103FA0002046E16B8847606D38B3606D00F001001A
:103FB000F0B1052084F835002068006820F0010089
:103FC0002168086000BF0098401C0090B84200D9EA
:103FD00005E02068006800F001000028F3D100BF70
:103FE000012084F8350000BF002084F8340000BFB1
:103FF000E06C10B12046E16C884700BFA4E70000E8
:10400000180000202DE9F0410446002500F0BAF91F
:10401000074614B90120BDE8F081606A00B100BF15
:10402000022084F8350000BF002084F8340000BF6F
:104030002068006820F00100216808600AE000F0B4
:10404000A1F9C01B052805D920206065032084F84C
:104050003500E0E72068006800F001000028EED19C
:104060002068056821480540D4E901010843E1685A
:1040700008432169084361690843A1690843E1696C
:104080000843216A08430543606A042803D1D4E940
:104090000B0108430543206805602068456925F049
:1040A0000705606A0543606A04280DD1A06A0543CC
:1040B000E06A48B12046FDF7FBFF28B1402060656B
:1040C000012084F83500A6E7206845612046FDF709
:1040D000D5FF064694F85C103F208840B060002071
:1040E0006065012084F83500002094E73F8010F0DF
:1040F0002DE9F04704460D4616461F464FF00008CE
:10410000D4F8589000BF94F83400012802D102205E
:10411000BDE8F087012084F8340000BF94F8350032
:10412000012825D1022084F83500002060653B4637
:10413000324629462046FEF710F894F85C103F20DE
:104140008840C9F808002068006840F0160021681F
:104150000860206C28B12068006840F008002168E1
:1041600008602068006840F001002168086006E0EF
:1041700000BF002084F8340000BF4FF00208404622
:10418000C6E70000F8B502460B46002500240020D3
:104190000021D6E0012606FA01F51E6806EA0504AC
:1041A000AC4274D11E7906F00306012E04D01E79AC
:1041B00006F00306022E13D190684F000326BE407E
:1041C000B0434F00DE68BE40304390605068012627
:1041D0008E40B0431E79C6F300168E4030435060C7
:1041E0001E7906F00306032E09D0D0684F0003267F
:1041F000BE40B0434F009E68BE403043D0601E7941
:1042000006F00306022E13D1CF0802F1200656F85D
:1042100027004E07F70E0F26BE40B0434F07FF0E94
:104220001E69BE403043CF0802F1200646F8270041
:1042300010684F000326BE40B0431E7906F0030607
:104240004F00BE40304310605E6806F44036002EDA
:1042500076D000BF002600963C4E366846F4804675
:104260003A4F3E603E46366806F48046009600BFF0
:1042700000BF374E8F0856F827008E07370F0F26DE
:10428000BE40B043334EB24202D1002624E057E094
:10429000314EB24201D101261EE0304EB24201D170
:1042A000022619E02E4EB24201D1032614E02D4E13
:1042B000B24201D104260FE02B4EB24201D10526B5
:1042C0000AE02A4EB24201D1062605E0284EB2424B
:1042D00001D1072600E008268F073F0FBE4030437C
:1042E0001B4E8F0846F82700224E3068A0435E68B8
:1042F00006F4801606B120431E4E3060361D30682D
:10430000A0435E6806F4001606B12043194E361D20
:104310003060184E361F3068A0435E6806F40036E1
:1043200006B12043134E361F3060361F3068A0435D
:104330005E6806F4803606B120430E4E083E3060BB
:10434000491C1029FFF426AFF8BD00004438024094
:10435000083801400000024000040240000802400A
:10436000000C0240001002400014024000180240FD
:10437000001C0240083C01400AB1816101E00B04CD
:104380008361704701480068704700000C000020FE
:1043900003480068034909780844014908607047E8
:1043A0000C0000201400002010B50D48006840F4F7
:1043B00000700B4908600846006840F4806008609F
:1043C0000846006840F480700860032000F0D2F8CE
:1043D0000F2000F007F800F055F8002010BD000095
:1043E000003C0240F0B587B004460026002700BF1D
:1043F000002000901E48006840F001001C49086041
:104400000846006800F00100009000BF00BF01A94D
:1044100002A800F085F900F0BBF946001548B6FB8C
:10442000F0F0471E14481549086040F2E731134880
:10443000C1604760002101618160816100F070FD11
:10444000054695B90D4800F0C3FD05466DB9192024
:1044500000F042F8102C07D200222146192000F06B
:104460004BF80748046000E00125284607B0F0BD7E
:104470004438024040420F00000001407008002014
:104480001000002008B500BF00200090114800680F
:1044900040F480400F4908600846006800F48040FE
:1044A000009000BF00BF00BF00200090081F006800
:1044B00040F08050091F08600846006800F08050F6
:1044C000009000BF00BF00220F21901E00F014F8E2
:1044D00008BD00004438024001460846002809DBB8
:1044E00000F01F0301229A4043099B0003F1E023DF
:1044F000C3F8002100BF70472DE9F05F80460D46EC
:104500001646002704F028FF074639462A46334658
:1045100001F00700C0F1070ABAF1040F02D94FF009
:10452000040A01E0C0F1070AD14600F1040ABAF119
:10453000070F02D24FF0000A01E0A0F1030AD446AF
:104540004FF0010A0AFA09FAAAF1010A0AEA020A74
:104550000AFA0CFA4FF0010B0BFA0CFBABF1010B52
:104560000BEA030B4AEA0B042146404604F0FCFE2A
:10457000BDE8F09F00BF00F00702064B19684FF638
:10458000FF031940044B0B4343EA0221014B19601E
:1045900000BF70470CED00E00000FA0570B504465E
:1045A0000D460CB9012070BD5848006800F00700A6
:1045B000A84209D255490D700846006800F007006E
:1045C000A84201D00120EEE7207800F00200022886
:1045D0001DD1207800F00400042805D14C48006863
:1045E00040F4E0504A490860207800F008000828AC
:1045F00005D14748006840F4604045490860444898
:10460000006820F0F000A168084341490860207864
:1046100000F00100A8B36068012807D13C480838C1
:104620000068C0F34040B8B90120BCE760680228C8
:1046300002D06068032807D1354808380068C0F305
:10464000406048B90120AEE7314808380068C0F33F
:10465000400008B90120A6E72D48006820F00300BB
:10466000616808432A490860FFF78CFE064609E0A6
:10467000FFF788FE801B41F28831884202D903206F
:1046800091E707E02248006800F00C006168B0EB99
:10469000810FEDD11D48006800F00700A84209D93C
:1046A0001A490D700846006800F00700A84201D0C2
:1046B000012078E7207800F00400042807D114488E
:1046C000006820F4E050E168084311490860207850
:1046D00000F00800082808D10D48006820F4604068
:1046E000216940EAC1000A49086000F061F8084900
:1046F0000968C1F30311074A515CC84006490860C4
:1047000006480068FFF76EFE00204CE7003C0240C0
:1047100008380240ECB80008180000201000002003
:104720000F2202600D4A126802F0030242600B4A37
:10473000126802F0F0028260084A126802F4E05245
:10474000C260064A126802F46042D2080261044A5A
:10475000126802F007020A60704700000838024041
:10476000003C02400148006870470000180000202B
:1047700000B5FFF7F7FF04490968C1F38221034A36
:10478000515CC84000BD000008380240FCB8000879
:1047900000B5FFF7E7FF04490968C1F34231034A56
:1047A000515CC84000BD000008380240FCB8000859
:1047B0002DE9F047002400250026A1462548006881
:1047C00000F00C0020B1042805D008283AD105E0FB
:1047D000DFF8849039E0DFF8849036E01D48001F50
:1047E000006800F03F041B48001F006800F48000D0
:1047F00078B11A481749091F0968C1F38811A0FB4D
:1048000001700146224600233846FBF73BFD054672
:104810000EE011480F49091F0968C1F38811A0FB78
:1048200001700146224600233846FBF72BFD054662
:104830000848001F0068C0F30140401C4600B5FB5B
:10484000F6F902E0DFF8109000BF00BF4846BDE86F
:10485000F0870000083802400024F40000127A00BB
:10486000F8B504460CB90120F8BD207800F001002D
:10487000002874D0F948006800F00C0004280DD01E
:10488000F648006800F00C00082813D1F348001F18
:10489000006800F48000B0F5800F0BD1EF480838B5
:1048A0000068C0F34040002859D06068002856D105
:1048B0000120D9E700BF6068B0F5803F08D1E74824
:1048C0000838006840F48030E449083908601EE088
:1048D0006068B0F5A02F0DD1E0480838006840F4BA
:1048E0008020DE49083908600846006840F48030BE
:1048F00008600CE0D9480838006820F48030D749B7
:10490000083908600846006820F48020086000BF6D
:10491000606890B1FFF736FD054606E0FFF732FD0F
:10492000401B642801D903209EE7CC480838006862
:10493000C0F340400028F1D011E0FFF723FD054609
:1049400006E0FFF71FFD401B642801D903208BE719
:10495000C24808380068C0F340400028F1D12078F0
:1049600000F0020002285FD1BC48006800F00C0093
:1049700058B1BA48006800F00C0008281CD1B748AC
:10498000001F006800F48000B0B9B448083800681F
:10499000C0F3400020B1E068012801D0012063E7A6
:1049A000AE480838006820F0F800216940EAC100EC
:1049B000AA490839086037E0E06800B30120A84937
:1049C0000860FFF7DFFC054606E0FFF7DBFC401B55
:1049D000022801D9032047E7A04808380068C0F33F
:1049E00040000028F1D09D480838006820F0F80009
:1049F000216940EAC10099490839086014E00020A3
:104A000097490860FFF7BEFC054606E0FFF7BAFCD1
:104A1000401B022801D9032026E790480838006887
:104A2000C0F340000028F1D1207800F008000828E9
:104A30002CD16069A8B101208A490860FFF7A2FC67
:104A4000054606E0FFF79EFC401B022801D9032023
:104A50000AE782486C300068C0F340000028F1D0BB
:104A600014E000207F490860FFF78CFC054606E053
:104A7000FFF788FC401B022801D90320F4E67748A1
:104A80006C300068C0F340000028F1D1207800F0BD
:104A90000400042870D1002770483830006800F006
:104AA000805090B900BF002000906C4838300068FA
:104AB00040F080506949383108600846006800F0CD
:104AC0008050009000BF00BF01276748006800F4D5
:104AD0008070B0B96448006840F480706249086032
:104AE000FFF750FC054606E0FFF74CFC401B022890
:104AF00001D90320B8E65C48006800F48070002803
:104B0000F2D000BFA068012808D15448683000687E
:104B100040F001005149683108601DE0A068052897
:104B20000DD14E486830006840F004004B496831B0
:104B300008600846006840F0010008600CE0474843
:104B40006830006820F00100444968310860084678
:104B5000006820F00400086000BFA068A8B1FFF75B
:104B600011FC054609E0FFF70DFC401B41F28831BE
:104B7000884202D9032077E626E03848683000688A
:104B8000C0F340000028EED013E0FFF7FBFB054622
:104B900008E0FFF7F7FB401B41F28831884201D95A
:104BA000032061E62D4868300068C0F3400000280B
:104BB000EFD1012F07D129483830006820F080500C
:104BC00026493831086000BFA069002845D0234835
:104BD000006800F00C0008285DD0A069022845D1CB
:104BE00000201F490866FFF7CDFB054606E0FFF7EA
:104BF000C9FB401B022801D9032035E617480838B5
:104C00000068C0F340600028F1D1D4E907010843EF
:104C1000616A40EA81110122A06AC2EB500041EAB8
:104C200000412C20005D41EA00600C49091F08602A
:104C300001200B490866FFF7A5FB054606E0FFF7D4
:104C4000A1FB401B022801D903200DE603480838C8
:104C50000068C0F340600028F1D049E00838024005
:104C600000004742800E474200700040002021496A
:104C70000866FFF787FB054606E0FFF783FB401B4E
:104C8000022801D90320EFE51B480068C0F340600B
:104C90000028F2D12CE0A069012800D1E4E51648F3
:104CA000001D0668A069012820D006F48001E06993
:104CB00081421BD106F03F01206A814216D147F69E
:104CC000C0703040616AB0EB811F0FD106F44031F3
:104CD0000122A06AC2EB5000B1EB004F06D106F0F2
:104CE00070612C20005DB1EB006F01D00120BBE5AD
:104CF0000020B9E5000047420038024010B50446E4
:104D00000CB9012010BD606A38B96068B0F5827FC7
:104D100000D105E00021E16102E000212161616133
:104D20000021A16294F8510028B9002084F85000B5
:104D3000204600F047F8022084F8510020680068FF
:104D400020F0400021680860A08800F4827021896A
:104D500001F404410843A18901F400610843217C66
:104D600001F002010843217D01F001010843218B7C
:104D700001F400710843217F01F03801084320212C
:104D8000095D01F080010843218D01F400510843C1
:104D9000216808600421A06901EA104094F82410F9
:104DA00001F010010843216848602068C06920F4C0
:104DB00000602168C86100206065012084F851000E
:104DC00000209FE710B586B00446142101A8FBF728
:104DD000A3FA4B49206888427ED100BF0020009092
:104DE0004848006840F4805046490860084600681A
:104DF00000F48050009000BF00BF00BF0020009072
:104E000040481438006840F001003E4914390860F9
:104E10000846006800F00100009000BF00BF00BF1E
:104E2000002000900846006840F002000860084634
:104E3000006800F00200009000BF00BF80200190D9
:104E40000220029001200390032004900520059089
:104E500001A92D48FFF796F9182001900220029031
:104E600001200390032004900520059001A9274804
:104E7000FFF788F92648274908604FF0C06048606E
:104E8000002124488160C1604FF4806101610021EC
:104E900041618161C1614FF4403101620021416291
:104EA000FFF7B0F808B1FEF70AF800BF1948E06450
:104EB000846300BF16481830174908604FF0C0607F
:104EC00048604021144881600021C1604FF4806136
:104ED00001610021416100E010E08161C1614FF496
:104EE0004031016200214162FFF78CF808B1FDF703
:104EF000E6FF00BF0848A064846300BF06B010BD91
:104F000000300140443802400000024000040240EA
:104F100040640240C0050020200600207047704712
:104F200010B504460CB9012010BD94F83D0028B915
:104F3000002084F83C00204600F026F8022084F887
:104F40003D00211D206802F0DDFE012084F84600AE
:104F500000BF84F83E0001213F200155402001554B
:104F60004120015500BF00BF012084F842004320CA
:104F70000155442001554520015500BF012084F80A
:104F80003D000020D0E7000038B504460E492068F7
:104F9000884217D100BF002000900C48006840F400
:104FA00000300A4908600846006800F400300090AC
:104FB00000BF00BF00220F211920FFF79DFA192022
:104FC000FFF78AFA38BD000000440140443802402F
:104FD000014691F83D00012801D0012070470220D0
:104FE00081F83D000868C06840F001000B68D86097
:104FF0001A4B086898421BD00868B0F1804F17D050
:10500000174B0868984213D0164B086898420FD087
:10501000154B086898420BD0144B0868984207D08B
:10502000134B0868984203D0124B086898420CD181
:105030000868806800F00702062A0CD0086800683B
:1050400040F001000B68186005E00868006840F057
:1050500001000B6818600020C0E70000000001405C
:105060000004004000080040000C00400004014023
:105070000040014000180040704710B50446206809
:105080000069C0F34000D8B12068C068C0F3400098
:10509000B0B16FF00200216808610120207720681C
:1050A000806900F0030018B12046FFF7E5FF05E036
:1050B000204600F0DFF8204600F093F9002020772A
:1050C00020680069C0F38000D8B12068C068C0F3D0
:1050D0008000B0B16FF004002168086102202077E1
:1050E0002068806900F4407018B12046FFF7C4FFC3
:1050F00005E0204600F0BEF8204600F072F90020DE
:10510000207720680069C0F3C000D8B12068C0686B
:10511000C0F3C000B0B16FF008002168086104203E
:1051200020772068C06900F0030018B12046FFF71F
:10513000A3FF05E0204600F09DF8204600F051F95D
:105140000020207720680069C0F30010D8B12068E3
:10515000C068C0F30010B0B16FF0100021680861A2
:10516000082020772068C06900F4407018B12046FC
:10517000FFF782FF05E0204600F07CF8204600F0B3
:1051800030F9002020772068006900F0010058B154
:105190002068C06800F0010030B16FF001002168A4
:1051A0000861204600F01EF920680069C0F3C010B5
:1051B00058B12068C068C0F3C01030B16FF08000F3
:1051C000216808612046FFF7A9FE20680069C0F346
:1051D000801058B12068C068C0F3801030B16FF003
:1051E000400021680861204600F008F92068006945
:1051F000C0F3401058B12068C068C0F3401030B10F
:105200006FF02000216808612046FFF788FE10BD7E
:1052100010B586B00446142101A8FBF77DF81249A9
:10522000206888421DD100BF002000900F48006810
:1052300040F002000D4908600846006800F00200D6
:10524000009000BF00BF881501900220029001204D
:105250000390022004900320059001A90448FEF762
:1052600091FF06B010BD00000044014030380240FC
:105270000004024070472DE9F04104460D461646F1
:10528000002700BF94F83C00012802D10220BDE8AD
:10529000F081012084F83C0000BF36B1042E1BD001
:1052A000082E31D00C2E5ED145E02946206802F050
:1052B00095FD2068806940F00800216888612068B9
:1052C000806920F00400216888612068806929696C
:1052D00008432168886148E02946206802F0B6FD4D
:1052E0002068806940F400602168886120688069D6
:1052F00020F480602168886120688069296940EA1B
:1053000001202168886130E02946206802F0DCFD38
:105310002068C06940F008002168C8612068C06941
:1053200020F004002168C8612068C0692969084329
:105330002168C86119E02946206802F001FE206852
:10534000C06940F400602168C8612068C06920F429
:1053500080602168C8612068C069296940EA01202D
:105360002168C86101E0012700BF00BF00BF002025
:1053700084F83C0000BF384689E710B504460CB9F4
:10538000012010BD94F83D0028B9002084F83C00AD
:10539000204600F025F8022084F83D00211D2068F9
:1053A00002F0B0FC012084F8460000BF84F83E0003
:1053B00001213F200155402001554120015500BFEA
:1053C00000BF012084F842004320015544200155CC
:1053D0004520015500BF012084F83D000020D0E7A2
:1053E0007047704710B5044603492068884201D1D0
:1053F000FEF7CEFF10BD000000000140704770476F
:10540000704700002DE9F84F0446206805682068C1
:10541000C668206847694FF00009CA4605F00F09C1
:10542000B9F1000F0AD105F0200038B106F02000D4
:1054300020B1204603F0CEF9BDE8F88FB9F1000F96
:105440007CD007F0010018B906F49070002875D0E0
:1054500005F0010030B106F4807018B1206C40F006
:105460000100206405F0040030B107F0010018B11C
:10547000206C40F00200206405F0020030B107F01B
:10548000010018B1206C40F00400206405F0080011
:1054900048B106F0200010B907F0010018B1206CE7
:1054A00040F008002064206C002846D005F0200061
:1054B00028B106F0200010B1204603F08BF92068D7
:1054C0004069C0F3801A206C00F0080010B9BAF1EE
:1054D000000F2DD0204603F024F92068406900F029
:1054E0004000402820D100BF00BF2168143151E89E
:1054F000001F21F040002168143141E80002002A19
:10550000F3D100BFA06B50B17548A16B0865A06BCB
:10551000FEF743FC88B1A06B016D88470DE0204683
:10552000FFF76EFF09E009E02046FFF769FF04E09E
:105530002046FFF765FF002020647DE7206B0128EF
:1055400076D105F01000002872D006F01000002877
:10555000FAD000BF0020009020680068009020680A
:105560004068009000BF00BF2068406900F0400024
:1055700040285ED1A06B006840681FFA80F8B8F13F
:10558000000F54D0A08D404551DDA4F82E80A06BB3
:10559000C069B0F5807F43D000BF00BF21680C31E7
:1055A00051E8001F21F4807021680C3141E80002AD
:1055B000002AF3D100BF00BF00BF2168143151E8B9
:1055C000001F21F001002168143141E80002002A87
:1055D000F3D100BF00BF00BF2168143151E8001FA4
:1055E00021F040002168143141E80002002AF3D183
:1055F00000BF202084F83E000020206300BF00BFD1
:1056000021680C3151E8001F21F0100021680C3195
:1056100041E80002002AF3D100BFA06BFEF767FB50
:10562000A08DE28D801A81B22046FFF7E8FE03E7E5
:1056300040E0A08DE18D401A1FFA80F8E08DC0B3E4
:10564000B8F1000F35D000BF00BF21680C3151E820
:10565000001F21F4907021680C3141E80002002AFB
:10566000F3D100BF00BF00BF2168143151E8001F13
:1056700021F001002168143141E80002002AF3D131
:1056800000BF202084F83E000020206300BF00BF40
:1056900021680C3151E8001F21F0100021680C3105
:1056A00041E80002002AF3D100BF41462046FFF73F
:1056B000A6FEC1E605F0800030B106F0800018B10A
:1056C000204603F019FAB7E605F0400030B106F0C5
:1056D000400018B1204603F05AF8ADE600BFABE633
:1056E0005986000810B504460CB9012010BDA06908
:1056F00000B100E000BF94F83D0028B9002084F814
:105700003C00204600F028F8242084F83D00206862
:10571000C06820F400502168C860204603F0D6F825
:105720002068006920F49040216808612068406981
:1057300020F02A00216848612068C06840F40050C9
:105740002168C86000202064202084F83D0084F88F
:105750003E000020CAE7000010B586B004461421C0
:1057600001A8FAF7D9FD7F49206888427BD100BFA4
:10577000002000907C48006840F400307A490860BE
:105780000846006800F40030009000BF00BF00BF72
:105790000020009074481038006840F00100724901
:1057A000103908600846006800F00100009000BF52
:1057B00000BF0C20019002200290002003900320E3
:1057C00004900720059001A96848FEF7DBFC6848B3
:1057D000684908604FF000604860002165488160BA
:1057E000C1604FF480610161002141618161C1614B
:1057F0004FF40031016200214162FEF703FC08B161
:10580000FDF75DFB00BF5B48A063846300BF5848A1
:105810001830594908604FF00060486040215648F0
:1058200081600021C1604FF480610161002141610C
:105830008161C1614FF40031016200214162FEF7D4
:10584000E1FB08B1FDF73BFB00BF4B48606384639D
:1058500000BF002205212620FEF74EFE2620FEF77F
:105860003BFE7DE0FFE745492068884278D100BFD4
:10587000002000903C48006840F480203A490860CD
:105880000846006800F48020009000BF00BF00BF01
:105890000020009034481038006840F0020032497F
:1058A000103908600846006800F00200009000BF50
:1058B00000BF00BF002000900846006840F00400D0
:1058C00008600846006800F00400009000BF00BFB8
:1058D00008150190022002900020039003200490FC
:1058E0000720059001A92648FEF74CFC4FF4006004
:1058F00001900220029000200390032004900720D2
:10590000059001A91F48FEF73DFC194860381E4963
:1059100008604FF00060486000211B488160C16052
:105920004FF4806101610021416181614FF4807118
:10593000C1614FF44031016200214162FEF762FB18
:1059400008B1FDF7BCFA00BF0F48A063846300BF35
:10595000002205212720FEF7CFFD2720FEF7BCFD02
:1059600006B010BD00440040403802400000024034
:105970008860024050070020B00700200048004027
:105980000004024000080240100800207047000098
:10599000F7B50446154694F83D00202846D10198F5
:1059A00000B10DB90120FEBD00BF94F83C000128F4
:1059B00001D10220F7E7012084F83C0000BF0198E4
:1059C0002062A584E58400202064212084F83D0025
:1059D0001748616BC8631748616B08641648616BB0
:1059E000C8640020616B086501AE23681A1D316828
:1059F0002B46606BFEF77CFB6FF04000216808606F
:105A000000BF002084F83C0000BF00BF00BF216839
:105A1000143151E8001F41F080002168143141E841
:105A20000002002AF3D100BF0020BCE70220BAE741
:105A3000BD860008158700086D860008704770470E
:105A400070B504460D46611904F580700A68C4F803
:105A500000214A68C4F804210989A4F808110A2120
:105A600003F02EFC012809D140F20711095D84F8EA
:105A7000A51100214FF4D370015503E001214FF42B
:105A8000D370015570BD00BFFEE770B504460D46EA
:105A90006119272204F58070FAF725FC272104F507
:105AA000807003F00DFC01280BD11E2204F20711B7
:105AB00004F5E170FAF717FC00214FF4E47001558A
:105AC00003E001214FF4E470015570BD2DE9F04F62
:105AD0000C4609AD95E8E010DDE90D89002106E0EE
