:020000040800F2
:100000000000022065E800082D1E00082F1E0008D1
:10001000311E0008331E0008351E000800000000D5
:100020000000000000000000000000004173000814
:10003000371E000800000000E17300084574000846
:10004000B5E80008B5E80008B5E80008B5E800081C
:10005000B5E80008B5E80008B5E80008B5E800080C
:10006000B5E80008B5E80008391E0008B5E8000842
:10007000451E0008B5E80008B5E80008B5E8000826
:10008000B5E80008B5E80008B5E80008B5E80008DC
:10009000551E0008B5E80008B5E80008651E000810
:1000A000B5E80008711E0008B5E80008B5E80008CA
:1000B000B5E80008B5E80008B5E80008B5E80008AC
:1000C000B5E80008B5E80008B5E80008B5E800089C
:1000D000B5E80008B5E80008B5E80008891E000882
:1000E000B5E80008B5E80008B5E80008B5E800087C
:1000F000B5E80008B5E80008B5E80008B5E800086C
:10010000B5E80008B5E80008B5E80008B5E800085B
:10011000B5E80008B5E80008B5E80008B5E800084B
:10012000991E0008A91E0008B5E80008B91E0008BD
:10013000B5E80008B5E80008B5E80008B5E800082B
:10014000C91E0008B5E80008B5E80008D91E000877
:10015000B5E80008E91E0008B5E80008F91E000827
:10016000B5E80008B5E80008B5E80008B5E80008FB
:10017000B5E80008B5E80008B5E800080000000090
:08018000B5E80008B5E800082D
:1001900010B5054C237833B9044B13B10448AFF3C1
:1001A00000800123237010BD400A002000000000E1
:1001B00004FA000808B5034B1BB103490348AFF329
:1001C000008008BD00000000440A002004FA000876
:1001D00081F0004102E000BF83F0004330B54FEAF8
:1001E00041044FEA430594EA050F08BF90EA020F65
:1001F0001FBF54EA000C55EA020C7FEA645C7FEAF8
:10020000655C00F0E2804FEA5454D4EB5555B8BF1A
:100210006D420CDD2C4480EA020281EA030382EA8B
:10022000000083EA010180EA020281EA0303362D1D
:1002300088BF30BD11F0004F4FEA01314FF4801CF0
:100240004CEA113102D0404261EB410113F0004F02
:100250004FEA03334CEA133302D0524263EB4303B9
:1002600094EA050F00F0A780A4F10104D5F1200E57
:100270000DDB02FA0EFC22FA05F2801841F10001B2
:1002800003FA0EF2801843FA05F359410EE0A5F186
:1002900020050EF1200E012A03FA0EFC28BF4CF0B7
:1002A000020C43FA05F3C01851EBE37101F000456D
:1002B00007D54FF0000EDCF1000C7EEB00006EEB7A
:1002C0000101B1F5801F1BD3B1F5001F0CD3490804
:1002D0005FEA30004FEA3C0C04F101044FEA44525B
:1002E00012F5800F80F09A80BCF1004F08BF5FEAE2
:1002F000500C50F1000041EB045141EA050130BDC2
:100300005FEA4C0C404141EB0101013C28BFB1F5D3
:10031000801FE9D291F0000F04BF01460020B1FA1E
:1003200081F308BF2033A3F10B03B3F120020CDAF1
:100330000C3208DD02F1140CC2F10C0201FA0CF0CF
:1003400021FA02F10CE002F11402D8BFC2F1200C34
:1003500001FA02F120FA0CFCDCBF41EA0C019040EA
:10036000E41AA2BF01EB0451294330BD6FEA040433
:100370001F3C1CDA0C340EDC04F11404C4F120021E
:1003800020FA04F001FA02F340EA030021FA04F330
:1003900045EA030130BDC4F10C04C4F1200220FA87
:1003A00002F001FA04F340EA0300294630BD21FAC5
:1003B00004F0294630BD94F0000F83F4801306BF8B
:1003C00081F480110134013D4EE77FEA645C18BF7F
:1003D0007FEA655C29D094EA050F08BF90EA020F16
:1003E00005D054EA000C04BF1946104630BD91EA0E
:1003F000030F1EBF0021002030BD5FEA545C05D111
:100400004000494128BF41F0004130BD14F580044F
:100410003CBF01F5801130BD01F0004545F0FE41C3
:1004200041F470014FF0000030BD7FEA645C1ABFF8
:10043000194610467FEA655C1CBF0B46024650EA2F
:10044000013406BF52EA033591EA030F41F400215B
:1004500030BD00BF90F0000F04BF0021704730B5E1
:100460004FF4806404F132044FF000054FF00001B6
:1004700050E700BF90F0000F04BF0021704730B577
:100480004FF4806404F1320410F0004548BF40424C
:100490004FF000013EE700BF42004FEAE2014FEAA1
:1004A00031014FEA02701FBF12F07F4393F07F4F7C
:1004B00081F06051704732F07F4208BF704793F07F
:1004C0007F4F04BF41F40021704730B54FF4607492
:1004D00001F0004521F000411CE700BF50EA010295
:1004E00008BF704730B54FF000050AE050EA01023E
:1004F00008BF704730B511F0004502D5404261EBAE
:1005000041014FF4806404F132045FEA915C3FF4EE
:10051000D8AE4FF003025FEADC0C18BF03325FEA8B
:10052000DC0C18BF033202EBDC02C2F1200300FA3C
:1005300003FC20FA02F001FA03FE40EA0E0021FA61
:1005400002F11444BDE600BF70B54FF0FF0C4CF44F
:10055000E06C1CEA11541DBF1CEA135594EA0C0F01
:1005600095EA0C0F00F0DEF82C4481EA030621EA3C
:100570004C5123EA4C5350EA013518BF52EA033577
:1005800041F4801143F4801338D0A0FB02CE4FF029
:100590000005E1FB02E506F00042E0FB03E54FF059
:1005A0000006E1FB03569CF0000F18BF4EF0010E51
:1005B000A4F1FF04B6F5007F64F5407404D25FEA4D
:1005C0004E0E6D4146EB060642EAC62141EA555100
:1005D0004FEAC52040EA5E504FEACE2EB4F1FD0C42
:1005E00088BFBCF5E06F1ED8BEF1004F08BF5FEAC0
:1005F000500E50F1000041EB045170BD06F0004672
:1006000046EA010140EA020081EA0301B4EB5C041E
:10061000C2BFD4EB0C0541EA045170BD41F4801116
:100620004FF0000E013C00F3AB8014F1360FDEBF3B
:10063000002001F0004170BDC4F10004203C35DA17
:100640000C341BDC04F11404C4F1200500FA05F39A
:1006500020FA04F001FA05F240EA020001F000423B
:1006600021F0004110EBD37021FA04F642EB0601B1
:100670005EEA430E08BF20EAD37070BDC4F10C04DB
:10068000C4F1200500FA04F320FA05F001FA04F29F
:1006900040EA020001F0004110EBD37041F100018B
:1006A0005EEA430E08BF20EAD37070BDC4F1200596
:1006B00000FA05F24EEA020E20FA04F301FA05F2FE
:1006C00043EA020321FA04F001F0004121FA04F2A6
:1006D00020EA020000EBD3705EEA430E08BF20EA76
:1006E000D37070BD94F0000F0FD101F000464000B0
:1006F00041EB010111F4801F08BF013CF7D041EA32
:10070000060195F0000F18BF704703F00046520035
:1007100043EB030313F4801F08BF013DF7D043EA06
:100720000603704794EA0C0F0CEA135518BF95EABC
:100730000C0F0CD050EA410618BF52EA4306D1D143
:1007400081EA030101F000414FF0000070BD50EA62
:10075000410606BF1046194652EA430619D094EAEC
:100760000C0F02D150EA013613D195EA0C0F05D1D6
:1007700052EA03361CBF104619460AD181EA03012A
:1007800001F0004141F0FE4141F470014FF00000E2
:1007900070BD41F0FE4141F4780170BD70B54FF07D
:1007A000FF0C4CF4E06C1CEA11541DBF1CEA1355FD
:1007B00094EA0C0F95EA0C0F00F0A7F8A4EB0504DF
:1007C00081EA030E52EA03354FEA013100F08880D6
:1007D0004FEA03334FF0805545EA131343EA12639F
:1007E0004FEA022245EA111545EA10654FEA002654
:1007F0000EF000419D4208BF964244F1FD0404F50D
:10080000407402D25B084FEA3202B61A65EB030568
:100810005B084FEA32024FF480104FF4002CB6EB25
:10082000020E75EB030E22BFB61A754640EA0C00A5
:100830005B084FEA3202B6EB020E75EB030E22BFE5
:10084000B61A754640EA5C005B084FEA3202B6EB26
:10085000020E75EB030E22BFB61A754640EA9C00E5
:100860005B084FEA3202B6EB020E75EB030E22BFB5
:10087000B61A754640EADC0055EA060E18D04FEA73
:10088000051545EA16754FEA06164FEAC30343EA13
:1008900052734FEAC2025FEA1C1CC0D111F4801FE0
:1008A0000BD141EA00014FF000004FF0004CB6E7D9
:1008B00011F4801F04BF01430020B4F1FD0C88BF78
:1008C000BCF5E06F3FF6AFAEB5EB030C04BFB6EB83
:1008D000020C5FEA500C50F1000041EB045170BD76
:1008E0000EF0004E4EEA113114EB5C04C2BFD4EBA3
:1008F0000C0541EA045170BD41F480114FF0000E27
:10090000013C90E645EA060E8DE60CEA135594EAA2
:100910000C0F08BF95EA0C0F3FF43BAF94EA0C0FA5
:100920000AD150EA01347FF434AF95EA0C0F7FF41A
:1009300025AF104619462CE795EA0C0F06D152EA6E
:1009400003353FF4FDAE1046194622E750EA410652
:1009500018BF52EA43067FF4C5AE50EA41047FF463
:100960000DAF52EA43057FF4EBAE12E74FEA4102C6
:10097000B2F1E04324BFB3F5001CDCF1FE5C0DD9FD
:1009800001F0004C4FEAC0024CEA5070B2F1004F47
:1009900040EB830008BF20F00100704711F0804F4A
:1009A00021D113F13872BCBF01F00040704741F40F
:1009B00080114FEA5252C2F11802C2F1200C10FA13
:1009C0000CF320FA02F018BF40F001004FEAC123F7
:1009D0004FEAD32303FA0CFC40EA0C0023FA02F39B
:1009E0004FEA4303CCE77FEA625307D150EA013371
:1009F0001EBF4FF0FE4040F44000704701F0004041
:100A000040F0FE4040F40000704700BF80F000401E
:100A100002E000BF81F0004142001FBF5FEA4103D6
:100A200092EA030F7FEA226C7FEA236C6AD04FEAD6
:100A30001262D2EB1363C1BFD2184140484041401B
:100A4000B8BF5B42192B88BF704710F0004F40F4CD
:100A5000000020F07F4018BF404211F0004F41F4E9
:100A6000000121F07F4118BF494292EA030F3FD0B5
:100A7000A2F1010241FA03FC10EB0C00C3F12003C8
:100A800001FA03F100F0004302D5494260EB400057
:100A9000B0F5000F13D3B0F1807F06D340084FEAC2
:100AA000310102F10102FE2A51D2B1F1004F40EBB7
:100AB000C25008BF20F0010040EA0300704749001F
:100AC00040EB0000013A28BFB0F5000FEDD2B0FABC
:100AD00080FCACF1080CB2EB0C0200FA0CF0AABFDF
:100AE00000EBC25052421843BCBFD040184370477D
:100AF00092F0000F81F4000106BF80F40000013283
:100B0000013BB5E74FEA41037FEA226C18BF7FEA59
:100B1000236C21D092EA030F04D092F0000F08BF9B
:100B20000846704790EA010F1CBF0020704712F082
:100B30007F4F04D1400028BF40F00040704712F1C1
:100B400000723CBF00F50000704700F0004343F026
:100B5000FE4040F4000070477FEA226216BF08465C
:100B60007FEA23630146420206BF5FEA412390EA1F
:100B7000010F40F4800070474FF0000304E000BF15
:100B800010F0004348BF40425FEA000C08BF7047C6
:100B900043F0964301464FF000001CE050EA01028A
:100BA00008BF70474FF000030AE000BF50EA01029F
:100BB00008BF704711F0004302D5404261EB41018C
:100BC0005FEA010C02BF84460146002043F0B643B1
:100BD00008BFA3F18053A3F50003BCFA8CF2083AD6
:100BE000A3EBC25310DB01FA02FC634400FA02FCDF
:100BF000C2F12002BCF1004F20FA02F243EB0200E6
:100C000008BF20F00100704702F1200201FA02FC47
:100C1000C2F1200250EA4C0021FA02F243EB02003A
:100C200008BF20EADC70704753B94AB9002908BFF1
:100C300000281CBF4FF0FF314FF0FF3000F0A8B983
:100C4000ADF1080C6DE904CE00F03AF8DDF804E0EF
:100C5000DDE9022304B0704707EE900AF5EEC07A92
:100C6000F1EE10FA01D400F00BB8F1EE677A08B596
:100C700017EE900A00F004F8404261EB410108BD14
:100C8000D0B5FFF709FC0C4B002206460F46FFF7D4
:100C90005BFC00F07FF90446FFF7DCFB074B00220A
:100CA000FFF752FC02460B4630463946FFF794FAEE
:100CB00000F070F92146D0BD0000F03D0000F04189
:100CC0002DE9F047089D04468E46002B4DD18A42FF
:100CD000944669D9B2FA82F252B101FA02F3C2F132
:100CE000200120FA01F10CFA02FC41EA030E9440C3
:100CF0004FEA1C48210CBEFBF8F61FFA8CF708FBE4
:100D000016E341EA034306FB07F199420AD91CEBBB
:100D1000030306F1FF3080F01F81994240F21C81ED
:100D2000023E63445B1AA4B2B3FBF8F008FB103335
:100D300044EA034400FB07F7A7420AD91CEB04046A
:100D400000F1FF3380F00A81A74240F2078164443A
:100D5000023840EA0640E41B00261DB1D4400023BF
:100D6000C5E900433146BDE8F0878B4209D9002D23
:100D700000F0EF800026C5E9000130463146BDE8AD
:100D8000F087B3FA83F6002E4AD18B4202D3824217
:100D900000F2F980841A61EB030301209E46002DC6
:100DA000E0D0C5E9004EDDE702B9FFDEB2FA82F21B
:100DB000002A40F09280A1EB0C014FEA1C471FFA79
:100DC0008CFE0126200CB1FBF7F307FB131140EA60
:100DD00001410EFB03F0884208D91CEB010103F12D
:100DE000FF3802D2884200F2CB804346091AA4B2EF
:100DF000B1FBF7F007FB101144EA01440EFB00FEC3
:100E0000A64508D91CEB040400F1FF3102D2A64527
:100E100000F2BB800846A4EB0E0440EA03409CE7C6
:100E2000C6F12007B34022FA07FC4CEA030C20FA73
:100E300007F401FA06F31C43F9404FEA1C4900FA93
:100E400006F3B1FBF9F8200C1FFA8CFE09FB181110
:100E500040EA014108FB0EF0884202FA06F20BD983
:100E60001CEB010108F1FF3A80F08880884240F2D3
:100E70008580A8F102086144091AA4B2B1FBF9F017
:100E800009FB101144EA014100FB0EFE8E4508D912
:100E90001CEB010100F1FF346CD28E456AD9023897
:100EA000614440EA0840A0FB0294A1EB0E01A1427C
:100EB000C846A64656D353D05DB1B3EB080261EBEA
:100EC0000E0101FA07F722FA06F3F1401F43C5E9C4
:100ED000007100263146BDE8F087C2F12003D840FA
:100EE0000CFA02FC21FA03F3914001434FEA1C473C
:100EF0001FFA8CFEB3FBF7F007FB10360B0C43EA2E
:100F0000064300FB0EF69E4204FA02F408D91CEBDD
:100F1000030300F1FF382FD29E422DD902386344DB
:100F20009B1B89B2B3FBF7F607FB163341EA03417B
:100F300006FB0EF38B4208D91CEB010106F1FF38CA
:100F400016D28B4214D9023E6144C91A46EA0046C1
:100F500038E72E46284605E70646E3E61846F8E653
:100F60004B45A9D2B9EB020864EB0C0E0138A3E79C
:100F70004646EAE7204694E74046D1E7D0467BE77D
:100F8000023B614432E7304609E76444023842E7F5
:100F9000704700BF4A0011D212F5001211D20DD5D0
:100FA0006FF47873B3EB62520ED44FEAC12343F06F
:100FB000004343EA505323FA02F070474FF0000019
:100FC000704750EA013002D14FF0FF3070474FF0C8
:100FD0000000704708B50268034B9A4200D008BD74
:100FE00003F0DAFDFBE700BF0000014072B6FEE748
:100FF00000B595B03022002108A80DF09DFC00231B
:10100000039304930593069307930193204A116C6D
:1010100041F080511164126C02F080520192019AE9
:1010200002931C4B1A6842F480421A601B6803F456
:1010300080430293029B012308934FF4803309936A
:1010400002230E934FF480020F9206221092A822E0
:10105000119212930723139308A802F0C5FE98B9C2
:101060000F23039302230493002305934FF4A0530B
:1010700006934FF480530793052103A803F002F968
:1010800020B915B05DF804FBFFF7B0FFFFF7AEFF26
:10109000003802400070004008B503F063FDFFF720
:1010A000A7FF00F03FF800F061FA00F08BF900F0C4
:1010B000ABF900F09FFA00F0ADFD00F0C9FD00F0C3
:1010C0006DFD00F033FC00F0F1FC00F085FC082120
:1010D000114804F03FFF114C0021204604F03AFF74
:1010E0000421204604F036FF0821204604F032FF98
:1010F0000AF074FE0AF05EFDA82008F07DFC0AF0FC
:101100009DFF0121064808F0CFFA0028F9D100F030
:10111000EFF805F05FFFFEE7080F0020C00E00208B
:10112000D80D00202DE9F0478EB0002409940A94D0
:101130000B940C940D9400945E4B1A6B42F00202D7
:101140001A631A6B02F002020092009A01941A6B61
:1011500042F040021A631A6B02F040020192019AB7
:1011600002941A6B42F001021A631A6B02F0010238
:101170000292029A03941A6B42F008021A631A6BE5
:1011800002F008020392039A04941A6B42F00402DC
:101190001A631A6B02F004020492049A05941A6B03
:1011A00042F480721A631A6B02F480720592059AF7
:1011B00006941A6B42F080021A631A6B02F08002E6
:1011C0000692069A07941A6B42F020021A631A6B71
:1011D00002F020020792079A08941A6B42F010025C
:1011E0001A631B6B03F010030893089B324E012215
:1011F0004FF48071304603F02BFADFF8C4A00122CF
:101200001021504603F024FADFF8B89001224FF481
:101210000071484603F01CFA284F01221146384657
:1012200003F016FA4FF48073099301250A950B9485
:101230000C9409A9304603F019F9102309930A9573
:101240000B954FF00208CDF8308009A9504603F005
:101250000DF9302309934FF404130A930B9509A950
:10126000304603F003F94FF4007309930A950B9588
:101270000C9409A9484603F0F9F809950A950B95CD
:10128000CDF8308009A9384603F0F0F82246052150
:101290000A2003F021FC0A2003F056FC2246052117
:1012A000172003F019FC172003F04EFC0EB0BDE828
:1012B000F08700BF003802400008024000040240EE
:1012C000000002400010024008B500F08BFE012033
:1012D00005F0BAFEFBE70000034B0360034B0B6015
:1012E00080231360704700BF700C0020700A00203C
:1012F00010B5A4B02D4C0DF1740CA646BEE80F003D
:10130000ACE80F009EE807008CE8070000211DA84C
:1013100005F065FE264B18600DF1580C04F11C0E0B
:10132000BEE80F00ACE80F009EE807008CE807005D
:10133000002116A805F053FE1E4B18600DF13C0C61
:1013400004F1380EBEE80F00ACE80F009EE807007D
:101350008CE8070000210FA805F041FE164B18602D
:101360000DF1200C04F1540EBEE80F00ACE80F00A4
:101370009EE807008CE80700002108A805F02FFE72
:101380000E4B18600DF1040E04F1700CBCE80F0058
:10139000AEE80F009CE807008EE80700002101A8D6
:1013A00005F01DFE064B186024B010BD1CFA0008A5
:1013B0005C0A0020640A0020680A0020600A0020FD
:1013C0006C0A002008B50E480E4B036003234360EF
:1013D00000238360C3604FF4102202614FF40012B7
:1013E00042610376012242768276C37603774377A1
:1013F00003F0F8FB00B908BDFFF7F8FDFBE700BFFD
:10140000C80C00200064004008B50E480E4B036075
:101410000323436000238360C3604FF41022026102
:101420004FF4001242610376012242768276C3763F
:101430000377437703F0D6FB00B908BDFFF7D6FD6D
:10144000FBE700BFF00C00200068004010B58AB038
:1014500000230593069307930893099303683D4A75
:10146000934204D03C4A934234D00AB010BD3B4A68
:10147000136801331360012B1FD000240194384BF3
:101480001A6B42F008021A631B6B03F00803019306
:10149000019B0323059302220692089309230993D3
:1014A00005A9304802F0E2FF22460521142003F08E
:1014B00013FB142003F048FBD7E700230093284BCD
:1014C0001A6C42F000721A641B6C03F000730093F4
:1014D000009BD2E700230293214B1A6C42F08062FA
:1014E0001A641B6C03F080630293029B1B4A13680F
:1014F00001331360012B20D000240494184B1A6B85
:1015000042F002021A631B6B03F002030493049B74
:101510006023059302230693032308930923099369
:1015200005A9114802F0A2FF22460521402003F040
:10153000D3FA402003F008FB97E700230393084BFE
:101540001A6C42F000721A641B6C03F00073039370
:10155000039BD1E70064004000680040C40C0020F9
:1015600000380240000C02400004024010B582B076
:10157000002400941E4B1A6B42F480021A631A6B0B
:1015800002F480020092009A01941A6B42F4001255
:101590001A631B6B03F400130193019B2246052180
:1015A0000C2003F099FA0C2003F0CEFA2246052114
:1015B000382003F091FA382003F0C6FA22460521BC
:1015C000392003F089FA392003F0BEFA22460521BA
:1015D0003B2003F081FA3B2003F0B6FA22460521B6
:1015E000452003F079FA452003F0AEFA02B010BDB1
:1015F0000038024008B50F480F4B03604FF4827368
:10160000436000238360C3600222026101224261C1
:101610004FF4007282611022C261036243628362EE
:101620000A23C36203F052FF00B908BDFFF7DEFCD6
:10163000FBE700BFD80D0020003001402DE9F0434A
:1016400089B00023039304930593069307930268DC
:101650003F4B9A4202D009B0BDE8F0830446002512
:10166000009503F584335A6C42F480525A645A6CE4
:1016700002F480520092009A01951A6B42F0020225
:101680001A631A6B02F002020192019A02951A6B18
:1016900042F001021A631B6B03F001030293029BE9
:1016A000182303934FF00209CDF810904FF0010872
:1016B000CDF81480032706970526079603A9254829
:1016C00002F0D4FE80230393CDF81090CDF814805F
:1016D0000697079603A9204802F0C8FE1F48204B32
:1016E00003604FF0C06343608560C5604FF4806362
:1016F000036145618561C5614FF400330362456252
:1017000003F026F8E8B9154BE3649C631548164BC3
:1017100003604FF0C0634360402383600023C360D5
:101720004FF48062026143618361C3614FF4003210
:101730000262436203F00CF830B90A4BA3649C6365
:1017400089E7FFF753FCDEE7FFF750FCF5E700BF42
:10175000003001400004024000000240180D00204B
:1017600010640240780D00205864024000B585B036
:101770000368244A93421CD0234A934228D0234A28
:10178000934232D0224A93421FD100220392214B2E
:10179000596C41F4003159645B6C03F400330393DA
:1017A000039B0521192003F097F9192003F0CCF9C8
:1017B0000BE000230093174B1A6C42F004021A64EA
:1017C0001B6C03F004030093009B05B05DF804FB61
:1017D000002301930F4B1A6C42F008021A641B6C31
:1017E00003F008030193019BEFE700230293094BE9
:1017F0005A6C42F002025A645B6C03F002030293DB
:10180000029BE2E700080040000C00400004014099
:10181000004401400038024000B58BB0002305931E
:1018200006930793089309930368374A93420BD0B2
:10183000364A93421FD0364A934233D0354A9342B8
:1018400047D00BB05DF804FB00230193324B1A6BB9
:1018500042F008021A631B6B03F008030193019B1B
:101860004FF48043059302230693099305A92B485F
:1018700002F0FCFDE5E700230293274B1A6B42F0D0
:1018800080021A631B6B03F080030293029B4FF4E8
:10189000E053059302230693099305A9204802F01B
:1018A000E5FDCEE7002303931B4B1A6B42F48072D5
:1018B0001A631B6B03F480730393039B80230593CC
:1018C000022306930323099305A9164802F0CEFDCF
:1018D000B7E700230493104B1A6B42F020021A63FF
:1018E0001B6B03F020030493049B40230593022306
:1018F00006930122079208930323099305A90A4836
:1019000002F0B4FD9DE700BF00080040000C00405D
:10191000000401400044014000380240000C024035
:10192000001C0240002002400014024000B58FB0AD
:1019300000230A930B930C930D930893099301933F
:101940000293039304930593069307932048214A37
:1019500002604360836045F20722C26003618361D5
:1019600004F05EF928BB4FF480530A930AA9184883
:1019700004F061FA00BB164804F07EF9F8B90023C0
:101980000893099308A9124804F066FBD0B96023B4
:1019900001930023029303930593082201A90C48A5
:1019A00004F0CEF988B90A48FFF736FF0FB05DF8AA
:1019B00004FBFFF71BFBD6E7FFF718FBDBE7FFF79E
:1019C00015FBDCE7FFF712FBE1E7FFF70FFBEAE7A8
:1019D000780E00200008004000B58FB000230A9365
:1019E0000B930C930D930893099301930293039324
:1019F00004930593069307932A482B4A0260A72273
:101A0000426083600122C2600361836104F008F9CF
:101A1000002831D14FF480530A930AA9214804F0D9
:101A20000AFA60BB1F4804F027F958BB002308934B
:101A3000099308A91B4804F00FFB30BB60230193F6
:101A4000002202920392059201A9164804F078F947
:101A5000F0B904220DEB0201124804F071F9D0B97B
:101A6000082201A90F4804F06BF9B8B90D48FFF737
:101A7000D3FE0FB05DF804FBFFF7B8FACAE7FFF733
:101A8000B5FACFE7FFF7B2FAD0E7FFF7AFFAD5E73D
:101A9000FFF7ACFADDE7FFF7A9FAE1E7FFF7A6FAEF
:101AA000E4E700BFC00E0020000C004010B596B067
:101AB000002412941394149415941094119409947E
:101AC0000A940B940C940D940E940F9420222146AA
:101AD00001A80CF031FF2F482F4B0360A723436070
:101AE000846044F61F63C36004614461846104F050
:101AF00097F800283BD14FF48053129312A9254840
:101B000004F099F9002835D1224804F0B5F80028EE
:101B100033D100231093119310A91E4804F09CFAAE
:101B200000282DD16023099340F2DC530A9300234F
:101B30000B930C930D930E930F93082209A915484C
:101B400004F0FEF8F8B90023019302930393049381
:101B500005934FF400520692089301A90D4804F032
:101B6000C1FA98B90B48FFF757FE16B010BDFFF742
:101B70003DFAC0E7FFF73AFAC6E7FFF737FAC8E7DA
:101B8000FFF734FACEE7FFF731FADCE7FFF72EFA7A
:101B9000E8E700BF080F00200004014000B589B04D
:101BA00000230193029303930493059306930793F1
:101BB0001648174A026040F247324260836040F2A2
:101BC000CF72C2600361836104F02AF8A0B90F48A4
:101BD00004F052F898B96023019300220292039214
:101BE000059201A9094804F0ABF858B90748FFF776
:101BF00013FE09B05DF804FBFFF7F8F9E7E7FFF71C
:101C0000F5F9E8E7FFF7F2F9F0E700BF300E002042
:101C10000044014008B50B480B4B03600B4B43607D
:101C200000238360C3604FF4806202610C22426132
:101C30008361C36104F068FB00B908BDFFF7D6F902
:101C4000FBE700BF7010002000480040A0860100A4
:101C500008B50A480A4B03604FF4E13343600023A0
:101C60008360C36003610C2242618361C36104F03D
:101C70004BFB00B908BDFFF7B9F9FBE7B410002032
:101C80000014014030B58BB0044600230593069341
:101C90000793089309930368594A934204D0594A19
:101CA00093424AD00BB030BD00250195564B1A6CBB
:101CB00042F480221A641A6C02F480220192019A82
:101CC00002951A6B42F004021A631B6B03F00403C3
:101CD0000293029B4FF44063059302230693032370
:101CE00008930723099305A9484802F0BFFB484819
:101CF000484B03604FF0006343608560C5604FF45C
:101D000080630361456185614FF48073C3614FF463
:101D100040330362456202F01BFD58B93C4BA3639C
:101D20009C6300220521272002F0D6FE272002F026
:101D30000BFFB7E7FFF75AF9F0E700250395324BA1
:101D40005A6C42F020025A645A6C02F0200203924C
:101D5000039A04951A6B42F040021A631B6B03F05E
:101D600040030493049B4FF484430593022306939A
:101D7000032308930823099305A9274802F076FB5B
:101D80002648274B03604FF0206343608560C560A1
:101D90004FF480630361456185614FF48073C361D3
:101DA0000562456202F0D4FC18BB1C4BA3639C6324
:101DB0001C481D4B03604FF0206343604023836049
:101DC0000023C3604FF48062026143618361C36199
:101DD0000362436202F0BCFC70B9124B63639C6304
:101DE00000220521472002F077FE472002F0ACFEDA
:101DF00058E7FFF7FBF8D8E7FFF7F8F8EDE700BF83
:101E00000048004000140140003802400008024031
:101E1000500F00202860024000180240B00F002040
:101E20002864024010100020A0640240FEE7FEE794
:101E3000FEE7FEE7FEE7704708B5102002F010FC51
:101E400008BD000008B5024802F046FD08BD00BF0D
:101E5000500F002008B5024803F075F908BD00BF17
:101E6000C80C002008B5202002F0FAFB08BD0000D5
:101E700008B5034803F0B3FD024803F0B0FD08BD08
:101E8000F8100020300E002008B5024804F0F6FAE1
:101E900008BD00BF7010002008B5024802F01CFD0C
:101EA00008BD00BF180D002008B5024802F014FD5F
:101EB00008BD00BFB00F002008B5024802F00CFDBD
:101EC00008BD00BF780D002008B5024803F03BF9BB
:101ED00008BD00BFF00C002008B5024800F022FE4B
:101EE00008BD00BF1C26002008B5024802F0F4FC23
:101EF00008BD00BF1010002008B5024804F0BEFA6B
:101F000008BD00BFB410002000B583B000220092CD
:101F10000D4B596C41F480415964596C01F4804176
:101F2000009100990192196C41F0805119641B6C69
:101F300003F080530193019B0F216FF0010002F029
:101F4000CBFD03B05DF804FB0038024030B589B02A
:101F50000546002401941E4B5A6C42F001025A645B
:101F60005B6C03F001030193019B02A903A802F03B
:101F70005FFA02F04DFA43001648A0FB03239B0CC6
:101F8000013B1548154A026040F2E732C2604360E7
:101F900004618460846103F043FE044610B120466E
:101FA00009B030BD0C4803F0D1FC04460028F6D13E
:101FB000192002F0C9FD0F2D01D90124EFE70022FD
:101FC0002946192002F088FD054B1D60E7E700BF98
:101FD0000038024083DE1B43F8100020000001405F
:101FE0006800002008B500220F49104805F0E0FA0B
:101FF00070B90F490D4805F0F2FA60B90D490B4868
:1020000006F0D4FA50B9094805F003FB48B908BDF9
:10201000FEF7ECFFEDE7FEF7E9FFEFE7FEF7E6FF7F
:10202000F1E7FEF7E3FFF2E7000000204011002097
:10203000740000205000002012230B8000487047DD
:102040001C00002004230B80004870473000002053
:10205000002393421ED200B510E00CF1370C01F8BA
:1020600013C000014FEA430C0CF1010C4FF0000EBD
:1020700001F80CE00133DBB2934209D24FEA107C45
:10208000B0F1204FE9D20CF1300C01F813C0E8E7B1
:102090005DF804FB7047000038B50B4BD3F8100A0D
:1020A000D3F8144AD3F8183AC01800D138BD074DF8
:1020B0000822A91CFFF7CCFF042205F112012046DB
:1020C000FFF7C6FFF2E700BF0070FF1F34000020DB
:1020D00008B51A230B80FFF7DFFF014808BD00BFDA
:1020E0003400002008B50A4628B90549054805F01E
:1020F000DCFF034808BD0249024805F0D6FFF8E7B7
:102100001C140020F4FA000810B50A46034C2146BE
:10211000034805F0CAFF204610BD00BF1C14002074
:102120000CFB000808B50A4628B90549054805F022
:10213000BCFF034808BD0249024805F0B6FFF8E7B6
:102140001C14002020FB000808B50A4628B90549E0
:10215000054805F0AAFF034808BD0249024805F0FA
:10216000A4FFF8E71C1400202CFB00080020704797
:10217000002070470020704710B50146044C2046EF
:1021800006F02DFA204606F036FA002010BD00BFFA
:102190004011002010B5064C00220649204606F0EA
:1021A00010FA0549204606F01AFA002010BD00BFBB
:1021B000401100201C1E00201C16002030B589B0E4
:1021C0000023039304930593069307930368B3F1E5
:1021D000A04F01D009B030BD00250195164C236BEE
:1021E00043F001032363236B03F001030193019B7D
:1021F0004FF4E053039302230493032306930A232B
:10220000079303A90D4802F031F9636B43F0800393
:1022100063630295636C43F480436364636C03F40B
:1022200080430293029B2A460521432002F054FC7E
:10223000432002F089FCCDE7003802400000024054
:1022400008B500F2C441D0F8080505F0F8F908BD5A
:1022500008B501EBC10300EB8303D3F88C22D0F85F
:10226000080505F0B9FA08BD08B501EBC10300EB9C
:102270008303DA6CD0F8080505F011FB08BD08B53A
:10228000D0F8080505F053FA08BD10B50446C36838
:102290003BB1022B01D1012104E0FEF7A7FE012191
:1022A00000E00021D4F8080505F027FAD4F8080565
:1022B00005F0F1F910BD000010B50446D0F808058E
:1022C00005F01EFA2268D2F8003E43F00103C2F87E
:1022D000003E236A23B1034A136943F006031361E6
:1022E00010BD00BF00ED00E008B5D0F8080505F00E
:1022F00011FA08BD08B5D0F8080505F040FA08BD88
:1023000008B5D0F8080505F023FA08BD08B5D0F8DF
:10231000080505F04BFA08BD08B5D0F8080505F02A
:1023200047FA08BD02780AB10020704710B503468D
:102330001548C0F80835C3F8C8024FF0A043036041
:10234000042343600222C260002303618261C361EF
:1023500003624362C362036300F0F0F880B90A4C81
:102360008021204600F0E6FE40220021204600F0B9
:10237000BBFE80220121204600F0B6FE002010BDE9
:10238000FEF734FEEBE700BF1C260020D0F8C83271
:1023900011F0800F08D101F07F0101EBC10103EBC7
:1023A000810191F87E02704701F07F0101EBC101CC
:1023B00003EB810191F83E00704708B5D0F8C802E0
:1023C00000F0DFFA08BD000000487047282B00200D
:1023D0007047032805D8DFE800F005040205012056
:1023E00070470320704708B5D0F8C80200F03DF9E7
:1023F000FFF7EFFF08BD08B594461A466346D0F8CC
:10240000C80200F011FAFFF7E4FF08BD08B5D0F8E4
:10241000C80200F04EFAFFF7DCFF08BD08B5D0F89F
:10242000C80200F0E6FAFFF7D4FF08BD08B5D0F8FF
:10243000C80200F022FBFFF7CCFF08BD08B5D0F8BA
:10244000C80200F0DDF9FFF7C4FF08BD08B5D0F8F9
:10245000C80200F09FFAFFF7BCFF08BD08B5D0F82E
:10246000C80200F05FFAFFF7B4FF08BD2DE9F043A2
:1024700083B0D0F8008001EBC10300EB8303DA6D79
:102480005B6D9A4254D807460C469B1A01EBC10279
:1024900000EB8202926C9A4200D31A4602F10309C1
:1024A0004FEA990915E006F103094FEA990904EB8F
:1024B000C40507EB8505E96C3B7C0093B3B2E2B23F
:1024C000404601F008FAEB6C3344EB64EB6D3344A7
:1024D000EB6508EB441303F510639B699BB24B4516
:1024E00012D304EBC40207EB8202D16D536D994203
:1024F0000AD24BB15B1A04EBC40207EB8202966C62
:102500009E42D0D31E46CEE704EBC40007EB800703
:102510007A6DFB6D9A420FD804F00F040123A3409B
:10252000D8F8344824EA0304C8F83448002000E00E
:10253000012003B0BDE8F0830020FAE770B58AB04F
:10254000002800F090800546046890F8BD343BB345
:10255000032385F8BD34E36B13F4807F01D100239E
:102560002B61286800F0D2FE2C4654F8106BEC4624
:102570000FCCACE80F000FCCACE80F0094E80300E0
:102580008CE803002B1D0ECB304600F001FE044604
:1025900058B1022385F8BD34012420460AB070BD2D
:1025A00080F8BC34FFF70AFED2E70021286801F06A
:1025B000A9FB234616E003EBC30205EB82020121CF
:1025C00082F83D1082F83C30A2F84430002182F8B5
:1025D00040109164D16403EBC30205EB82025165A4
:1025E0000133DBB269688B42E5D316E004EBC40328
:1025F00005EB8303002283F87D2283F87C4283F875
:102600008022C3F88822C3F88C2204EBC40305EBB4
:102610008303C3F894220134E4B2A142E6D82C46E5
:1026200054F8106BEC460FCCACE80F000FCCACE8C4
:102630000F0094E803008CE803002B1D0ECB3046FE
:1026400000F0C0FE044620B1022385F8BD34012409
:10265000A3E7002385F83830012385F8BD342868C6
:1026600001F00DFB99E7012497E7026890F8BC346C
:10267000012B19D010B50446012380F8BC34836ABD
:10268000012B09D0206800F03BFE206801F0E9FA38
:10269000002084F8BC0410BD8369012BF2D0936B39
:1026A00043F480339363EDE70220704770B504462E
:1026B0000D460068066C00EB411303F530639A6821
:1026C0002169012911D038498E4256D03DB905EB18
:1026D000C50304EB8303D3F89432002B5ED0E9B238
:1026E0002046FFF7B5FD002070BD12F0080F09D09D
:1026F0002E498E42F7D912F4004FF4D04FF4004225
:102700009A60F0E712F0200F02D020229A60EAE7E8
:1027100012F0280FE7D125498E4206D912F4004F56
:1027200003D04FF400429A60DDE705EBC50204EBED
:102730008202D2F898121B69C3F31203CB1AC2F8B3
:102740009C327DB905EBC50204EB8202D2F89422DB
:102750006AB105EBC50204EB8202D2F88C120B447D
:10276000C2F88C32E9B22046FFF772FDBBE704F2F3
:10277000C442012101F008FBF4E712F4004F03D03A
:102780004FF400429A60AEE712F0200F01D02022F1
:102790009A60E9B22046FFF75BFDA4E704F2C44269
:1027A000002101F0F1FA9AE70A31544F0A30544FF0
:1027B00038B5044603681D6C03EB4113D3F8081BBE
:1027C0000E4A954207D903F5306311F4004F02D049
:1027D0004FF400429A602046FFF732FD074B9D42BE
:1027E00002D92369012B01D0002038BD04F2C44274
:1027F0000121206801F0C8FAF6E700BF0A30544F03
:1028000090F8BC34012B0DD010B50446012380F89C
:10281000BC3480F83810006801F013FA002084F806
:10282000BC0410BD0220704738B505468C4611F037
:10283000800F29D101F00F0E0EEBCE04A40004F599
:102840001E740444211D0EEBCE0E00EB8E0E0020F4
:102850008EF87D020CF00F0C81F800C0CA600B717D
:102860004A780AB1A1F808C0022B1DD095F8BC34F3
:10287000012B1CD0012385F8BC34286800F07BFEB6
:10288000002085F8BC0438BD01F00F0000EBC0014A
:10289000890038312944043100EBC00005EB800089
:1028A000012480F83D40D5E700234B71DEE702208C
:1028B000E9E710B504460A4611F0800F20D101F077
:1028C0000F0000EBC0039B0003F51E732344191D8A
:1028D00000EBC00004EB8000002380F87D3202F0A2
:1028E0000F020A7094F8BC34012B19D0012384F82C
:1028F000BC34206800F08EFE002084F8BC0410BDBB
:1029000001F00F0000EBC0039B0038332344191D76
:1029100000EBC00004EB8000012380F83D30DEE7CF
:102920000220ECE710B501F00F0404EBC4018900AC
:1029300001F51E710144043104EBC40C00EB8C0C56
:10294000CCF88C22CCF894320023CCF89C328CF852
:102950007D328CF87C420369012B06D064B9DAB26F
:10296000006800F0C7FE002010BD04EBC40C00EBB3
:102970008C0CCCF89022F1E7DAB2006800F0C2FFCC
:10298000F1E701F00F0101EBC10100EB8101D1F88A
:102990009C02704710B501F00F0404EBC4018900DC
:1029A00038310144043104EBC40C00EB8C0CCCF83E
:1029B0004C20CCF854300023CCF85C3001238CF848
:1029C0003D308CF83C400369012B06D064B9DAB283
:1029D000006800F08FFE002010BD04EBC40C00EB7B
:1029E0008C0CCCF85020F1E7DAB2006800F08AFFD6
:1029F000F1E738B501F00F054268954239D8044631
:102A00000B4611F0800F1FD101EBC101890001F5C8
:102A10001E710144043103EBC30300EB8303002266
:102A200083F87D2201238B700D7094F8BC34012B48
:102A300021D0012384F8BC34206801F0A7F88DB1BF
:102A4000002084F8BC0438BD05EBC501890038318D
:102A50000144043105EBC50300EB8303012283F835
:102A60003D20DFE704F2C442217C206801F08CF9AC
:102A7000E6E70120E7E70220E5E701F00F034268FF
:102A8000934231D810B5044611F0800F1ED103EBEC
:102A9000C301890001F51E710144043103EBC30237
:102AA00000EB8202002082F87D0200228A700B7007
:102AB00094F8BC34012B19D0012384F8BC3420686D
:102AC00001F091F8002084F8BC0410BD03EBC301B1
:102AD000890038310144043103EBC30200EB820268
:102AE000012082F83D00E0E7012070470220ECE77A
:102AF00008B511F0800F0CD101F00F0101EBC101FD
:102B0000890001F51E7101440431006800F084FE63
:102B100008BD01F00F0101EBC1018900383101440A
:102B20000431F2E72DE9F04F83B0044605682846EA
:102B300001F0E4F810B103B0BDE8F08F064620685C
:102B400001F0ABF80028F6D005F50067BB68C3F3C9
:102B50000D23C4F8FC34206801F09FF810F0020F38
:102B600004D02268536903F002035361206801F026
:102B700094F810F0100F13D02268936923F010031B
:102B80009361D5F8208008F00F09C8F34343022B66
:102B90004BD0062B6FD02268936943F010039361EA
:102BA000206801F07AF810F4002F76D1206801F047
:102BB00074F810F4802F40F0E080206801F06DF888
:102BC0000028C0F26381206801F067F810F4006FFC
:102BD00009D0BB6813F0010F40F07081226853697F
:102BE00003F400635361206801F057F810F4805F2C
:102BF00040F06881206801F050F810F4005F40F068
:102C0000B581206801F049F810F0080F40F0C68146
:102C1000206801F042F810F0800F00F0D981AB6914
:102C200023F08003AB610126C2E147F6F07318EA96
:102C3000030FB0D04FEA181B4FEAC903019309EB09
:102C4000C90A04EB8A0AC8F30A12DAF88C12284679
:102C500000F072FFCBF30A0BDAF88C325B44CAF84F
:102C60008C32019B4B4404EB8303D3F89C325B44CE
:102C7000CAF89C328FE7082204F2C441284600F0CB
:102C80005BFFC8F30A1809EBC90204EB8202D2F811
:102C90009C324344C2F89C327DE7206801F001F881
:102CA0008046B14635E005EB49130122C3F8082BF5
:102CB00049462046FFF7FAFC3CE005EB49130822A1
:102CC000C3F8082B49462046FFF772FD35E009EBB3
:102CD000C90304EB830393F87F32012B41D005EB4A
:102CE00049130222C3F8082B1AF0200F04D005EB79
:102CF00049132022C3F8082B1AF4005F05D005EB16
:102D000049134FF40052C3F8082B09F101094FEAA7
:102D10005808B8F1000F3FF449AF18F0010FF4D094
:102D20005FFA89FB5946206800F0CBFF824610F01D
:102D3000010FB8D11AF0080FBFD11AF0100F04D04C
:102D400005EB49131022C3F8082B1AF0020FCBD061
:102D50006B6913F0800FBAD07B6843F480637B60AB
:102D6000B5E709EBC90304EB8303002283F87F2254
:102D700059462046FFF7BEFAB1E7206800F099FFF8
:102D80008046B14625E059462046FFF76DFA1AF015
:102D9000080F04D005EB49130822C3F808291AF0DC
:102DA000100F04D005EB49131022C3F808291AF0BC
:102DB000400F04D005EB49134022C3F808291AF04C
:102DC000020F40D11AF0800F5BD109F101094FEADF
:102DD0005808B8F1000F3FF4F0AE18F0010FF4D02E
:102DE0005FFA89FB5946206800F074FF824610F0B4
:102DF000010FCCD009F00F03012101FA03F27B6B24
:102E000023EA02037B6305EB4913C3F8081923691E
:102E10008B42B8D109EBC90304EB8303996CDA6CDC
:102E20000A44DA64B9F1000FADD109EBC90304EB30
:102E300083035B6D002BA6D104F2C44201212068FC
:102E400000F0A2FF9FE74946284600F065FA09EB2B
:102E5000C90304EB830393F83F30012B05D005EB46
:102E600049130222C3F80829ACE709EBC90304EBB4
:102E70008303002283F83F2059462046FFF740FA9B
:102E8000EDE749462046FFF7F1FA9EE77B6823F01D
:102E900001037B6094F8F434012B08D02046FFF73F
:102EA00023FA2268536903F0004353618BE6002143
:102EB00084F8F414204600F041F9F2E72046FFF7C9
:102EC000FBF98BE67B6823F001037B60102120680F
:102ED00000F022FA1AE005EB46134FF67F31C3F8F3
:102EE0000819D3F8002922F40012C3F80029C3F806
:102EF000081BD3F8002B22F40012C3F8002BD3F8E0
:102F0000002B42F00062C3F8002B01366368B34225
:102F1000E1D8FB6943F00113FB61236BDBB1D7F808
:102F2000843043F00B03C7F884307B6C43F00B0311
:102F30007B64D5F8003823F4FE63C5F8003804F24A
:102F4000C442217C206800F01FFF2268536903F40B
:102F5000805353614EE67B6943F4005343F02B03E7
:102F60007B613B6943F00B033B61E2E7206800F0C3
:102F7000FAFE206800F0EEFAE060266801F032FA0E
:102F80000146227B304600F049F92046FFF77DF9E3
:102F90002268536903F40053536132E62046FFF779
:102FA0006EF92268536903F00803536130E6013675
:102FB0006368B3420CD906EBC60304EB830393F8B2
:102FC0007F32012BF3D1F1B22046FFF791FDEEE7FE
:102FD000206800F062FE10F4801F27D1206800F006
:102FE0005CFE10F4001F5BD0012328E0013663680B
:102FF000B3421DD905EB4613D3F8002906EBC603EF
:1030000004EB830393F84030012BEFD1002AEDDA73
:1030100006EBC60304EB8303012283F83F2066F02E
:103020007F01C9B22046FFF763FDDFE70126DEE737
:103030002268536903F480135361CFE70133626858
:103040009A4228D905EB4312D2F8001B03EBC302C6
:1030500004EB820292F88022012AEFD10029EDDAF6
:1030600001F48031D4F8FC2402F001029142E5D150
:1030700003EBC30204EB8202012182F87F12AA69EA
:1030800042F08002AA616A6912F0800FD6D17B6893
:1030900043F400737B602268536903F400135361A7
:1030A000206800F0FAFD10F0804F10D1206800F089
:1030B000F4FD10F0040F3FF43EAD23685D6815F099
:1030C000040F0DD1226853682B43536033E520462B
:1030D000FFF71CF92268536903F080435361E5E769
:1030E0002046FFF719F9EDE710B40468606A31B9BA
:1030F00040EA0240A06200205DF8044B70478C4615
:10310000A36A00EB1340002308E003F1400104EB45
:103110008101496800EB11400133DBB20CF1FF3152
:103120008B42F2D340EA02400CF13F0104EB8101F3
:103130004860E0E70368596200207047704700006C
:1031400082B000230193019B01330193019A0F4B3D
:103150009A4215D80369002BF5DA0023019303691D
:1031600043F001030361019B01330193019A074B73
:103170009A4208D8036913F0010FF4D1002000E04F
:10318000032002B070470320FBE700BF400D03009F
:1031900084B010B5044603A880E80E00089B012BFC
:1031A0001FD1A36B23F48033A363E36823F4840368
:1031B00023F04003E360E36823F44013E3600F9BD4
:1031C000012B09D02046FFF7BBFF069B012B1BD02C
:1031D000BDE8104004B07047E36843F48013E36037
:1031E000F0E7E36843F04003E3602046FFF7A8FF01
:1031F0000C9B23B9A36B43F48033A363E5E7A36B74
:1032000023F48033A363E0E7A36843F00603A360DD
:10321000A36843F02003A360DAE70000022A0AD083
:103220000921C26822F47052C260C36843EA812354
:10323000C36000207047234B0B44234A93422FD98D
:10324000224B0B44224A93422CD9A1F57403A3F5D7
:103250001053204A934227D9A1F18373A3F5E74382
:103260001D4A934222D31D4B0B441D4A93421FD942
:103270001C4B0B441C4A93421CD31C4B0B441C4A52
:10328000934219D3A1F1B773A3F55853194A934246
:1032900014D3194B0B44194A934211D20721C0E7AA
:1032A0000F21BEE70E21BCE70D21BAE70C21B8E7DC
:1032B0000B21B6E70A21B4E70921B2E70821B0E7FC
:1032C0000621AEE7405327FFFF340C00401E1BFFD2
:1032D0003F420F007F4F120020D6130060B6E5FE7C
:1032E0005FE3160000D3CEFE40771B00C05BB3FE49
:1032F000C091210020753800E05459FEE09C410047
:10330000836843F00103836000207047836823F0E3
:10331000010383600020704782B000230193019B6A
:1033200001330193019A0F4B9A4215D80369002B80
:10333000F5DA00230193890141F020010161019B2D
:1033400001330193019A074B9A4208D8036913F09D
:10335000200FF4D1002000E0032002B070470320CA
:10336000FBE700BF400D030082B000230193019BE7
:1033700001330193019A0E4B9A4213D80369002B33
:10338000F5DA0023019310230361019B01330193BC
:10339000019A074B9A4208D8036913F0100FF4D131
:1033A000002000E0032002B070470320FBE700BFCD
:1033B000400D0300D0F800381943C0F80018002071
:1033C0007047000084B02DE9F041044607A880E86A
:1033D0000E00002306E003F1400204EB820200210C
:1033E000516001330E2BF6D9119F27BBD4F8043856
:1033F00043F00203C4F80438A36B43F40013A3633F
:10340000A36B23F40023A363A36B23F48023A363A0
:103410000023C4F8003E04F50065D4F80038C4F871
:1034200000380C9B012B14D1099B6BB9002120465D
:10343000FFF7C0FF11E0A36B23F40013A363A36B9A
:1034400043F40023A363E3E701212046FFF7B2FF23
:1034500003E003212046FFF7ADFF10212046FFF7D0
:103460005BFF804608B14FF001082046FFF77CFF64
:1034700008B14FF0010800232B616B61EB610AE09A
:10348000C3B94FF00060C2F8000900220A614FF68C
:103490007F328A6001330799994210D904EB4312B5
:1034A00002F51061D2F800090028E9DB0020C2F81B
:1034B0000009EAE74FF09040C2F80009E5E7002371
:1034C0000AE0C3B14FF0904CC2F800CB0022026179
:1034D0004FF67F3282600133994211D904EB4312D7
:1034E00002F53060D2F8006B002EEADB4FF0000CE2
:1034F000C2F800CBEAE74FF0006CC2F800CBE5E77A
:103500002B6923F480732B610023A3616FF0804348
:1035100063610A9B1BB9A36943F01003A361A2690D
:103520000B4B1343A3610D9B1BB1A36943F008032D
:10353000A361012F04D04046BDE8F04104B07047BC
:10354000A36943F0804343F00403A361F3E700BFA2
:1035500000383C80D0F8083813F0060307D0022B5F
:1035600007D0062B01D00F207047022070470020A3
:1035700070470220704710B591F800C04B78012BBE
:1035800023D000F5006ED0F81C380CF00F04012297
:10359000A24043EA0243C0F81C3800EB4C10D0F8BC
:1035A000003B13F4004F0ED1D0F8003BCA68C2F3C1
:1035B0000A02097942EA8142134343F0805343F4FB
:1035C0000043C0F8003B002010BDD0F81C280CF0D0
:1035D0000F0E03FA0EF39BB21343C0F81C3800EB36
:1035E0004C10D0F8003913F4004FECD1D0F800396A
:1035F000CA68C2F30A02097942EA814242EA8C5C53
:1036000043EA0C0343F0805343F40043C0F800390D
:10361000D9E7000030B40B784A78012A26D000EBB5
:103620004313D3F8002B002A52DBD0F83C480A7829
:1036300002F00F024FF0010C0CFA02F224EA0242EF
:10364000C0F83C28D0F81C28097801F00F010CFACA
:1036500001FC22EA0C42C0F81C28D3F8001B234AC4
:103660000A40C3F8002B002030BC704700EB431326
:10367000D3F80029002A1EDBD0F83C580A7802F063
:103680000F02012404FA02F292B225EA0202C0F803
:103690003C28D0F81C28097801F00F018C40A4B216
:1036A00022EA0404C0F81C48D3F80019104A0A4062
:1036B000C3F80029D7E7D3F8002942F00062C3F825
:1036C0000029D3F8002942F08042C3F80029D3E74B
:1036D000D3F8002B42F00062C3F8002BD3F8002B84
:1036E00042F08042C3F8002B9FE700BF0078F3EF61
:1036F000007833EC70B40B784C78012C29D000EBB7
:10370000431000F530631C69E40CE4041C611C697F
:1037100024F0FF5424F4C0141C618C690CB1CC68F3
:103720008C61CC68CC611C6944F400241C611C6968
:10373000CD69C5F3120C44EA0C041C61012A66D061
:10374000D0F8003B43F00443C0F8003B002070BCBD
:1037500070478C696CBB00EB4314D4F8105925F00A
:10376000FF5525F4C015C4F81059D4F8105945F484
:103770000025C4F81059D4F81059ED0CED04C4F824
:103780001059012A34D000EB4313D3F8002942F03A
:103790000442C3F800298B69002BD7D0D0F8343805
:1037A0000A7802F00F0101228A401343C0F834382E
:1037B000CCE700EB431404F510642569ED0CED042F
:1037C0002561256925F0FF5525F4C0152561CD68D3
:1037D0008E69AE4200D98D61256945F400252561C9
:1037E00025698E69C6F3120C45EA0C052561C8E708
:1037F0004A691AB100EB4311C1F8142900EB4310D8
:10380000D0F8002942F00442C0F800299EE70A6976
:10381000002A95D05A6193E710B483B00246002382
:103820000193487801280BD00B7802EB4313D3F8AF
:10383000000B00282DDB002003B05DF8044B70471F
:103840000B7802EB4313D3F80049002C01DB002076
:10385000F2E7D3F8004944F00064C3F800490B785C
:1038600002EB4313D3F8004944F08044C3F8004905
:10387000019B01330193019C42F210739C42DBD8FF
:103880000B7802EB4313D3F80039002BF0DB002058
:10389000D2E7D3F8000B40F00060C3F8000B0B78C0
:1038A00002EB4313D3F8000B40F08040C3F8000B49
:1038B000019B01330193019842F21073984208D89A
:1038C0000B7802EB4313D3F8003B002BF0DB002016
:1038D000B2E70120B0E710B59DF8084084B9033382
:1038E0004FEA930E4FF0000C08E000EB023303F5B3
:1038F000805351F8044B1C600CF1010CF445F4D3D7
:10390000002010BDF0B583B00B784C78012C33D07B
:1039100000EB431303F5306CDCF81040E40CE404D6
:10392000CCF81040DCF8104024F0FF5424F4C0140C
:10393000CCF810408C69002C40F0C780DCF81040B7
:10394000CD68C5F312052C43CCF81040DCF81040CC
:1039500044F40024CCF81040012A00F0D0800A7909
:10396000012A00F0D380D3F8002B42F00442C3F8C0
:10397000002B002003B0F0BD8C6984BB00EB431426
:10398000D4F8105925F0FF5525F4C015C4F8105986
:10399000D4F8105945F40025C4F81059D4F810593A
:1039A000ED0CED04C4F81059012A4CD000EB431380
:1039B000D3F8004944F00444C3F800490C79012CC1
:1039C0006AD08B69002BD4D0D0F834380A7802F052
:1039D0000F0101228A401343C0F83438C9E700EBD5
:1039E0004314D4F81059ED0CED04C4F81059D4F870
:1039F000105925F0FF5525F4C015C4F81059D4F816
:103A000010698D69CF683D44013DB5FBF7F5494F1D
:103A100007EAC5453543C4F81059D4F810598E69E2
:103A2000C6F312063543C4F8105904F510640D7935
:103A3000012DB9D1256925F0C0452561256945F0DD
:103A400000552561B0E74A691AB100EB4314C4F888
:103A500014290A79012A08D000EB4313D3F800296E
:103A600042F00442C3F8002983E7D0F8082812F492
:103A7000807F08D100EB4311D1F8002942F00052B9
:103A8000C1F80029E8E700EB4311D1F8002942F022
:103A90008052C1F80029DFE7D0F8084814F4807F8D
:103AA0000CD1D3F8004944F00054C3F80049009207
:103AB0000B8B0A780969FFF70EFF5AE7D3F8004924
:103AC00044F08054C3F80049F1E7CD682C44013C30
:103AD000B4FBF5F4A4B204FB05F5CD61DCF810509D
:103AE000144E06EAC4442C43CCF81040DCF81040D5
:103AF000CD69C5F312052C43CCF810402CE70A69B8
:103B0000002A3FF42CAFCCF8142028E7D0F808287E
:103B100012F4807F06D1D3F8002B42F00052C3F894
:103B2000002B20E7D3F8002B42F08052C3F8002B83
:103B300019E700BF0000F81F00B583B084460846AF
:103B40004FEA920E02F00302002305E00CF58051CB
:103B5000096840F8041B01337345F7D39AB10CF59B
:103B6000805CDCF8003001934FF0000C5FFA8CF3BE
:103B7000D900019BCB4000F8013B0CF1010C013A4C
:103B800092B2002AF2D103B05DF804FB0B784A78B8
:103B9000012A14D000EB4310D0F8002B002A06DBDA
:103BA0002BB1D0F8003B23F08043C0F8003BD0F8A5
:103BB000003B43F40013C0F8003B0020704700EBCB
:103BC0004310D0F80029002A06DB2BB1D0F80039C9
:103BD00023F08043C0F80039D0F8003943F40013D3
:103BE000C0F80039E9E70B784A78012A0ED000EBDB
:103BF0004310D0F8003B23F40013C0F8003B0B79CE
:103C0000023BDBB2012B15D90020704700EB4310BB
:103C1000D0F8003923F40013C0F800390B79023BC7
:103C2000DBB2012BF0D8D0F8003943F08053C0F854
:103C30000039E9E7D0F8003B43F08053C0F8003B7F
:103C4000E2E7D0F8003823F4FE63C0F80038D0F87B
:103C50000038090101F4FE611943C0F80018002082
:103C60007047D0F8003E23F00303C0F8003ED0F8C0
:103C7000043823F00203C0F8043800207047D0F85D
:103C8000003E23F00303C0F8003ED0F8043843F0B0
:103C90000203C0F804380020704742698069104070
:103CA0007047D0F8183800F50060C0691840000C63
:103CB0007047D0F8183800F50060C069184080B22D
:103CC000704700EB4111D1F8082B00F50060406906
:103CD0001040704710B4D0F81048D0F8343801F0D4
:103CE0000F02D340DB01DBB2234300EB411000F5B0
:103CF0001060806818405DF8044B7047406900F020
:103D00000100704738B50546C36823F0C043C3605F
:103D1000012913D019BBC36843F08043C36000245A
:103D2000012000F04BFF01342846FFF7E7FF08B100
:103D3000312CF5D9322C14D0002038BDC36843F0A3
:103D40000053C3600024012000F038FF01342846EE
:103D5000FFF7D4FF0128EDD0312CF4D9EAE7012098
:103D6000EBE70120E9E7D0F8003923F4FF6323F003
:103D70000703C0F80039D0F8043843F48073C0F862
:103D8000043800207047000010B4046C154B9C42AE
:103D900003D9D0F8003B002B16DB0024C0F8104BF1
:103DA000D0F8104B44F40024C0F8104BD0F8104B5E
:103DB00044F01804C0F8104BD0F8104B44F0C04445
:103DC000C0F8104B012903D000205DF8044B704768
:103DD000C0F8142BD0F8003B43F08023C0F8003B20
:103DE000F2E700BF0A30544F002800F0E08170B5C0
:103DF00082B00446036813F0010F3BD09F4B9B68D1
:103E000003F00C03042B2CD09C4B9B6803F00C0399
:103E1000082B21D06368B3F5803F4FD0B3F5A02FB6
:103E200052D0964B1A6822F480321A601A6822F433
:103E300080221A606368002B50D000F0B9FE05465E
:103E40008E4B1B6813F4003F14D100F0B1FE401BF1
:103E50006428F5D90320B1E1884B5B6813F4800F27
:103E6000D8D0864B1B6813F4003F03D06368002B47
:103E700000F09F81236813F0020F54D07F4B9B68A2
:103E800013F00C0F3ED07D4B9B6803F00C03082B06
:103E900033D0E368002B68D0794B01221A6000F020
:103EA00087FE0546754B1B6813F0020F54D100F0D6
:103EB0007FFE401B0228F5D903207FE16F4A13687B
:103EC00043F480331360B5E76C4B1A6842F48022E8
:103ED0001A601A6842F480321A60ABE700F068FE9C
:103EE0000546664B1B6813F4003FC3D000F060FE2C
:103EF000401B6428F5D9032060E1604B5B6813F434
:103F0000800FC6D15D4B1B6813F0020F03D0E3682E
:103F1000012B40F05081594A136823F0F8032169BE
:103F200043EAC1031360236813F0080F42D06369AA
:103F30006BB3534B0122C3F8802E00F039FE0546C7
:103F40004E4B5B6F13F0020F34D100F031FE401B7B
:103F50000228F5D9032031E1484A136823F0F80319
:103F6000216943EAC1031360DDE7454B00221A6073
:103F700000F01EFE0546414B1B6813F0020FD2D025
:103F800000F016FE401B0228F5D9032016E13C4B39
:103F90000022C3F8802E00F00BFE0546374B5B6F06
:103FA00013F0020F06D000F003FE401B0228F5D9E3
:103FB000032003E1236813F0040F77D02F4B1B6C11
:103FC00013F0805F33D1002301932C4B1A6C42F025
:103FD00080521A641B6C03F080530193019B0125EE
:103FE000284B1B6813F4807F23D0A368012B34D0A7
:103FF000052B38D0214B1A6F22F001021A671A6F75
:1040000022F004021A67A368002B3DD000F0D0FD17
:1040100006461A4B1B6F13F0020F46D100F0C8FD85
:10402000801B41F288339842F3D90320C6E0002573
:10403000D6E7144A136843F48073136000F0B8FDA8
:104040000646104B1B6813F4807FCED100F0B0FD04
:10405000801B0228F5D90320B0E0084A136F43F013
:1040600001031367CFE7054B1A6F42F004021A678A
:104070001A6F42F001021A67C5E700BF003802401C
:10408000000047420070004000F092FD0646524B8F
:104090001B6F13F0020F08D000F08AFD801B41F265
:1040A00088339842F3D9032088E0EDB9A369002B47
:1040B00000F08380484A926802F00C02082A51D02E
:1040C000022B17D0454B00221A6600F071FD044602
:1040D000414B1B6813F0007F42D000F069FD001BCC
:1040E0000228F5D9032069E03B4A136C23F0805382
:1040F0001364DBE7394B00221A6600F059FD0546D0
:10410000354B1B6813F0007F06D000F051FD401BBB
:104110000228F5D9032051E0E369226A1343626A59
:1041200043EA8213A26A5208013A43EA0243E26A6E
:1041300043EA0263284A5360284B01221A6600F0C2
:1041400037FD0446244B1B6813F0007F06D100F0B6
:104150002FFD001B0228F5D903202FE000202DE0C1
:1041600000202BE0012B2BD01B4B5B6803F480015C
:10417000E269914226D103F03F02216A8A4223D1AB
:10418000616A47F6C0721A40B2EB811F1ED103F478
:104190004031A26A5208013AB1EB024F18D103F044
:1041A0007063E26AB3EB026F14D1002006E00120D5
:1041B0007047012002E0012000E0002002B070BD45
:1041C0000120FBE70120F9E70120F7E70120F5E7EF
:1041D0000120F3E70120F1E70038024000004742E8
:1041E00008B5254B9B6803F00C03042B3FD0082B2C
:1041F0003FD1214B5A6802F03F025B6813F4800FF5
:1042000012D01D4B5968C1F388111C480023A1FB33
:104210000001FCF709FD184B5B68C3F30143013350
:104220005B00B0FBF3F025E0134B5968C1F3881C29
:104230004FEA4C11B1EB0C006EEB0E0E4FEA8E13F1
:1042400043EA90638101091A63EB0E03DB0043EA42
:104250005173C90011EB0C0C43F1000399020023C8
:104260004FEA8C2041EA9C51FCF7DEFCD3E703487F
:1042700000E0034808BD00BF00380240001BB70043
:104280000024F400002800F09B8070B50D46044621
:104290004F4B1B6803F007038B4208D2CBB24C4A4A
:1042A0001370136803F007038B4240F08B80236880
:1042B00013F0020F17D013F0040F04D0454A93688F
:1042C00043F4E0539360236813F0080F04D0414A8D
:1042D000936843F4604393603E4A936823F0F0038D
:1042E000A1680B439360236813F0010F32D0636819
:1042F000012B21D09A1E012A25D9364A126812F0C4
:10430000020F61D033498A6822F0030213438B60A5
:1043100000F04EFC06462F4B9B6803F00C036268CE
:10432000B3EB820F16D000F043FC801B41F28833C0
:104330009842F0D9032042E0264A126812F4003F66
:10434000E0D101203BE0234A126812F0007FD9D16E
:10435000012034E01E4B1B6803F00703AB4207D972
:10436000EAB21B4B1A701B6803F00703AB422DD156
:10437000236813F0040F06D0164A936823F4E05321
:10438000E1680B439360236813F0080F07D0114ACC
:10439000936823F46043216943EAC1039360FFF704
:1043A0001FFF0C4B9B68C3F303130B4AD35CD8402D
:1043B0000A4B18600A4B1868FDF7C8FD002070BD55
:1043C000012070470120FAE70120F8E70120F6E715
:1043D000003C02400038024044FB00086C00002012
:1043E00068000020014B1868704700BF6C00002077
:1043F00008B5FFF7F7FF044B9B68C3F38223034A1A
:10440000D35CD84008BD00BF0038024054FB000810
:1044100008B5FFF7E7FF044B9B68C3F34233034A39
:10442000D35CD84008BD00BF0038024054FB0008F0
:104430000F2303600B4B9A6802F0030242609A68F4
:1044400002F0F00282609A6802F4E052C2609B6857
:10445000DB0803F4E0530361034B1B6803F007031D
:104460000B60704700380240003C024000230F2BD5
:1044700000F2E48070B582B060E085685E000324DD
:10448000B44025EA0405CC68B4402C4384604568F8
:1044900025EA02054C68C4F300129A402A434260A0
:1044A0005AE0DC08083450F8246003F00702950055
:1044B0000F22AA4026EA020E0A69AA4042EA0E0228
:1044C00040F824205CE0072200E0002202FA0EF20D
:1044D0002A4302345A4D45F824205A4A94686FEA18
:1044E0000C0224EA0C054E6816F4801F01D04CEA39
:1044F0000405544CA560E46802EA04054E6816F40D
:10450000001F01D04CEA04054E4CE560646802EAE5
:1045100004054E6816F4003F01D04CEA0405494CEE
:104520006560246822404D6815F4803F01D04CEA54
:104530000402444C226001330F2B7DD801229A40A3
:104540000C6804EA020C32EA0404F4D14C6804F06A
:104550000304013C012C90D94A6802F00302032AAB
:1045600009D0C4685D000322AA4024EA02048A68D4
:10457000AA402243C2604A6802F00302022A90D095
:1045800004684FEA430E032202FA0EF224EA020400
:104590004A6802F0030202FA0EF2224302604A68FD
:1045A00012F4403FC7D000220192274A546C44F4D1
:1045B00080445464526C02F480420192019A9C0837
:1045C000A51C1F4A52F8255003F003024FEA820E41
:1045D0000F2202FA0EF225EA02051C4A90423FF42D
:1045E00074AF02F5806290421AD002F58062904268
:1045F00018D002F58062904216D002F58062904297
:1046000014D002F58062904212D002F5806290428E
:1046100010D002F5806290423FF455AF082255E772
:10462000012253E7022251E703224FE704224DE71C
:1046300005224BE7062249E702B070BD704700BF74
:1046400000380140003C01400038024000000240B8
:104650000AB18161704709048161704770470000A9
:1046600008B5054B5B69034200D108BD024B586198
:10467000FFF7F4FFF9E700BF003C014010B4036806
:10468000D9B210390C4AA2FB014212090B4CA25CB0
:10469000C2655F2909D923F47F7323F00303043330
:1046A0008365806D5DF8044B704723F47F7323F0BE
:1046B00003038365F5E700BFABAAAAAA3CFB000889
:1046C000836A826992B9012B0AD0022B02D00BB106
:1046D00000207047C36A13F0807F28D10020704704
:1046E000C36AB3F1C07F24D000207047B2F5005FE9
:1046F00009D0022B25D9032B25D1C36A13F0807F63
:1047000023D100207047032B03D8DFE803F0140403
:10471000140A00207047C36A13F0807F0DD1002077
:104720007047C36AB3F1C07F09D0002070470120F1
:104730007047012070470120704701207047012019
:10474000704701207047002070470120704700002B
:1047500070B5044600F02CFA002C5BD0054602230D
:1047600084F83530002384F834302268136823F04D
:104770000103136023681A6812F0010F0AD000F0D9
:1047800017FA431B052BF5D920236365032084F812
:10479000350070BD1A68204810406168A2680A435D
:1047A000E1680A4321690A4361690A43A1690A432E
:1047B000E1690A43216A0A430243616A04291ED05F
:1047C0001A602668756925F00705636A1D43042B86
:1047D00007D1A36A1D43E36A1BB12046FFF770FFB0
:1047E00090B975612046FFF749FFE26D3F23934082
:1047F000836000206065012384F83530C9E7E16AF1
:10480000206B01430A43DBE740236365012084F802
:104810003500BEE70120BCE73F8010F070B50446CC
:10482000866D00F0C5F994F83530DBB2022B06D066
:1048300080236365002384F83430012070BD054671
:104840002268136823F0160313602268536923F06B
:1048500080035361236CE3B12268136823F00803DB
:1048600013602268136823F00103136023681B6838
:1048700013F0010F11D000F09BF9431B052BF5D964
:1048800020236365032084F83500002384F8343046
:10489000D4E7A36C002BDFD1E3E7E26D3F23934025
:1048A000B360012384F83530002084F83400C5E774
:1048B00090F83530DBB2022B03D080234365012012
:1048C0007047052380F835300268136823F0010330
:1048D0001360002070470000F0B583B00446002349
:1048E0000193724B1D68724BA3FB0535AD0A876DB2
:1048F0003E68C26D08239340334210D003681A68A3
:1049000012F0040F0BD01A6822F004021A60C26D74
:1049100008239340BB60436D43F001034365E26DA0
:1049200001239340334209D02268526912F0800F6C
:1049300004D0BB60636D43F002036365E26D042342
:104940009340334209D02268126812F0020F04D05B
:10495000BB60636D43F004036365E26D1023934015
:10496000334224D02268126812F0080F1FD0BB60B7
:1049700023681A6812F4802F0DD01B6813F4002FDF
:1049800004D1236C9BB12046984710E0A36C73B10F
:10499000204698470BE01A6812F4807F03D11A680A
:1049A00022F008021A60236C0BB120469847E26D92
:1049B00020239340334255D02268126812F0100F22
:1049C00050D0BB6094F83530DBB2052B0ED0236895
:1049D0001A6812F4802F33D01B6813F4002F2AD1E9
:1049E000636C002B3ED0204698473BE0226813685A
:1049F00023F0160313602268536923F08003536188
:104A0000236CA3B12268136823F008031360E26DDE
:104A10003F239340BB60012384F83530002384F8A2
:104A20003430236D002B3FD0204698473CE0A36CE8
:104A3000002BE7D1EBE7E36BA3B12046984711E0E9
:104A40001A6812F4807F09D11A6822F010021A60E5
:104A5000012384F83530002384F83430E36B0BB144
:104A600020469847636DFBB1636D13F0010F17D0BB
:104A7000052384F835302268136823F0010313609E
:104A8000019B01330193AB4204D823681B6813F0E8
:104A9000010FF5D1012384F83530002384F8343038
:104AA000E36C0BB12046984703B0F0BD6C000020CA
:104AB000B5814E1B074AD36823F4E0631B041B0C2B
:104AC000000200F4E060034343F0BF6343F40033AB
:104AD000D360704700ED00E000B5194BDB68C3F30D
:104AE0000223C3F1070CBCF1040F28BF4FF0040CE4
:104AF00003F1040EBEF1060F18D9033B4FF0FF3E41
:104B00000EFA0CFC21EA0C0199400EFA03F322EA9A
:104B10000303194300280BDB0901C9B200F160400F
:104B200000F5614080F800135DF804FB0023E5E721
:104B300000F00F000901C9B2024B1954F4E700BF9D
:104B400000ED00E014ED00E0002807DB00F01F029C
:104B5000400901239340024A42F82030704700BFC9
:104B600000E100E008B50B4B1A6842F400721A60CD
:104B70001A6842F480621A601A6842F480721A60FD
:104B80000320FFF797FF0520FDF7E0F9FDF7BCF9DB
:104B9000002008BD003C0240034A1168034B1B780B
:104BA0000B441360704700BF482D002064000020B4
:104BB000014B1868704700BF482D002038B50446E7
:104BC000FFF7F6FF0546B4F1FF3F02D0044B1B7818
:104BD0001C44FFF7EDFF401BA042FAD338BD00BFD5
:104BE00064000020002800F0A18038B5044690F849
:104BF0002030D3B12268136843F001031360FFF73C
:104C0000D7FF054623685A6812F0010F10D1FFF74D
:104C1000CFFF401B0A28F5D9636A43F4003363626F
:104C2000052384F82030012038BDFCF70FFCE1E7B4
:104C30001A6822F002021A60FFF7BAFF05462368DD
:104C40005A6812F0020F0DD0FFF7B2FF401B0A287E
:104C5000F5D9636A43F400336362052384F8203096
:104C60000120E1E7227E012A3DD01A6822F080026D
:104C70001A60637E012B3BD02268136823F0400347
:104C80001360A37E012B39D02268136823F0200320
:104C90001360E37E012B37D02268136843F01003C2
:104CA0001360237F012B35D02268136823F008039B
:104CB0001360637F012B33D02268136823F0040351
:104CC0001360A368E26813432269134362691343C4
:104CD0006268013A21681343CB61002060620123BE
:104CE00084F82030A0E71A6842F080021A60C0E71A
:104CF0002268136843F040031360C2E72268136818
:104D000043F020031360C4E72268136823F0100304
:104D10001360C6E72268136843F008031360C8E70E
:104D20002268136843F004031360CAE70120704748
:104D300090F82030013BDBB2012B05D9436A43F4E4
:104D4000802343620120704730B5464BD3F80022E0
:104D500042F00102C3F80022D3F8002222F47C5270
:104D6000C3F80022D3F80022486A42EA0022C3F8BE
:104D700000224A6902F01F02012000FA02F2D3F871
:104D80001C026FEA020C20EA0200C3F81C02CB6985
:104D9000C3B9344BD3F80C020CEA0000C3F80C0280
:104DA0008C884869CD6844EA0544483043F830406F
:104DB0008C68088840EA04404C6904F1480E03EB13
:104DC000CE035860CB69012B1ED08B69002B33D1E9
:104DD0002448D0F804320CEA0303C0F804320B690B
:104DE0008BBB2048D0F814320CEA0303C0F814320D
:104DF0000B6A012B2ED01B4AD2F8003223F001039C
:104E0000C2F80032002030BD164BD3F80C0210431C
:104E1000C3F80C028C8848690D6844EA05444830A0
:104E200043F8304088894C698D6840EA0540483431
:104E300003EBC4035860C8E70A48D0F804321343B0
:104E4000C0F80432CBE70748D0F814321343C0F857
:104E50001432CDE70349D1F81C321A43C1F81C22A1
:104E6000C9E700BF0064004070B5044690F82050C8
:104E7000EDB2012D06D0436A43F4002343620125BD
:104E8000284670BD022380F820300268136823F0A2
:104E900001031360FFF78CFE064623685B6813F07E
:104EA000010F0CD0FFF784FE831B0A2BF5D9636A30
:104EB00043F400336362052384F82030E0E70025E3
:104EC0006562DDE730B590F820C00468A4680CF195
:104ED000FF3C5FFA8CFCBCF1010F6BD814F0E05F73
:104EE00062D0C4F3016CBCF1020F05D9436A43F4EC
:104EF00000034362012062E0012404FA0CF41C6008
:104F00008B68002B3DD10D68CB68046843EA45559A
:104F10000CF118031B01E55003680C690CF1180E25
:104F200003EB0E135C600B7D012B35D0D1799379A7
:104F30001B0443EA0163517943EA012314790168B0
:104F4000234301EB0C11C1F88C31D17893781B0409
:104F500043EA0163517843EA0123117802680B4365
:104F600002EB0C12C2F8883102680CF1180C4FEAFF
:104F70000C1C52F80C3043F0010342F80C300020B6
:104F80001DE04C6843EAC403CC6823430CF11804C9
:104F9000240105682B51BFE7036803EB0E13596822
:104FA00041F480715960C1E7436A43F400134362DE
:104FB000012004E0436A43F480234362012030BDB2
:104FC00090F820C00CF1FF3C5FFA8CFCBCF1010FA3
:104FD00000F2958030B451B90468E46814F0030F0E
:104FE00010D1436A43F400134362012077E0046860
:104FF000246914F0030F05D1436A43F4001343629C
:1050000001206CE001F11B04240105682C5904F017
:1050100004049460002C64D101F11B042401056890
:105020002C59640D1460046801F11B0C4FEA0C1C30
:1050300054F80C4004F00204D460046864446468CA
:1050400004F00F041461046864446468C4F3072422
:105050009461046864446468240C5461026802EB3F
:105060000112D2F8B8211A70026802EB0112D2F8CC
:10507000B821C2F307225A70026802EB0112D2F87B
:10508000B821C2F307429A70026802EB0112D2F80B
:10509000B821120EDA70026802EB0112D2F8BC21BC
:1050A0001A71026802EB0112D2F8BC21C2F3072286
:1050B0005A71026802EB0112D2F8BC21C2F3074216
:1050C0009A71026802EB0112D2F8BC21120EDA7159
:1050D00079B90268D36843F02003D360002030BC64
:1050E000704701F11B04240105682C59E408546041
:1050F00099E70268136943F020031361EEE7436AFE
:1051000043F4802343620120704790F82030013B34
:10511000DBB2012B05D9436A43F4802343620120AB
:105120007047026853691943516100207047704706
:1051300070477047704770477047704770477047B7
:105140007047704770472DE9F84F054603685C6962
:10515000D3F804809F68D3F80CB0D3F810A0D3F82C
:10516000189014F001063BD017F0010616D001226A
:105170009A6017F0020F08D117F0040F0CD117F046
:10518000080606D04FF4805608E0FFF7D0FF00264F
:1051900004E0FFF7CFFF01E04FF4006617F4807FD3
:1051A0000DD02B684FF480729A6017F4007F40F0A6
:1051B000868017F4806F00F0868046F4005617F45E
:1051C000803F0DD02B684FF480329A6017F4003F77
:1051D00040F0838017F4802F00F0838046F400466F
:1051E00014F0080F07D01BF0100F04D046F400761F
:1051F0002B681022DA6014F0040F02D01BF0080FA5
:1052000079D114F0020F04D02B68DB6813F0030F80
:1052100078D114F0400F07D01AF0100F04D046F4E4
:1052200080662B6810221A6114F0200F02D01AF049
:10523000080F6BD114F0100F04D02B681B6913F00A
:10524000030F6AD114F4003F02D018F0100F68D198
:1052500014F4803F02D018F0080F69D114F4004F05
:105260007AD018F0040F74D014F4807F04D019F0B1
:10527000010F01D046F0010614F4007F04D019F0AC
:10528000020F01D046F0020614F4806F04D019F02A
:10529000040F01D046F0040614F4006F59D019F041
:1052A000700956D0B9F1400F65D058D8B9F1200F28
:1052B0005ED0B9F1300F42D146F0200644E02846D6
:1052C000FFF736FF7BE717F4006F02D046F4804605
:1052D00075E72846FFF72FFF71E72846FFF729FFFC
:1052E0007EE717F4002F02D046F4803678E7284690
:1052F000FFF722FF74E72B680822DA602846FFF7E1
:105300001CFF7EE7284606F0E5FC82E72B680822B2
:105310001A612846FFF713FF8CE72846FFF70EFFB8
:1053200090E72B6810225A602846FFF709FF8FE7A5
:105330002B6808225A602846FFF703FF8EE7B9F171
:10534000100F01D146F008062A68936923F0700314
:1053500093612B6804225A609EB9BDE8F88FB9F1B9
:10536000500F0BD0B9F1600FEED146F48076EBE729
:1053700046F01006E8E746F04006E5E746F080060E
:10538000E2E76B6A1E436E622846FFF7DBFEE4E746
:105390002DE9F04782B00546884617461E46FFF7BE
:1053A00007FC0A9B1B1A03EB0609FFF701FC824668
:1053B0002B4B1B68C3F3CB3309FB03F301932B681F
:1053C0009C6838EA04030CBF4FF0010C4FF0000C4E
:1053D000BC4540D0B6F1FF3FF1D0FFF7E9FBA0EBB1
:1053E0000A0048450AD2B9F1000F07D0019A02B16C
:1053F0004A46019B013B01939146E0E72A685368C6
:1054000023F0E00353606B68B3F5827F0BD0AB6A87
:10541000B3F5005F14D0012385F85130002385F8DF
:105420005030032018E0AB68B3F5004F02D0B3F55D
:10543000806FECD12A68136823F040031360E6E71D
:105440002A68136823F4005313602A68136843F42E
:1054500000531360DFE7002002B0BDE8F08700BF13
:105460006C00002010B584B00446164B1868164B2B
:10547000A3FB0030400D4FF47A7303FB00F0039060
:105480006368B3F5827F0BD0039BBBB1039B013BE9
:10549000039323689B6813F0800FF5D100200EE082
:1054A00000920B46002280212046FFF771FF30B1A9
:1054B000636D43F020036365032000E0002004B027
:1054C00010BD00BF6C000020819F5E1600285AD0DE
:1054D00010B50446436A33B94368B3F5827F05D0FB
:1054E0000023C36102E00023036143610023A36240
:1054F00094F85130002B40D0022384F851302268B8
:10550000136823F040031360636803F48273A26896
:1055100002F404421343E26802F400621343226976
:1055200002F002021343626902F001021343A2690E
:1055300002F400721343E26902F038021343226A54
:1055400002F080021343A26A02F40052216813435E
:105550000B60638B03F00403626A02F0100221689F
:1055600013434B602268D36923F40063D3610020A6
:105570006065012384F8513010BD84F85030204616
:10558000FCF75CF8B8E7012070472DE9F04383B0E1
:105590001F460A9D90F85030012B00F01081044600
:1055A00088469146012380F85030FFF701FB0646FC
:1055B00094F85130DBB26268012B0AD0B2F5827FD9
:1055C00040F0E380A268002A40F0E980042B40F01C
:1055D000E880B8F1000F00F0E680B9F1000F00F0AC
:1055E000E480002F00F0E38094F85130DBB2042B0C
:1055F00002D0052384F8513000236365C4F8389045
:10560000E787A787C4F83080E786A78623646364AA
:1056100023681A6812F0400F03D11A6842F0400262
:105620001A60E368B3F5006F11D063680BB1012F06
:105630000BD1226B236812781A73236B0133236317
:10564000E38E9BB2013B9BB2E38601276BE063686C
:105650000BB1012F0BD1226B23681288DA60236B08
:1056600002332363E38E9BB2013B9BB2E3860127A7
:105670001CE023689A6812F0010F0ED0E28F92B2FC
:105680005AB1DA68A36B1A80A36B0233A363E38F6A
:105690009BB2013B9BB2E3870127FFF789FA801B8E
:1056A000A84203D3B5F1FF3F40F08380E38E9BB265
:1056B0001BB9E38F9BB2002B53D023689A6812F07A
:1056C000020FD6D0E28E92B2002AD2D0002FD0D0D4
:1056D000226B1288DA60236B02332363E38E9BB262
:1056E000013B9BB2E3860027C3E723689A6812F068
:1056F000010F0ED0E28F92B25AB1DA68A36B1A7022
:10570000A36B0133A363E38F9BB2013B9BB2E3879F
:105710000127FFF74DFA831BAB4202D3B5F1FF3FE0
:1057200049D1002D49D0E38E9BB213B9E38F9BB2D0
:10573000BBB123689A6812F0020FD6D0E28E92B203
:10574000002AD2D0002FD0D0226B12781A73236B8C
:1057500001332363E38E9BB2013B9BB2E3860027B8
:10576000C3E7324629462046FFF77CFE48B9A368C6
:1057700063B901932368DA6801929B680193019BE6
:1057800004E020236365012000E00220012384F867
:105790005130002384F8503003B0BDE8F08302207C
:1057A000F4E70220F2E70120F0E70120EEE7012014
:1057B000ECE70320EAE70320E8E70320E6E702201E
:1057C000EAE7000030B4036A23F001030362036ACE
:1057D0004268846924F073040D682C4323F0020CA2
:1057E0008B6843EA0C03104DA84203D005F5806591
:1057F000A84205D123F00803CD682B4323F004030E
:10580000094DA84203D005F58065A84205D122F4D0
:1058100040724D692A438D692A43426084614A6817
:105820004263036230BC70470000014030B4036A39
:1058300023F480730362036A4268C46924F0730C22
:105840000C6844EA0C0523F400738C6843EA0423D3
:10585000114CA04203D004F58064A04206D123F489
:105860000063CC6843EA042323F480630A4CA0421B
:1058700003D004F58064A04207D122F440524C6961
:1058800042EA04128C6942EA04124260C5614A6825
:10589000C263036230BC70470000014030B4036A49
:1058A00023F480530362036A4468C26922F4E64227
:1058B0000D6842EA052223F400538D6843EA05335C
:1058C000094DA84203D005F58065A84204D124F40F
:1058D00080444D6944EA85144460C2614A680264A8
:1058E000036230BC704700BF0000014010B4036A7F
:1058F000046A24F001040462846924F0F00C4CEA88
:10590000021223F00A030B43826103625DF8044B29
:10591000704710B4046A24F0100404628469036AB6
:1059200024F4704C4CEA023223F0A00343EA011342
:10593000826103625DF8044B7047836823F0700353
:105940000B4343F0070383607047000090F83D303D
:10595000DBB2012B37D1022380F83D300268D368D7
:1059600043F00103D3600368194A934220D0B3F196
:10597000804F1DD0A2F57C42934219D002F580627F
:10598000934215D002F58062934211D002F578421D
:1059900093420DD002F57052934209D0A2F5943291
:1059A000934205D01A6842F001021A600020704745
:1059B0009A6802F00702062A07D01A6842F001022C
:1059C0001A6000207047012070470020704700BF18
:1059D000000001407047704770477047704710B52E
:1059E000044603681A6912F0020F11D0DA6812F047
:1059F000020F0DD06FF002021A61012303770368D2
:105A00009B6913F0030F70D0FFF7E6FF00232377A5
:105A100023681A6912F0040F12D0DA6812F0040F2A
:105A20000ED06FF004021A610223237723689B696A
:105A300013F4407F5FD02046FFF7CEFF002323778B
:105A400023681A6912F0080F12D0DA6812F0080FF2
:105A50000ED06FF008021A61042323772368DB69F4
:105A600013F0030F4ED02046FFF7B6FF0023237735
:105A700023681A6912F0100F12D0DA6812F0100FB2
:105A80000ED06FF010021A61082323772368DB69B8
:105A900013F4407F3DD02046FFF79EFF002323777D
:105AA00023681A6912F0010F03D0DA6812F0010FAF
:105AB00036D123681A6912F0800F03D0DA6812F029
:105AC000800F34D123681A6912F0400F03D0DA68CE
:105AD00012F0400F32D123681A6912F0200F03D060
